{
  "contracts/INVENT.sol": {
    "INVENT": {
      "abi": [
        {
          "inputs": [],
          "stateMutability": "nonpayable",
          "type": "constructor"
        },
        {
          "anonymous": false,
          "inputs": [
            {
              "indexed": true,
              "internalType": "address",
              "name": "owner",
              "type": "address"
            },
            {
              "indexed": true,
              "internalType": "address",
              "name": "spender",
              "type": "address"
            },
            {
              "indexed": false,
              "internalType": "uint256",
              "name": "value",
              "type": "uint256"
            }
          ],
          "name": "Approval",
          "type": "event"
        },
        {
          "anonymous": false,
          "inputs": [
            {
              "indexed": false,
              "internalType": "uint256",
              "name": "minTokensBeforeSwap",
              "type": "uint256"
            }
          ],
          "name": "MinTokensBeforeSwapUpdated",
          "type": "event"
        },
        {
          "anonymous": false,
          "inputs": [
            {
              "indexed": true,
              "internalType": "address",
              "name": "previousOwner",
              "type": "address"
            },
            {
              "indexed": true,
              "internalType": "address",
              "name": "newOwner",
              "type": "address"
            }
          ],
          "name": "OwnershipTransferred",
          "type": "event"
        },
        {
          "anonymous": false,
          "inputs": [
            {
              "indexed": false,
              "internalType": "uint256",
              "name": "tokensSwapped",
              "type": "uint256"
            },
            {
              "indexed": false,
              "internalType": "uint256",
              "name": "ethReceived",
              "type": "uint256"
            },
            {
              "indexed": false,
              "internalType": "uint256",
              "name": "tokensIntoLiqudity",
              "type": "uint256"
            }
          ],
          "name": "SwapAndLiquify",
          "type": "event"
        },
        {
          "anonymous": false,
          "inputs": [
            {
              "indexed": false,
              "internalType": "bool",
              "name": "enabled",
              "type": "bool"
            }
          ],
          "name": "SwapAndLiquifyEnabledUpdated",
          "type": "event"
        },
        {
          "anonymous": false,
          "inputs": [
            {
              "indexed": true,
              "internalType": "address",
              "name": "from",
              "type": "address"
            },
            {
              "indexed": true,
              "internalType": "address",
              "name": "to",
              "type": "address"
            },
            {
              "indexed": false,
              "internalType": "uint256",
              "name": "value",
              "type": "uint256"
            }
          ],
          "name": "Transfer",
          "type": "event"
        },
        {
          "anonymous": false,
          "inputs": [
            {
              "indexed": true,
              "internalType": "address",
              "name": "from",
              "type": "address"
            },
            {
              "indexed": true,
              "internalType": "address",
              "name": "to",
              "type": "address"
            },
            {
              "indexed": false,
              "internalType": "uint256",
              "name": "total_Amount",
              "type": "uint256"
            },
            {
              "indexed": false,
              "internalType": "uint256",
              "name": "reflected_amount",
              "type": "uint256"
            },
            {
              "indexed": false,
              "internalType": "uint256",
              "name": "total_TransferAmount",
              "type": "uint256"
            },
            {
              "indexed": false,
              "internalType": "uint256",
              "name": "reflected_TransferAmount",
              "type": "uint256"
            }
          ],
          "name": "TransferDetails",
          "type": "event"
        },
        {
          "inputs": [
            {
              "internalType": "address",
              "name": "newWallet",
              "type": "address"
            }
          ],
          "name": "Change_Wallet_Burn",
          "outputs": [],
          "stateMutability": "nonpayable",
          "type": "function"
        },
        {
          "inputs": [
            {
              "internalType": "address",
              "name": "newWallet",
              "type": "address"
            }
          ],
          "name": "Change_Wallet_Buyback",
          "outputs": [],
          "stateMutability": "nonpayable",
          "type": "function"
        },
        {
          "inputs": [
            {
              "internalType": "address",
              "name": "newWallet",
              "type": "address"
            }
          ],
          "name": "Change_Wallet_Marketing",
          "outputs": [],
          "stateMutability": "nonpayable",
          "type": "function"
        },
        {
          "inputs": [],
          "name": "___feesInfo",
          "outputs": [
            {
              "internalType": "uint256",
              "name": "NumTokensSellToAddToLiquidity",
              "type": "uint256"
            },
            {
              "internalType": "uint256",
              "name": "contractTokenBalance",
              "type": "uint256"
            },
            {
              "internalType": "uint256",
              "name": "Reflection_tokens_stored",
              "type": "uint256"
            }
          ],
          "stateMutability": "view",
          "type": "function"
        },
        {
          "inputs": [],
          "name": "___tokenInfo",
          "outputs": [
            {
              "internalType": "uint8",
              "name": "Decimals",
              "type": "uint8"
            },
            {
              "internalType": "uint256",
              "name": "MaxTxAmount",
              "type": "uint256"
            },
            {
              "internalType": "uint256",
              "name": "MaxWalletToken",
              "type": "uint256"
            },
            {
              "internalType": "uint256",
              "name": "TotalSupply",
              "type": "uint256"
            },
            {
              "internalType": "uint256",
              "name": "Reflected_Supply",
              "type": "uint256"
            },
            {
              "internalType": "uint256",
              "name": "Reflection_Rate",
              "type": "uint256"
            },
            {
              "internalType": "bool",
              "name": "TradingOpen",
              "type": "bool"
            },
            {
              "internalType": "bool",
              "name": "Cooldown_timer_enabled",
              "type": "bool"
            },
            {
              "internalType": "uint8",
              "name": "Cooldown_timer_interval",
              "type": "uint8"
            }
          ],
          "stateMutability": "view",
          "type": "function"
        },
        {
          "inputs": [],
          "name": "___wallets",
          "outputs": [
            {
              "internalType": "uint256",
              "name": "Reflection_Fees",
              "type": "uint256"
            },
            {
              "internalType": "uint256",
              "name": "Liquidity_Fee",
              "type": "uint256"
            },
            {
              "internalType": "uint256",
              "name": "Buyback_Fee",
              "type": "uint256"
            },
            {
              "internalType": "uint256",
              "name": "Buyback_Fee_Convert_Limit",
              "type": "uint256"
            },
            {
              "internalType": "uint256",
              "name": "Buyback_Fee_Minimum_Balance",
              "type": "uint256"
            },
            {
              "internalType": "uint256",
              "name": "Marketing_Fee",
              "type": "uint256"
            },
            {
              "internalType": "uint256",
              "name": "Marketing_Fee_Convert_Limit",
              "type": "uint256"
            },
            {
              "internalType": "uint256",
              "name": "Marketing_Fee_Minimum_Balance",
              "type": "uint256"
            },
            {
              "internalType": "uint256",
              "name": "Burn_Fee",
              "type": "uint256"
            },
            {
              "internalType": "address",
              "name": "Buyback_Wallet_Address",
              "type": "address"
            },
            {
              "internalType": "address",
              "name": "Burn_Wallet_Address",
              "type": "address"
            },
            {
              "internalType": "address",
              "name": "Marketing_Wallet_Address",
              "type": "address"
            }
          ],
          "stateMutability": "view",
          "type": "function"
        },
        {
          "inputs": [
            {
              "internalType": "address",
              "name": "",
              "type": "address"
            }
          ],
          "name": "_balance_reflected",
          "outputs": [
            {
              "internalType": "uint256",
              "name": "",
              "type": "uint256"
            }
          ],
          "stateMutability": "view",
          "type": "function"
        },
        {
          "inputs": [
            {
              "internalType": "address",
              "name": "",
              "type": "address"
            }
          ],
          "name": "_balance_total",
          "outputs": [
            {
              "internalType": "uint256",
              "name": "",
              "type": "uint256"
            }
          ],
          "stateMutability": "view",
          "type": "function"
        },
        {
          "inputs": [],
          "name": "_fee_burn",
          "outputs": [
            {
              "internalType": "uint256",
              "name": "",
              "type": "uint256"
            }
          ],
          "stateMutability": "view",
          "type": "function"
        },
        {
          "inputs": [],
          "name": "_fee_buyback",
          "outputs": [
            {
              "internalType": "uint256",
              "name": "",
              "type": "uint256"
            }
          ],
          "stateMutability": "view",
          "type": "function"
        },
        {
          "inputs": [],
          "name": "_fee_buyback_convert_limit",
          "outputs": [
            {
              "internalType": "uint256",
              "name": "",
              "type": "uint256"
            }
          ],
          "stateMutability": "view",
          "type": "function"
        },
        {
          "inputs": [],
          "name": "_fee_buyback_min_bal",
          "outputs": [
            {
              "internalType": "uint256",
              "name": "",
              "type": "uint256"
            }
          ],
          "stateMutability": "view",
          "type": "function"
        },
        {
          "inputs": [],
          "name": "_fee_denominator",
          "outputs": [
            {
              "internalType": "uint256",
              "name": "",
              "type": "uint256"
            }
          ],
          "stateMutability": "view",
          "type": "function"
        },
        {
          "inputs": [],
          "name": "_fee_liquidity",
          "outputs": [
            {
              "internalType": "uint256",
              "name": "",
              "type": "uint256"
            }
          ],
          "stateMutability": "view",
          "type": "function"
        },
        {
          "inputs": [],
          "name": "_fee_marketing",
          "outputs": [
            {
              "internalType": "uint256",
              "name": "",
              "type": "uint256"
            }
          ],
          "stateMutability": "view",
          "type": "function"
        },
        {
          "inputs": [],
          "name": "_fee_marketing_convert_limit",
          "outputs": [
            {
              "internalType": "uint256",
              "name": "",
              "type": "uint256"
            }
          ],
          "stateMutability": "view",
          "type": "function"
        },
        {
          "inputs": [],
          "name": "_fee_marketing_min_bal",
          "outputs": [
            {
              "internalType": "uint256",
              "name": "",
              "type": "uint256"
            }
          ],
          "stateMutability": "view",
          "type": "function"
        },
        {
          "inputs": [],
          "name": "_fee_reflection",
          "outputs": [
            {
              "internalType": "uint256",
              "name": "",
              "type": "uint256"
            }
          ],
          "stateMutability": "view",
          "type": "function"
        },
        {
          "inputs": [
            {
              "internalType": "address",
              "name": "",
              "type": "address"
            }
          ],
          "name": "_isBlacklisted",
          "outputs": [
            {
              "internalType": "bool",
              "name": "",
              "type": "bool"
            }
          ],
          "stateMutability": "view",
          "type": "function"
        },
        {
          "inputs": [
            {
              "internalType": "address",
              "name": "",
              "type": "address"
            }
          ],
          "name": "_isWhitelisted",
          "outputs": [
            {
              "internalType": "bool",
              "name": "",
              "type": "bool"
            }
          ],
          "stateMutability": "view",
          "type": "function"
        },
        {
          "inputs": [],
          "name": "_maxTxAmount",
          "outputs": [
            {
              "internalType": "uint256",
              "name": "",
              "type": "uint256"
            }
          ],
          "stateMutability": "view",
          "type": "function"
        },
        {
          "inputs": [],
          "name": "_maxWalletToken",
          "outputs": [
            {
              "internalType": "uint256",
              "name": "",
              "type": "uint256"
            }
          ],
          "stateMutability": "view",
          "type": "function"
        },
        {
          "inputs": [],
          "name": "_numTokensSellToAddToLiquidity",
          "outputs": [
            {
              "internalType": "uint256",
              "name": "",
              "type": "uint256"
            }
          ],
          "stateMutability": "view",
          "type": "function"
        },
        {
          "inputs": [],
          "name": "_wallet_burn",
          "outputs": [
            {
              "internalType": "address payable",
              "name": "",
              "type": "address"
            }
          ],
          "stateMutability": "view",
          "type": "function"
        },
        {
          "inputs": [],
          "name": "_wallet_buyback",
          "outputs": [
            {
              "internalType": "address payable",
              "name": "",
              "type": "address"
            }
          ],
          "stateMutability": "view",
          "type": "function"
        },
        {
          "inputs": [],
          "name": "_wallet_marketing",
          "outputs": [
            {
              "internalType": "address payable",
              "name": "",
              "type": "address"
            }
          ],
          "stateMutability": "view",
          "type": "function"
        },
        {
          "inputs": [
            {
              "internalType": "address",
              "name": "owner",
              "type": "address"
            },
            {
              "internalType": "address",
              "name": "spender",
              "type": "address"
            }
          ],
          "name": "allowance",
          "outputs": [
            {
              "internalType": "uint256",
              "name": "",
              "type": "uint256"
            }
          ],
          "stateMutability": "view",
          "type": "function"
        },
        {
          "inputs": [
            {
              "internalType": "address",
              "name": "spender",
              "type": "address"
            },
            {
              "internalType": "uint256",
              "name": "amount",
              "type": "uint256"
            }
          ],
          "name": "approve",
          "outputs": [
            {
              "internalType": "bool",
              "name": "",
              "type": "bool"
            }
          ],
          "stateMutability": "nonpayable",
          "type": "function"
        },
        {
          "inputs": [
            {
              "internalType": "address",
              "name": "account",
              "type": "address"
            }
          ],
          "name": "balanceOf",
          "outputs": [
            {
              "internalType": "uint256",
              "name": "",
              "type": "uint256"
            }
          ],
          "stateMutability": "view",
          "type": "function"
        },
        {
          "inputs": [
            {
              "internalType": "address",
              "name": "wallet",
              "type": "address"
            },
            {
              "internalType": "uint256",
              "name": "tokensToConvert",
              "type": "uint256"
            }
          ],
          "name": "burn_tokens_to_dead",
          "outputs": [],
          "stateMutability": "nonpayable",
          "type": "function"
        },
        {
          "inputs": [],
          "name": "buyCooldownEnabled",
          "outputs": [
            {
              "internalType": "bool",
              "name": "",
              "type": "bool"
            }
          ],
          "stateMutability": "view",
          "type": "function"
        },
        {
          "inputs": [
            {
              "internalType": "uint256",
              "name": "tokensToConvert",
              "type": "uint256"
            }
          ],
          "name": "convertLiquidityBalance",
          "outputs": [],
          "stateMutability": "nonpayable",
          "type": "function"
        },
        {
          "inputs": [
            {
              "internalType": "bool",
              "name": "_status",
              "type": "bool"
            },
            {
              "internalType": "uint8",
              "name": "_interval",
              "type": "uint8"
            }
          ],
          "name": "cooldownEnabled",
          "outputs": [],
          "stateMutability": "nonpayable",
          "type": "function"
        },
        {
          "inputs": [],
          "name": "cooldownTimerInterval",
          "outputs": [
            {
              "internalType": "uint8",
              "name": "",
              "type": "uint8"
            }
          ],
          "stateMutability": "view",
          "type": "function"
        },
        {
          "inputs": [],
          "name": "decimals",
          "outputs": [
            {
              "internalType": "uint8",
              "name": "",
              "type": "uint8"
            }
          ],
          "stateMutability": "view",
          "type": "function"
        },
        {
          "inputs": [
            {
              "internalType": "address",
              "name": "spender",
              "type": "address"
            },
            {
              "internalType": "uint256",
              "name": "subtractedValue",
              "type": "uint256"
            }
          ],
          "name": "decreaseAllowance",
          "outputs": [
            {
              "internalType": "bool",
              "name": "",
              "type": "bool"
            }
          ],
          "stateMutability": "nonpayable",
          "type": "function"
        },
        {
          "inputs": [
            {
              "internalType": "uint256",
              "name": "tAmount",
              "type": "uint256"
            }
          ],
          "name": "deliver",
          "outputs": [],
          "stateMutability": "nonpayable",
          "type": "function"
        },
        {
          "inputs": [
            {
              "internalType": "address",
              "name": "account",
              "type": "address"
            }
          ],
          "name": "excludeFromReward",
          "outputs": [],
          "stateMutability": "nonpayable",
          "type": "function"
        },
        {
          "inputs": [
            {
              "internalType": "uint256",
              "name": "tokensToConvert",
              "type": "uint256"
            },
            {
              "internalType": "address payable",
              "name": "feeWallet",
              "type": "address"
            },
            {
              "internalType": "uint256",
              "name": "minBalanceToKeep",
              "type": "uint256"
            }
          ],
          "name": "fees_to_bnb_manual",
          "outputs": [],
          "stateMutability": "nonpayable",
          "type": "function"
        },
        {
          "inputs": [
            {
              "internalType": "address",
              "name": "account",
              "type": "address"
            }
          ],
          "name": "includeInReward",
          "outputs": [],
          "stateMutability": "nonpayable",
          "type": "function"
        },
        {
          "inputs": [
            {
              "internalType": "address",
              "name": "spender",
              "type": "address"
            },
            {
              "internalType": "uint256",
              "name": "addedValue",
              "type": "uint256"
            }
          ],
          "name": "increaseAllowance",
          "outputs": [
            {
              "internalType": "bool",
              "name": "",
              "type": "bool"
            }
          ],
          "stateMutability": "nonpayable",
          "type": "function"
        },
        {
          "inputs": [
            {
              "internalType": "address",
              "name": "account",
              "type": "address"
            }
          ],
          "name": "isExcludedFromFee",
          "outputs": [
            {
              "internalType": "bool",
              "name": "",
              "type": "bool"
            }
          ],
          "stateMutability": "view",
          "type": "function"
        },
        {
          "inputs": [
            {
              "internalType": "address",
              "name": "account",
              "type": "address"
            }
          ],
          "name": "isExcludedFromReward",
          "outputs": [
            {
              "internalType": "bool",
              "name": "",
              "type": "bool"
            }
          ],
          "stateMutability": "view",
          "type": "function"
        },
        {
          "inputs": [],
          "name": "name",
          "outputs": [
            {
              "internalType": "string",
              "name": "",
              "type": "string"
            }
          ],
          "stateMutability": "view",
          "type": "function"
        },
        {
          "inputs": [],
          "name": "owner",
          "outputs": [
            {
              "internalType": "address",
              "name": "",
              "type": "address"
            }
          ],
          "stateMutability": "view",
          "type": "function"
        },
        {
          "inputs": [],
          "name": "purgeContractBalance",
          "outputs": [],
          "stateMutability": "nonpayable",
          "type": "function"
        },
        {
          "inputs": [
            {
              "internalType": "uint256",
              "name": "tAmount",
              "type": "uint256"
            },
            {
              "internalType": "bool",
              "name": "deductTransferFee",
              "type": "bool"
            }
          ],
          "name": "reflectionFromToken",
          "outputs": [
            {
              "internalType": "uint256",
              "name": "",
              "type": "uint256"
            }
          ],
          "stateMutability": "view",
          "type": "function"
        },
        {
          "inputs": [
            {
              "internalType": "address[]",
              "name": "addresses",
              "type": "address[]"
            },
            {
              "internalType": "bool",
              "name": "status",
              "type": "bool"
            }
          ],
          "name": "s_excludeFromFee",
          "outputs": [],
          "stateMutability": "nonpayable",
          "type": "function"
        },
        {
          "inputs": [
            {
              "internalType": "address[]",
              "name": "addresses",
              "type": "address[]"
            },
            {
              "internalType": "bool",
              "name": "status",
              "type": "bool"
            }
          ],
          "name": "s_manageBlacklist",
          "outputs": [],
          "stateMutability": "nonpayable",
          "type": "function"
        },
        {
          "inputs": [
            {
              "internalType": "address[]",
              "name": "addresses",
              "type": "address[]"
            },
            {
              "internalType": "bool",
              "name": "status",
              "type": "bool"
            }
          ],
          "name": "s_manageExcludeFromFee",
          "outputs": [],
          "stateMutability": "nonpayable",
          "type": "function"
        },
        {
          "inputs": [
            {
              "internalType": "address[]",
              "name": "addresses",
              "type": "address[]"
            },
            {
              "internalType": "bool",
              "name": "status",
              "type": "bool"
            }
          ],
          "name": "s_manageWhitelist",
          "outputs": [],
          "stateMutability": "nonpayable",
          "type": "function"
        },
        {
          "inputs": [],
          "name": "sellMultiplier",
          "outputs": [
            {
              "internalType": "uint256",
              "name": "",
              "type": "uint256"
            }
          ],
          "stateMutability": "view",
          "type": "function"
        },
        {
          "inputs": [
            {
              "internalType": "uint256",
              "name": "maxTxPercent",
              "type": "uint256"
            }
          ],
          "name": "setMaxTxPercent_base1000",
          "outputs": [],
          "stateMutability": "nonpayable",
          "type": "function"
        },
        {
          "inputs": [
            {
              "internalType": "uint256",
              "name": "maxTxTokens",
              "type": "uint256"
            }
          ],
          "name": "setMaxTxTokens",
          "outputs": [],
          "stateMutability": "nonpayable",
          "type": "function"
        },
        {
          "inputs": [
            {
              "internalType": "uint256",
              "name": "maxWallPercent",
              "type": "uint256"
            }
          ],
          "name": "setMaxWalletPercent_base1000",
          "outputs": [],
          "stateMutability": "nonpayable",
          "type": "function"
        },
        {
          "inputs": [
            {
              "internalType": "uint256",
              "name": "maxWallTokens",
              "type": "uint256"
            }
          ],
          "name": "setMaxWalletTokens",
          "outputs": [],
          "stateMutability": "nonpayable",
          "type": "function"
        },
        {
          "inputs": [
            {
              "internalType": "uint256",
              "name": "numTokensSellToAddToLiquidity",
              "type": "uint256"
            }
          ],
          "name": "setNumTokensSellToAddToLiquidityt",
          "outputs": [],
          "stateMutability": "nonpayable",
          "type": "function"
        },
        {
          "inputs": [
            {
              "internalType": "bool",
              "name": "_status",
              "type": "bool"
            }
          ],
          "name": "setSwapAndLiquifyEnabled",
          "outputs": [],
          "stateMutability": "nonpayable",
          "type": "function"
        },
        {
          "inputs": [
            {
              "internalType": "uint256",
              "name": "Buyback_Fee",
              "type": "uint256"
            },
            {
              "internalType": "uint256",
              "name": "Burn_Fees",
              "type": "uint256"
            },
            {
              "internalType": "uint256",
              "name": "Liquidity_Fees",
              "type": "uint256"
            },
            {
              "internalType": "uint256",
              "name": "Reflection_Fees",
              "type": "uint256"
            },
            {
              "internalType": "uint256",
              "name": "MarketingFee",
              "type": "uint256"
            }
          ],
          "name": "set_All_Fees",
          "outputs": [],
          "stateMutability": "nonpayable",
          "type": "function"
        },
        {
          "inputs": [
            {
              "internalType": "uint256",
              "name": "marketing_fee_minimum_balance",
              "type": "uint256"
            },
            {
              "internalType": "uint256",
              "name": "buyback_fee_minimum_balance",
              "type": "uint256"
            }
          ],
          "name": "set_All_Fees_Minimum_Balance",
          "outputs": [],
          "stateMutability": "nonpayable",
          "type": "function"
        },
        {
          "inputs": [
            {
              "internalType": "uint256",
              "name": "marketing_fee_convert_limit",
              "type": "uint256"
            },
            {
              "internalType": "uint256",
              "name": "buyback_fee_convert_limit",
              "type": "uint256"
            }
          ],
          "name": "set_All_Fees_Triggers",
          "outputs": [],
          "stateMutability": "nonpayable",
          "type": "function"
        },
        {
          "inputs": [
            {
              "internalType": "uint256",
              "name": "Multiplier",
              "type": "uint256"
            }
          ],
          "name": "set_sell_multiplier",
          "outputs": [],
          "stateMutability": "nonpayable",
          "type": "function"
        },
        {
          "inputs": [],
          "name": "swapAndLiquifyEnabled",
          "outputs": [
            {
              "internalType": "bool",
              "name": "",
              "type": "bool"
            }
          ],
          "stateMutability": "view",
          "type": "function"
        },
        {
          "inputs": [],
          "name": "symbol",
          "outputs": [
            {
              "internalType": "string",
              "name": "",
              "type": "string"
            }
          ],
          "stateMutability": "view",
          "type": "function"
        },
        {
          "inputs": [
            {
              "internalType": "uint256",
              "name": "rAmount",
              "type": "uint256"
            }
          ],
          "name": "tokenFromReflection",
          "outputs": [
            {
              "internalType": "uint256",
              "name": "",
              "type": "uint256"
            }
          ],
          "stateMutability": "view",
          "type": "function"
        },
        {
          "inputs": [],
          "name": "totalFees",
          "outputs": [
            {
              "internalType": "uint256",
              "name": "",
              "type": "uint256"
            }
          ],
          "stateMutability": "view",
          "type": "function"
        },
        {
          "inputs": [],
          "name": "totalSupply",
          "outputs": [
            {
              "internalType": "uint256",
              "name": "",
              "type": "uint256"
            }
          ],
          "stateMutability": "view",
          "type": "function"
        },
        {
          "inputs": [],
          "name": "tradingOpen",
          "outputs": [
            {
              "internalType": "bool",
              "name": "",
              "type": "bool"
            }
          ],
          "stateMutability": "view",
          "type": "function"
        },
        {
          "inputs": [
            {
              "internalType": "bool",
              "name": "_status",
              "type": "bool"
            }
          ],
          "name": "tradingStatus",
          "outputs": [],
          "stateMutability": "nonpayable",
          "type": "function"
        },
        {
          "inputs": [
            {
              "internalType": "address",
              "name": "recipient",
              "type": "address"
            },
            {
              "internalType": "uint256",
              "name": "amount",
              "type": "uint256"
            }
          ],
          "name": "transfer",
          "outputs": [
            {
              "internalType": "bool",
              "name": "",
              "type": "bool"
            }
          ],
          "stateMutability": "nonpayable",
          "type": "function"
        },
        {
          "inputs": [
            {
              "internalType": "address",
              "name": "sender",
              "type": "address"
            },
            {
              "internalType": "address",
              "name": "recipient",
              "type": "address"
            },
            {
              "internalType": "uint256",
              "name": "amount",
              "type": "uint256"
            }
          ],
          "name": "transferFrom",
          "outputs": [
            {
              "internalType": "bool",
              "name": "",
              "type": "bool"
            }
          ],
          "stateMutability": "nonpayable",
          "type": "function"
        },
        {
          "inputs": [
            {
              "internalType": "address",
              "name": "newOwner",
              "type": "address"
            }
          ],
          "name": "transferOwnership",
          "outputs": [],
          "stateMutability": "nonpayable",
          "type": "function"
        },
        {
          "inputs": [],
          "name": "uniswapV2Pair",
          "outputs": [
            {
              "internalType": "address",
              "name": "",
              "type": "address"
            }
          ],
          "stateMutability": "view",
          "type": "function"
        },
        {
          "inputs": [],
          "name": "uniswapV2Router",
          "outputs": [
            {
              "internalType": "contract IUniswapV2Router02",
              "name": "",
              "type": "address"
            }
          ],
          "stateMutability": "view",
          "type": "function"
        },
        {
          "stateMutability": "payable",
          "type": "receive"
        }
      ],
      "evm": {
        "bytecode": {
          "linkReferences": {},
          "object": "60c06040526008805462ffffff1916623c0100179055600b8054600c60ff1990911681179091556200003390600a620006a3565b620000449064e8d4a510006200078e565b600c819055620000579060001962000807565b6200006590600019620007b0565b600d556040805180820190915260068082526512539591539560d21b60209092019182526200009791600e9162000569565b506040805180820190915260038082526224a72b60e91b6020909201918252620000c491600f9162000569565b50612710600c546001620000d991906200078e565b620000e591906200063f565b601055612710600c546001620000fc91906200078e565b6200010891906200063f565b60115560006012556064600c5460016200012391906200078e565b6200012f91906200063f565b601355600060148190556015819055601681905560178190556018819055601980546001600160a01b03199081167338febbbd7b96e459692c9b9fe8f8cf62653277c817909155601a829055601b829055601c8054821661dead179055601d829055601e829055601f805490911673356f3878b2aec668cef66f0a988f8e5bd264199d17905560208190556021556127106022556023805461ff001916610100179055600c54602481905560258190556103e890620001f09060026200078e565b620001fc91906200063f565b60265560c8602755602880546001600160a01b03199081167310ed43c718714eb63d5aa57b78b54704e256024e179091556029805490911661dead1790553480156200024757600080fd5b50600080546001600160a01b0319163390811782556040519091907f8be0079c531659141344cd1fd0a4f28419497f9722a3daafe3b4186f6b6457e0908290a3600d5460016000620002a16000546001600160a01b031690565b6001600160a01b039081168252602080830193909352604091820160002093909355602854815163c45a015560e01b81529151931692839263c45a01559260048082019391829003018186803b158015620002fb57600080fd5b505afa15801562000310573d6000803e3d6000fd5b505050506040513d601f19601f820116820180604052508101906200033691906200060f565b6001600160a01b031663c9c6539630836001600160a01b031663ad5c46486040518163ffffffff1660e01b815260040160206040518083038186803b1580156200037f57600080fd5b505afa15801562000394573d6000803e3d6000fd5b505050506040513d601f19601f82011682018060405250810190620003ba91906200060f565b6040516001600160e01b031960e085901b1681526001600160a01b03928316600482015291166024820152604401602060405180830381600087803b1580156200040357600080fd5b505af115801562000418573d6000803e3d6000fd5b505050506040513d601f19601f820116820180604052508101906200043e91906200060f565b6001600160601b0319606091821b811660a0529082901b16608052600160046000620004726000546001600160a01b031690565b6001600160a01b03908116825260208083019390935260409182016000908120805495151560ff199687161790553081526004909352818320805485166001908117909155602954821684528284208054861682179055601954821684528284208054861682179055601c54821684528284208054861682179055601f54909116835291208054909216179055620005126000546001600160a01b031690565b6001600160a01b031660006001600160a01b03167fddf252ad1be2c89b69c2b068fc378daa952ba7f163c4a11628f55a4df523b3ef600c546040516200055a91815260200190565b60405180910390a3506200084a565b8280546200057790620007ca565b90600052602060002090601f0160209004810192826200059b5760008555620005e6565b82601f10620005b657805160ff1916838001178555620005e6565b82800160010185558215620005e6579182015b82811115620005e6578251825591602001919060010190620005c9565b50620005f4929150620005f8565b5090565b5b80821115620005f45760008155600101620005f9565b60006020828403121562000621578081fd5b81516001600160a01b038116811462000638578182fd5b9392505050565b60008262000651576200065162000834565b500490565b80825b60018086116200066a57506200069a565b8187048211156200067f576200067f6200081e565b808616156200068d57918102915b9490941c93800262000659565b94509492505050565b60006200063860001960ff851684600082620006c25750600162000638565b81620006d15750600062000638565b8160018114620006ea5760028114620006f55762000729565b600191505062000638565b60ff8411156200070957620007096200081e565b6001841b9150848211156200072257620007226200081e565b5062000638565b5060208310610133831016604e8410600b841016171562000761575081810a838111156200075b576200075b6200081e565b62000638565b62000770848484600162000656565b8086048211156200078557620007856200081e565b02949350505050565b6000816000190483118215151615620007ab57620007ab6200081e565b500290565b600082821015620007c557620007c56200081e565b500390565b600181811c90821680620007df57607f821691505b602082108114156200080157634e487b7160e01b600052602260045260246000fd5b50919050565b60008262000819576200081962000834565b500690565b634e487b7160e01b600052601160045260246000fd5b634e487b7160e01b600052601260045260246000fd5b60805160601c60a05160601c613e60620008d16000396000818161082f015281816125a001528181612765015281816129cf01528181612a3a0152612b1c0152600081816105dc0152818161342b015281816135010152818161353d015281816135af0152818161361e015281816137e1015281816138b701526138f30152613e606000f3fe6080604052600436106104355760003560e01c806370a0823111610229578063b34b8ca31161012e578063dd62ed3e116100b6578063f2fde38b1161007a578063f2fde38b14610e0f578063fba206c314610e2f578063fd748c3014610e44578063fed0d2a114610e5a578063ffb54a9914610e705761043c565b8063dd62ed3e14610d53578063e20b5c0314610d99578063e38136ef14610daf578063ec72d65f14610dcf578063f00c332214610def5761043c565b8063b8786eb1116100fd578063b8786eb114610cbd578063bd9ab53714610cd3578063c49b9a8014610cf3578063d5c9c9fb14610d13578063d61df08314610d335761043c565b8063b34b8ca314610c5b578063b3f22ce314610c7b578063b839257614610c91578063b85f117514610ca75761043c565b8063910fb008116101b1578063a5ac51b611610180578063a5ac51b614610bc2578063a7eb8ee814610bd8578063a9059cbb14610bf8578063b1eb20e914610c18578063b2e4d5a114610c455761043c565b8063910fb00814610b4757806395d89b4114610b5d5780639cee214214610b72578063a457c2d714610ba25761043c565b80637d1db4a5116101f85780637d1db4a514610a9a5780638097e69714610ab0578063811ab49c14610ad057806388f8202014610af05780638da5cb5b14610b295761043c565b806370a0823114610a24578063722b62ad14610a4457806378109e5414610a645780637bcaae8a14610a7a5761043c565b80632d8381191161033a5780634549b039116102c25780635cfd7df4116102865780635cfd7df4146108c9578063617c62a1146108e9578063617fe0ed1461094c578063666a245d1461096b57806367dc9e921461098b5761043c565b80634549b039146107fd57806349bd5a5e1461081d5780634a74bb021461085157806352390c02146108705780635342acb4146108905761043c565b80633417ab1d116103095780633417ab1d146107675780633685d4191461077d578063395093511461079d5780633bd5d173146107bd57806342479199146107dd5761043c565b80632d838119146106e15780632db06cb314610701578063313ce5671461072157806333a06c94146107475761043c565b80630fec5dd0116103bd5780631c3c4fec1161038c5780631c3c4fec1461062b5780631cdd3be31461065b57806323b872dd1461068b57806328e2eaab146106ab5780632d594567146106c15761043c565b80630fec5dd01461059557806313114a9d146105b55780631694505e146105ca57806318160ddd146106165761043c565b806309302dc61161040457806309302dc6146104e5578063095ea7b3146105055780630aaff32c146105355780630b8df8e3146105555780630d295980146105755761043c565b8063053cfa251461044157806306e6ce751461048157806306f3a47b146104a357806306fdde03146104c35761043c565b3661043c57005b600080fd5b34801561044d57600080fd5b5061046e61045c366004613978565b60026020526000908152604090205481565b6040519081526020015b60405180910390f35b34801561048d57600080fd5b506104a161049c366004613a5a565b610e8a565b005b3480156104af57600080fd5b506104a16104be366004613b8c565b610f40565b3480156104cf57600080fd5b506104d8610f72565b6040516104789190613c57565b3480156104f157600080fd5b506104a1610500366004613b23565b611004565b34801561051157600080fd5b50610525610520366004613a2f565b61104f565b6040519015158152602001610478565b34801561054157600080fd5b506104a1610550366004613a5a565b611066565b34801561056157600080fd5b506104a1610570366004613978565b61110d565b34801561058157600080fd5b506104a1610590366004613ad9565b611159565b3480156105a157600080fd5b506104a16105b0366004613b23565b611196565b3480156105c157600080fd5b5060165461046e565b3480156105d657600080fd5b506105fe7f000000000000000000000000000000000000000000000000000000000000000081565b6040516001600160a01b039091168152602001610478565b34801561062257600080fd5b50600c5461046e565b34801561063757600080fd5b506106406111c5565b60408051938452602084019290925290820152606001610478565b34801561066757600080fd5b50610525610676366004613978565b60066020526000908152604090205460ff1681565b34801561069757600080fd5b506105256106a63660046139ef565b6111e4565b3480156106b757600080fd5b5061046e60135481565b3480156106cd57600080fd5b506104a16106dc366004613af3565b6112ba565b3480156106ed57600080fd5b5061046e6106fc366004613b23565b611315565b34801561070d57600080fd5b506104a161071c366004613b3b565b61139b565b34801561072d57600080fd5b50600b5460ff165b60405160ff9091168152602001610478565b34801561075357600080fd5b50601f546105fe906001600160a01b031681565b34801561077357600080fd5b5061046e60115481565b34801561078957600080fd5b506104a1610798366004613978565b6113d5565b3480156107a957600080fd5b506105256107b8366004613a2f565b6115c5565b3480156107c957600080fd5b506104a16107d8366004613b23565b6115fc565b3480156107e957600080fd5b506104a16107f8366004613bda565b6116ef565b34801561080957600080fd5b5061046e610818366004613b61565b6117d9565b34801561082957600080fd5b506105fe7f000000000000000000000000000000000000000000000000000000000000000081565b34801561085d57600080fd5b5060235461052590610100900460ff1681565b34801561087c57600080fd5b506104a161088b366004613978565b611870565b34801561089c57600080fd5b506105256108ab366004613978565b6001600160a01b031660009081526004602052604090205460ff1690565b3480156108d557600080fd5b506104a16108e4366004613b23565b6119c3565b3480156108f557600080fd5b506108fe6119f2565b6040805160ff9a8b16815260208101999099528801969096526060870194909452608086019290925260a0850152151560c0840152151560e083015290911661010082015261012001610478565b34801561095857600080fd5b5060085461052590610100900460ff1681565b34801561097757600080fd5b506019546105fe906001600160a01b031681565b34801561099757600080fd5b5060145460208054601d54601054601254601754601154601354601a54601f54601c54601954604080519d8e529b8d019a909a52998b019790975260608a0195909552608089019390935260a088019190915260c087015260e08601526101008501526001600160a01b039081166101208501529182166101408401521661016082015261018001610478565b348015610a3057600080fd5b5061046e610a3f366004613978565b611a56565b348015610a5057600080fd5b506008546107359062010000900460ff1681565b348015610a7057600080fd5b5061046e60245481565b348015610a8657600080fd5b506104a1610a95366004613978565b611ab8565b348015610aa657600080fd5b5061046e60255481565b348015610abc57600080fd5b506104a1610acb366004613b23565b611b04565b348015610adc57600080fd5b50601c546105fe906001600160a01b031681565b348015610afc57600080fd5b50610525610b0b366004613978565b6001600160a01b031660009081526005602052604090205460ff1690565b348015610b3557600080fd5b506000546001600160a01b03166105fe565b348015610b5357600080fd5b5061046e60205481565b348015610b6957600080fd5b506104d8611b33565b348015610b7e57600080fd5b50610525610b8d366004613978565b60076020526000908152604090205460ff1681565b348015610bae57600080fd5b50610525610bbd366004613a2f565b611b42565b348015610bce57600080fd5b5061046e601a5481565b348015610be457600080fd5b506104a1610bf3366004613b8c565b611bf9565b348015610c0457600080fd5b50610525610c13366004613a2f565b611c2e565b348015610c2457600080fd5b5061046e610c33366004613978565b60016020526000908152604090205481565b348015610c5157600080fd5b5061046e60105481565b348015610c6757600080fd5b506104a1610c76366004613b23565b611c3b565b348015610c8757600080fd5b5061046e60265481565b348015610c9d57600080fd5b5061046e60175481565b348015610cb357600080fd5b5061046e60145481565b348015610cc957600080fd5b5061046e601d5481565b348015610cdf57600080fd5b506104a1610cee366004613b23565b611cab565b348015610cff57600080fd5b506104a1610d0e366004613ad9565b611cf6565b348015610d1f57600080fd5b506104a1610d2e366004613978565b611d74565b348015610d3f57600080fd5b506104a1610d4e366004613a2f565b611dc0565b348015610d5f57600080fd5b5061046e610d6e3660046139b7565b6001600160a01b03918216600090815260036020908152604080832093909416825291909152205490565b348015610da557600080fd5b5061046e60125481565b348015610dbb57600080fd5b506104a1610dca366004613a5a565b611fd4565b348015610ddb57600080fd5b506104a1610dea366004613b23565b61207b565b348015610dfb57600080fd5b506104a1610e0a366004613a5a565b6120aa565b348015610e1b57600080fd5b506104a1610e2a366004613978565b612151565b348015610e3b57600080fd5b506104a161223b565b348015610e5057600080fd5b5061046e60225481565b348015610e6657600080fd5b5061046e60275481565b348015610e7c57600080fd5b506008546105259060ff1681565b6000546001600160a01b03163314610ebd5760405162461bcd60e51b8152600401610eb490613caa565b60405180910390fd5b60005b82811015610f3a578160046000868685818110610eed57634e487b7160e01b600052603260045260246000fd5b9050602002016020810190610f029190613978565b6001600160a01b031681526020810191909152604001600020805460ff1916911515919091179055610f3381613dc4565b9050610ec0565b50505050565b6000546001600160a01b03163314610f6a5760405162461bcd60e51b8152600401610eb490613caa565b601255601355565b6060600e8054610f8190613d89565b80601f0160208091040260200160405190810160405280929190818152602001828054610fad90613d89565b8015610ffa5780601f10610fcf57610100808354040283529160200191610ffa565b820191906000526020600020905b815481529060010190602001808311610fdd57829003601f168201915b5050505050905090565b6000546001600160a01b0316331461102e5760405162461bcd60e51b8152600401610eb490613caa565b6103e881600c5461103f9190613d53565b6110499190613d33565b60245550565b600061105c3384846122e6565b5060015b92915050565b6000546001600160a01b031633146110905760405162461bcd60e51b8152600401610eb490613caa565b60005b82811015610f3a5781600760008686858181106110c057634e487b7160e01b600052603260045260246000fd5b90506020020160208101906110d59190613978565b6001600160a01b031681526020810191909152604001600020805460ff191691151591909117905561110681613dc4565b9050611093565b6000546001600160a01b031633146111375760405162461bcd60e51b8152600401610eb490613caa565b601980546001600160a01b0319166001600160a01b0392909216919091179055565b6000546001600160a01b031633146111835760405162461bcd60e51b8152600401610eb490613caa565b6008805460ff1916911515919091179055565b6000546001600160a01b031633146111c05760405162461bcd60e51b8152600401610eb490613caa565b602455565b60008060006026546111d630611a56565b601654925092509250909192565b60006111f1848484612402565b6001600160a01b03841660009081526003602090815260408083203384529091529020548211156112755760405162461bcd60e51b815260206004820152602860248201527f45524332303a207472616e7366657220616d6f756e74206578636565647320616044820152676c6c6f77616e636560c01b6064820152608401610eb4565b6001600160a01b0384166000908152600360209081526040808320338085529252909120546112b09186916112ab908690613d72565b6122e6565b5060019392505050565b6000546001600160a01b031633146112e45760405162461bcd60e51b8152600401610eb490613caa565b6008805462ffff0019166101009315159390930262ff00001916929092176201000060ff9290921691909102179055565b6000600d5482111561137c5760405162461bcd60e51b815260206004820152602a60248201527f416d6f756e74206d757374206265206c657373207468616e20746f74616c207260448201526965666c656374696f6e7360b01b6064820152608401610eb4565b6000611386612bc3565b90506113928184613d33565b9150505b919050565b6000546001600160a01b031633146113c55760405162461bcd60e51b8152600401610eb490613caa565b6113d0838383612be6565b505050565b6000546001600160a01b031633146113ff5760405162461bcd60e51b8152600401610eb490613caa565b6001600160a01b03811660009081526005602052604090205460ff166114675760405162461bcd60e51b815260206004820152601b60248201527f4163636f756e7420697320616c726561647920696e636c7564656400000000006044820152606401610eb4565b60005b600a548110156115c157816001600160a01b0316600a828154811061149f57634e487b7160e01b600052603260045260246000fd5b6000918252602090912001546001600160a01b031614156115af57600a80546114ca90600190613d72565b815481106114e857634e487b7160e01b600052603260045260246000fd5b600091825260209091200154600a80546001600160a01b03909216918390811061152257634e487b7160e01b600052603260045260246000fd5b600091825260208083209190910180546001600160a01b0319166001600160a01b039485161790559184168152600282526040808220829055600590925220805460ff19169055600a80548061158857634e487b7160e01b600052603160045260246000fd5b600082815260209020810160001990810180546001600160a01b03191690550190556115c1565b806115b981613dc4565b91505061146a565b5050565b3360008181526003602090815260408083206001600160a01b0387168452909152812054909161105c9185906112ab908690613d1b565b3360008181526005602052604090205460ff16156116715760405162461bcd60e51b815260206004820152602c60248201527f4578636c75646564206164647265737365732063616e6e6f742063616c6c207460448201526b3434b990333ab731ba34b7b760a11b6064820152608401610eb4565b600061167e836000612c22565b5050506001600160a01b0388166000908152600160205260409020549596506116af958795509350613d7292505050565b6001600160a01b038316600090815260016020526040902055600d546116d6908290613d72565b600d556016546116e7908490613d1b565b601655505050565b6000546001600160a01b031633146117195760405162461bcd60e51b8152600401610eb490613caa565b60008286856117288589613d1b565b6117329190613d1b565b61173c9190613d1b565b6117469190613d1b565b9050610fa081106117b75760405162461bcd60e51b815260206004820152603560248201527f43616e6e6f74207365742066656573207468697320686967682c2070616e63616044820152746b6520737761702077696c6c20686174652075732160581b6064820152608401610eb4565b601a85905560178290556020849055601d86905560148390555b505050505050565b6000600c5483111561182d5760405162461bcd60e51b815260206004820152601f60248201527f416d6f756e74206d757374206265206c657373207468616e20737570706c79006044820152606401610eb4565b8161185157600061183f846000612c22565b50969850611060975050505050505050565b600061185e846000612c22565b50959850611060975050505050505050565b6000546001600160a01b0316331461189a5760405162461bcd60e51b8152600401610eb490613caa565b6001600160a01b03811660009081526005602052604090205460ff16156119035760405162461bcd60e51b815260206004820152601b60248201527f4163636f756e7420697320616c7265616479206578636c7564656400000000006044820152606401610eb4565b6001600160a01b0381166000908152600160205260409020541561195d576001600160a01b03811660009081526001602052604090205461194390611315565b6001600160a01b0382166000908152600260205260409020555b6001600160a01b03166000818152600560205260408120805460ff19166001908117909155600a805491820181559091527fc65a7bb8d6351c1cf70c95a316cc6a92839c986682d98bc35f958f4883f9d2a80180546001600160a01b0319169091179055565b6000546001600160a01b031633146119ed5760405162461bcd60e51b8152600401610eb490613caa565b602555565b6000806000806000806000806000600b60009054906101000a900460ff16602554602454600c54600d54611a24612bc3565b600854959f949e50929c50909a509850965060ff80831696506101008304811695506201000090920490911692509050565b6001600160a01b03811660009081526005602052604081205460ff1615611a9657506001600160a01b038116600090815260026020526040902054611396565b6001600160a01b03821660009081526001602052604090205461106090611315565b6000546001600160a01b03163314611ae25760405162461bcd60e51b8152600401610eb490613caa565b601f80546001600160a01b0319166001600160a01b0392909216919091179055565b6000546001600160a01b03163314611b2e5760405162461bcd60e51b8152600401610eb490613caa565b602655565b6060600f8054610f8190613d89565b3360009081526003602090815260408083206001600160a01b0386168452909152812054821115611bc35760405162461bcd60e51b815260206004820152602560248201527f45524332303a2064656372656173656420616c6c6f77616e63652062656c6f77604482015264207a65726f60d81b6064820152608401610eb4565b3360008181526003602090815260408083206001600160a01b038816845290915290205461105c919085906112ab908690613d72565b6000546001600160a01b03163314611c235760405162461bcd60e51b8152600401610eb490613caa565b601191909155601055565b600061105c338484612402565b6000546001600160a01b03163314611c655760405162461bcd60e51b8152600401610eb490613caa565b6000611c7030611a56565b90506025548110611c8d576001602554611c8a9190613d72565b90505b811580611c9957508082115b15611ca2578091505b6115c182612db1565b6000546001600160a01b03163314611cd55760405162461bcd60e51b8152600401610eb490613caa565b6103e881600c54611ce69190613d53565b611cf09190613d33565b60255550565b6000546001600160a01b03163314611d205760405162461bcd60e51b8152600401610eb490613caa565b602380548215156101000261ff00199091161790556040517f53726dfcaf90650aa7eb35524f4d3220f07413c8d6cb404cc8c18bf5591bc15990611d6990831515815260200190565b60405180910390a150565b6000546001600160a01b03163314611d9e5760405162461bcd60e51b8152600401610eb490613caa565b601c80546001600160a01b0319166001600160a01b0392909216919091179055565b6000546001600160a01b03163314611dea5760405162461bcd60e51b8152600401610eb490613caa565b6000546001600160a01b0316331480611e0b5750336001600160a01b038316145b611e505760405162461bcd60e51b81526020600482015260166024820152752737ba1030baba3437b934bd32b2103a3790313ab93760511b6044820152606401610eb4565b6000611e5a612bc3565b611e649083613d53565b6001600160a01b038416600090815260016020526040902054909150611e8b908290613d72565b6001600160a01b03841660009081526001602090815260408083209390935560059052205460ff1615611ef6576001600160a01b038316600090815260026020526040902054611edc908390613d72565b6001600160a01b0384166000908152600260205260409020555b6029546001600160a01b031660009081526005602052604090205460ff1615611f5b576029546001600160a01b0316600090815260026020526040902054611f3f908390613d1b565b6029546001600160a01b03166000908152600260205260409020555b6029546001600160a01b0316600090815260016020526040902054611f81908290613d1b565b602980546001600160a01b0390811660009081526001602090815260409182902094909455915491518581529181169290861691600080516020613e0b83398151915291015b60405180910390a3505050565b6000546001600160a01b03163314611ffe5760405162461bcd60e51b8152600401610eb490613caa565b60005b82811015610f3a57816006600086868581811061202e57634e487b7160e01b600052603260045260246000fd5b90506020020160208101906120439190613978565b6001600160a01b031681526020810191909152604001600020805460ff191691151591909117905561207481613dc4565b9050612001565b6000546001600160a01b031633146120a55760405162461bcd60e51b8152600401610eb490613caa565b602755565b6000546001600160a01b031633146120d45760405162461bcd60e51b8152600401610eb490613caa565b60005b82811015610f3a57816004600086868581811061210457634e487b7160e01b600052603260045260246000fd5b90506020020160208101906121199190613978565b6001600160a01b031681526020810191909152604001600020805460ff191691151591909117905561214a81613dc4565b90506120d7565b6000546001600160a01b0316331461217b5760405162461bcd60e51b8152600401610eb490613caa565b6001600160a01b0381166121e05760405162461bcd60e51b815260206004820152602660248201527f4f776e61626c653a206e6577206f776e657220697320746865207a65726f206160448201526564647265737360d01b6064820152608401610eb4565b600080546040516001600160a01b03808516939216917f8be0079c531659141344cd1fd0a4f28419497f9722a3daafe3b4186f6b6457e091a3600080546001600160a01b0319166001600160a01b0392909216919091179055565b6000546001600160a01b031633148061225e57506019546001600160a01b031633145b6122aa5760405162461bcd60e51b815260206004820152601e60248201527f4e6f7420617574686f72697a656420746f20706572666f726d207468697300006044820152606401610eb4565b6019546040516001600160a01b03909116904780156108fc02916000818181858888f193505050501580156122e3573d6000803e3d6000fd5b50565b6001600160a01b0383166123485760405162461bcd60e51b8152602060048201526024808201527f45524332303a20617070726f76652066726f6d20746865207a65726f206164646044820152637265737360e01b6064820152608401610eb4565b6001600160a01b0382166123a95760405162461bcd60e51b815260206004820152602260248201527f45524332303a20617070726f766520746f20746865207a65726f206164647265604482015261737360f01b6064820152608401610eb4565b6001600160a01b0383811660008181526003602090815260408083209487168084529482529182902085905590518481527f8c5be1e5ebec7d5bd14f71427d1e84f3dd0314c0f7b2291e5b200ac8c7c3b9259101611fc7565b6001600160a01b03831660009081526006602052604090205460ff1615801561244457506001600160a01b03821660009081526006602052604090205460ff16155b6124905760405162461bcd60e51b815260206004820152601b60248201527f54686973206164647265737320697320626c61636b6c697374656400000000006044820152606401610eb4565b6001600160a01b0383166124f45760405162461bcd60e51b815260206004820152602560248201527f45524332303a207472616e736665722066726f6d20746865207a65726f206164604482015264647265737360d81b6064820152608401610eb4565b6001600160a01b0382166125565760405162461bcd60e51b815260206004820152602360248201527f45524332303a207472616e7366657220746f20746865207a65726f206164647260448201526265737360e81b6064820152608401610eb4565b6000546001600160a01b0383811691161480159061257d57506001600160a01b0382163014155b801561259757506029546001600160a01b03838116911614155b80156125d557507f00000000000000000000000000000000000000000000000000000000000000006001600160a01b0316826001600160a01b031614155b80156125ef57506019546001600160a01b03838116911614155b80156126095750601f546001600160a01b03838116911614155b1561269f57600061261983611a56565b6024549091506126298383613d1b565b111561269d5760405162461bcd60e51b815260206004820152603e60248201527f546f74616c20486f6c64696e672069732063757272656e746c79206c696d697460448201527f65642c20796f752063616e206e6f74206275792074686174206d7563682e00006064820152608401610eb4565b505b6000546001600160a01b038481169116148015906126cb57506000546001600160a01b03838116911614155b80156126f057506001600160a01b03831660009081526007602052604090205460ff16155b801561271557506001600160a01b03821660009081526007602052604090205460ff16155b156127635760085460ff166127635760405162461bcd60e51b8152602060048201526014602482015273151c98591a5b99c81b9bdd081bdc195b881e595d60621b6044820152606401610eb4565b7f00000000000000000000000000000000000000000000000000000000000000006001600160a01b0316836001600160a01b03161480156127ab5750600854610100900460ff165b80156127d057506001600160a01b03821660009081526004602052604090205460ff16155b80156127e557506001600160a01b0382163014155b80156127ff57506029546001600160a01b03838116911614155b156128a9576001600160a01b03821660009081526009602052604090205442116128795760405162461bcd60e51b815260206004820152602560248201527f506c65617365207761697420666f7220636f6f6c646f776e206265747765656e604482015264206275797360d81b6064820152608401610eb4565b60085461288f9062010000900460ff1642613d1b565b6001600160a01b0383166000908152600960205260409020555b6000546001600160a01b038481169116148015906128d557506000546001600160a01b03838116911614155b80156128fa57506001600160a01b03831660009081526007602052604090205460ff16155b801561291f57506001600160a01b03821660009081526007602052604090205460ff16155b15612987576025548111156129875760405162461bcd60e51b815260206004820152602860248201527f5472616e7366657220616d6f756e74206578636565647320746865206d6178546044820152673c20b6b7bab73a1760c11b6064820152608401610eb4565b600061299230611a56565b905060255481106129af5760016025546129ac9190613d72565b90505b602654811080159081906129c6575060235460ff16155b8015612a0457507f00000000000000000000000000000000000000000000000000000000000000006001600160a01b0316856001600160a01b031614155b8015612a175750602354610100900460ff165b15612a2a576026549150612a2a82612db1565b60235460ff16158015612a6f57507f00000000000000000000000000000000000000000000000000000000000000006001600160a01b0316856001600160a01b031614155b15612aae57601054601f54601254612a9192916001600160a01b031690612be6565b601154601954601354612aae92916001600160a01b031690612be6565b50506001600160a01b03831660009081526004602052604090205460019060ff1680612af257506001600160a01b03831660009081526004602052604090205460ff165b15612afb575060005b80612b0857612b08612e40565b6000806000806000806000806000612b548b7f00000000000000000000000000000000000000000000000000000000000000006001600160a01b03168e6001600160a01b031614612c22565b985098509850985098509850985098509850612b748d8d8d8c8a8d612e80565b612b7e878261303c565b89612b9057612b8b613062565b612bb4565b612b998561308b565b612ba2846130a2565b612bab836130b9565b612bb4826130c3565b50505050505050505050505050565b6000806000612bd06130da565b9092509050612bdf8183613d33565b9250505090565b82612bf0576113d0565b602554831115612c005760255492505b612c0982611a56565b612c138285613d1b565b116113d0576113d08284613298565b6000806000806000806000806000808a612c3d576064612c41565b6027545b9050602254601a548d612c549190613d53565b612c5e9190613d33565b95506022546064612c6f9190613d53565b816017548e612c7e9190613d53565b612c889190613d53565b612c929190613d33565b94506022546064612ca39190613d53565b816020548e612cb29190613d53565b612cbc9190613d53565b612cc69190613d33565b93506022546064612cd79190613d53565b81601d548e612ce69190613d53565b612cf09190613d53565b612cfa9190613d33565b92506022546064612d0b9190613d53565b816014548e612d1a9190613d53565b612d249190613d53565b612d2e9190613d33565b9150818385612d3d888a613d1b565b612d479190613d1b565b612d519190613d1b565b612d5b9190613d1b565b612d65908d613d72565b9650612d6f612bc3565b612d799083613d53565b9750612d83612bc3565b612d8d908d613d53565b9950612d97612bc3565b612da19088613d53565b9850509295985092959850929598565b6023805460ff191660011790556000612dcb600283613d33565b905047612dd7826133c6565b6000612de38247613d72565b9050612def83826135a9565b60408051858152602081018590529081018290527f17bbfb9a6069321b6ded73bd96327c9e6b7212a5cd51ff219cd61370acafb5619060600160405180910390a150506023805460ff191690555050565b601a54601b55601754601855602054602155601d54601e55601454601555612e7e600080808080601a94909455601792909255602055601d55601455565b565b6001600160a01b038616600090815260016020526040902054612ea4908490613d72565b6001600160a01b03871660009081526001602090815260408083209390935560059052205460ff1615612f0f576001600160a01b038616600090815260026020526040902054612ef5908590613d72565b6001600160a01b0387166000908152600260205260409020555b6001600160a01b03851660009081526005602052604090205460ff1615612f6e576001600160a01b038516600090815260026020526040902054612f54908390613d1b565b6001600160a01b0386166000908152600260205260409020555b6001600160a01b038516600090815260016020526040902054612f92908290613d1b565b6001600160a01b038087166000818152600160205260409081902093909355915190881690600080516020613e0b83398151915290612fd49086815260200190565b60405180910390a36040805185815260208101859052908101839052606081018290526001600160a01b0380871691908816907fa44e2ebd30e6f04fbf0ee4935cc0558c3b926d578067dc2940e6880750cb84789060800160405180910390a3505050505050565b81600d5461304a9190613d72565b600d5560165461305b908290613d1b565b6016555050565b612e7e601b54601854602154601e54601554601a94909455601792909255602055601d55601455565b601c546122e39082906001600160a01b03166136ab565b6019546122e39082906001600160a01b03166136ab565b6122e381306136ab565b601f546122e39082906001600160a01b03166136ab565b600d54600c546000918291825b600a54811015613265578260016000600a848154811061311757634e487b7160e01b600052603260045260246000fd5b60009182526020808320909101546001600160a01b03168352820192909252604001902054118061319057508160026000600a848154811061316957634e487b7160e01b600052603260045260246000fd5b60009182526020808320909101546001600160a01b03168352820192909252604001902054115b156131a757600d54600c5494509450505050613294565b60016000600a83815481106131cc57634e487b7160e01b600052603260045260246000fd5b60009182526020808320909101546001600160a01b031683528201929092526040019020546131fb9084613d72565b925060026000600a838154811061322257634e487b7160e01b600052603260045260246000fd5b60009182526020808320909101546001600160a01b031683528201929092526040019020546132519083613d72565b91508061325d81613dc4565b9150506130e7565b50600c54600d546132769190613d33565b82101561328e57600d54600c54935093505050613294565b90925090505b9091565b6023805460ff1916600117905560006132af612bc3565b6132b99083613d53565b6001600160a01b0384166000908152600160205260409020549091506132e0908290613d72565b6001600160a01b03841660009081526001602090815260408083209390935560059052205460ff161561334b576001600160a01b038316600090815260026020526040902054613331908390613d72565b6001600160a01b0384166000908152600260205260409020555b30600090815260016020526040902054613366908290613d1b565b30600081815260016020526040908190209290925590516001600160a01b03851690600080516020613e0b833981519152906133a59086815260200190565b60405180910390a36133b7828461377c565b50506023805460ff1916905550565b604080516002808252606082018352600092602083019080368337019050509050308160008151811061340957634e487b7160e01b600052603260045260246000fd5b60200260200101906001600160a01b031690816001600160a01b0316815250507f00000000000000000000000000000000000000000000000000000000000000006001600160a01b031663ad5c46486040518163ffffffff1660e01b815260040160206040518083038186803b15801561348257600080fd5b505afa158015613496573d6000803e3d6000fd5b505050506040513d601f19601f820116820180604052508101906134ba919061399b565b816001815181106134db57634e487b7160e01b600052603260045260246000fd5b60200260200101906001600160a01b031690816001600160a01b031681525050613526307f0000000000000000000000000000000000000000000000000000000000000000846122e6565b60405163791ac94760e01b81526001600160a01b037f0000000000000000000000000000000000000000000000000000000000000000169063791ac9479061357b908590600090869030904290600401613cdf565b600060405180830381600087803b15801561359557600080fd5b505af11580156117d1573d6000803e3d6000fd5b6135d4307f0000000000000000000000000000000000000000000000000000000000000000846122e6565b60405163f305d71960e01b81523060048201526024810183905260006044820181905260648201527338febbbd7b96e459692c9b9fe8f8cf62653277c860848201524260a48201527f00000000000000000000000000000000000000000000000000000000000000006001600160a01b03169063f305d71990839060c4016060604051808303818588803b15801561366b57600080fd5b505af115801561367f573d6000803e3d6000fd5b50505050506040513d601f19601f820116820180604052508101906136a49190613bad565b5050505050565b60006136b5612bc3565b6136bf9084613d53565b6001600160a01b0383166000908152600160205260409020549091506136e6908290613d1b565b6001600160a01b03831660009081526001602090815260408083209390935560059052205460ff1615613751576001600160a01b038216600090815260026020526040902054613737908490613d1b565b6001600160a01b0383166000908152600260205260409020555b6040518381526001600160a01b038316903390600080516020613e0b83398151915290602001611fc7565b60408051600280825260608201835260009260208301908036833701905050905030816000815181106137bf57634e487b7160e01b600052603260045260246000fd5b60200260200101906001600160a01b031690816001600160a01b0316815250507f00000000000000000000000000000000000000000000000000000000000000006001600160a01b031663ad5c46486040518163ffffffff1660e01b815260040160206040518083038186803b15801561383857600080fd5b505afa15801561384c573d6000803e3d6000fd5b505050506040513d601f19601f82011682018060405250810190613870919061399b565b8160018151811061389157634e487b7160e01b600052603260045260246000fd5b60200260200101906001600160a01b031690816001600160a01b0316815250506138dc307f0000000000000000000000000000000000000000000000000000000000000000856122e6565b60405163791ac94760e01b81526001600160a01b037f0000000000000000000000000000000000000000000000000000000000000000169063791ac94790613931908690600090869088904290600401613cdf565b600060405180830381600087803b15801561394b57600080fd5b505af115801561395f573d6000803e3d6000fd5b50505050505050565b8035801515811461139657600080fd5b600060208284031215613989578081fd5b813561399481613df5565b9392505050565b6000602082840312156139ac578081fd5b815161399481613df5565b600080604083850312156139c9578081fd5b82356139d481613df5565b915060208301356139e481613df5565b809150509250929050565b600080600060608486031215613a03578081fd5b8335613a0e81613df5565b92506020840135613a1e81613df5565b929592945050506040919091013590565b60008060408385031215613a41578182fd5b8235613a4c81613df5565b946020939093013593505050565b600080600060408486031215613a6e578283fd5b833567ffffffffffffffff80821115613a85578485fd5b818601915086601f830112613a98578485fd5b813581811115613aa6578586fd5b8760208260051b8501011115613aba578586fd5b602092830195509350613ad09186019050613968565b90509250925092565b600060208284031215613aea578081fd5b61399482613968565b60008060408385031215613b05578182fd5b613b0e83613968565b9150602083013560ff811681146139e4578182fd5b600060208284031215613b34578081fd5b5035919050565b600080600060608486031215613b4f578283fd5b833592506020840135613a1e81613df5565b60008060408385031215613b73578182fd5b82359150613b8360208401613968565b90509250929050565b60008060408385031215613b9e578182fd5b50508035926020909101359150565b600080600060608486031215613bc1578283fd5b8351925060208401519150604084015190509250925092565b600080600080600060a08688031215613bf1578081fd5b505083359560208501359550604085013594606081013594506080013592509050565b6000815180845260208085019450808401835b83811015613c4c5781516001600160a01b031687529582019590820190600101613c27565b509495945050505050565b6000602080835283518082850152825b81811015613c8357858101830151858201604001528201613c67565b81811115613c945783604083870101525b50601f01601f1916929092016040019392505050565b6020808252818101527f4f776e61626c653a2063616c6c6572206973206e6f7420746865206f776e6572604082015260600190565b600086825285602083015260a06040830152613cfe60a0830186613c14565b6001600160a01b0394909416606083015250608001529392505050565b60008219821115613d2e57613d2e613ddf565b500190565b600082613d4e57634e487b7160e01b81526012600452602481fd5b500490565b6000816000190483118215151615613d6d57613d6d613ddf565b500290565b600082821015613d8457613d84613ddf565b500390565b600181811c90821680613d9d57607f821691505b60208210811415613dbe57634e487b7160e01b600052602260045260246000fd5b50919050565b6000600019821415613dd857613dd8613ddf565b5060010190565b634e487b7160e01b600052601160045260246000fd5b6001600160a01b03811681146122e357600080fdfeddf252ad1be2c89b69c2b068fc378daa952ba7f163c4a11628f55a4df523b3efa2646970667358221220c44444de32dd8bd9aa8a04cb8a692df59b9c31dce033c22c993769f23a999cc864736f6c63430008030033",
          "opcodes": "PUSH1 0xC0 PUSH1 0x40 MSTORE PUSH1 0x8 DUP1 SLOAD PUSH3 0xFFFFFF NOT AND PUSH3 0x3C0100 OR SWAP1 SSTORE PUSH1 0xB DUP1 SLOAD PUSH1 0xC PUSH1 0xFF NOT SWAP1 SWAP2 AND DUP2 OR SWAP1 SWAP2 SSTORE PUSH3 0x33 SWAP1 PUSH1 0xA PUSH3 0x6A3 JUMP JUMPDEST PUSH3 0x44 SWAP1 PUSH5 0xE8D4A51000 PUSH3 0x78E JUMP JUMPDEST PUSH1 0xC DUP2 SWAP1 SSTORE PUSH3 0x57 SWAP1 PUSH1 0x0 NOT PUSH3 0x807 JUMP JUMPDEST PUSH3 0x65 SWAP1 PUSH1 0x0 NOT PUSH3 0x7B0 JUMP JUMPDEST PUSH1 0xD SSTORE PUSH1 0x40 DUP1 MLOAD DUP1 DUP3 ADD SWAP1 SWAP2 MSTORE PUSH1 0x6 DUP1 DUP3 MSTORE PUSH6 0x125395915395 PUSH1 0xD2 SHL PUSH1 0x20 SWAP1 SWAP3 ADD SWAP2 DUP3 MSTORE PUSH3 0x97 SWAP2 PUSH1 0xE SWAP2 PUSH3 0x569 JUMP JUMPDEST POP PUSH1 0x40 DUP1 MLOAD DUP1 DUP3 ADD SWAP1 SWAP2 MSTORE PUSH1 0x3 DUP1 DUP3 MSTORE PUSH3 0x24A72B PUSH1 0xE9 SHL PUSH1 0x20 SWAP1 SWAP3 ADD SWAP2 DUP3 MSTORE PUSH3 0xC4 SWAP2 PUSH1 0xF SWAP2 PUSH3 0x569 JUMP JUMPDEST POP PUSH2 0x2710 PUSH1 0xC SLOAD PUSH1 0x1 PUSH3 0xD9 SWAP2 SWAP1 PUSH3 0x78E JUMP JUMPDEST PUSH3 0xE5 SWAP2 SWAP1 PUSH3 0x63F JUMP JUMPDEST PUSH1 0x10 SSTORE PUSH2 0x2710 PUSH1 0xC SLOAD PUSH1 0x1 PUSH3 0xFC SWAP2 SWAP1 PUSH3 0x78E JUMP JUMPDEST PUSH3 0x108 SWAP2 SWAP1 PUSH3 0x63F JUMP JUMPDEST PUSH1 0x11 SSTORE PUSH1 0x0 PUSH1 0x12 SSTORE PUSH1 0x64 PUSH1 0xC SLOAD PUSH1 0x1 PUSH3 0x123 SWAP2 SWAP1 PUSH3 0x78E JUMP JUMPDEST PUSH3 0x12F SWAP2 SWAP1 PUSH3 0x63F JUMP JUMPDEST PUSH1 0x13 SSTORE PUSH1 0x0 PUSH1 0x14 DUP2 SWAP1 SSTORE PUSH1 0x15 DUP2 SWAP1 SSTORE PUSH1 0x16 DUP2 SWAP1 SSTORE PUSH1 0x17 DUP2 SWAP1 SSTORE PUSH1 0x18 DUP2 SWAP1 SSTORE PUSH1 0x19 DUP1 SLOAD PUSH1 0x1 PUSH1 0x1 PUSH1 0xA0 SHL SUB NOT SWAP1 DUP2 AND PUSH20 0x38FEBBBD7B96E459692C9B9FE8F8CF62653277C8 OR SWAP1 SWAP2 SSTORE PUSH1 0x1A DUP3 SWAP1 SSTORE PUSH1 0x1B DUP3 SWAP1 SSTORE PUSH1 0x1C DUP1 SLOAD DUP3 AND PUSH2 0xDEAD OR SWAP1 SSTORE PUSH1 0x1D DUP3 SWAP1 SSTORE PUSH1 0x1E DUP3 SWAP1 SSTORE PUSH1 0x1F DUP1 SLOAD SWAP1 SWAP2 AND PUSH20 0x356F3878B2AEC668CEF66F0A988F8E5BD264199D OR SWAP1 SSTORE PUSH1 0x20 DUP2 SWAP1 SSTORE PUSH1 0x21 SSTORE PUSH2 0x2710 PUSH1 0x22 SSTORE PUSH1 0x23 DUP1 SLOAD PUSH2 0xFF00 NOT AND PUSH2 0x100 OR SWAP1 SSTORE PUSH1 0xC SLOAD PUSH1 0x24 DUP2 SWAP1 SSTORE PUSH1 0x25 DUP2 SWAP1 SSTORE PUSH2 0x3E8 SWAP1 PUSH3 0x1F0 SWAP1 PUSH1 0x2 PUSH3 0x78E JUMP JUMPDEST PUSH3 0x1FC SWAP2 SWAP1 PUSH3 0x63F JUMP JUMPDEST PUSH1 0x26 SSTORE PUSH1 0xC8 PUSH1 0x27 SSTORE PUSH1 0x28 DUP1 SLOAD PUSH1 0x1 PUSH1 0x1 PUSH1 0xA0 SHL SUB NOT SWAP1 DUP2 AND PUSH20 0x10ED43C718714EB63D5AA57B78B54704E256024E OR SWAP1 SWAP2 SSTORE PUSH1 0x29 DUP1 SLOAD SWAP1 SWAP2 AND PUSH2 0xDEAD OR SWAP1 SSTORE CALLVALUE DUP1 ISZERO PUSH3 0x247 JUMPI PUSH1 0x0 DUP1 REVERT JUMPDEST POP PUSH1 0x0 DUP1 SLOAD PUSH1 0x1 PUSH1 0x1 PUSH1 0xA0 SHL SUB NOT AND CALLER SWAP1 DUP2 OR DUP3 SSTORE PUSH1 0x40 MLOAD SWAP1 SWAP2 SWAP1 PUSH32 0x8BE0079C531659141344CD1FD0A4F28419497F9722A3DAAFE3B4186F6B6457E0 SWAP1 DUP3 SWAP1 LOG3 PUSH1 0xD SLOAD PUSH1 0x1 PUSH1 0x0 PUSH3 0x2A1 PUSH1 0x0 SLOAD PUSH1 0x1 PUSH1 0x1 PUSH1 0xA0 SHL SUB AND SWAP1 JUMP JUMPDEST PUSH1 0x1 PUSH1 0x1 PUSH1 0xA0 SHL SUB SWAP1 DUP2 AND DUP3 MSTORE PUSH1 0x20 DUP1 DUP4 ADD SWAP4 SWAP1 SWAP4 MSTORE PUSH1 0x40 SWAP2 DUP3 ADD PUSH1 0x0 KECCAK256 SWAP4 SWAP1 SWAP4 SSTORE PUSH1 0x28 SLOAD DUP2 MLOAD PUSH4 0xC45A0155 PUSH1 0xE0 SHL DUP2 MSTORE SWAP2 MLOAD SWAP4 AND SWAP3 DUP4 SWAP3 PUSH4 0xC45A0155 SWAP3 PUSH1 0x4 DUP1 DUP3 ADD SWAP4 SWAP2 DUP3 SWAP1 SUB ADD DUP2 DUP7 DUP1 EXTCODESIZE ISZERO DUP1 ISZERO PUSH3 0x2FB JUMPI PUSH1 0x0 DUP1 REVERT JUMPDEST POP GAS STATICCALL ISZERO DUP1 ISZERO PUSH3 0x310 JUMPI RETURNDATASIZE PUSH1 0x0 DUP1 RETURNDATACOPY RETURNDATASIZE PUSH1 0x0 REVERT JUMPDEST POP POP POP POP PUSH1 0x40 MLOAD RETURNDATASIZE PUSH1 0x1F NOT PUSH1 0x1F DUP3 ADD AND DUP3 ADD DUP1 PUSH1 0x40 MSTORE POP DUP2 ADD SWAP1 PUSH3 0x336 SWAP2 SWAP1 PUSH3 0x60F JUMP JUMPDEST PUSH1 0x1 PUSH1 0x1 PUSH1 0xA0 SHL SUB AND PUSH4 0xC9C65396 ADDRESS DUP4 PUSH1 0x1 PUSH1 0x1 PUSH1 0xA0 SHL SUB AND PUSH4 0xAD5C4648 PUSH1 0x40 MLOAD DUP2 PUSH4 0xFFFFFFFF AND PUSH1 0xE0 SHL DUP2 MSTORE PUSH1 0x4 ADD PUSH1 0x20 PUSH1 0x40 MLOAD DUP1 DUP4 SUB DUP2 DUP7 DUP1 EXTCODESIZE ISZERO DUP1 ISZERO PUSH3 0x37F JUMPI PUSH1 0x0 DUP1 REVERT JUMPDEST POP GAS STATICCALL ISZERO DUP1 ISZERO PUSH3 0x394 JUMPI RETURNDATASIZE PUSH1 0x0 DUP1 RETURNDATACOPY RETURNDATASIZE PUSH1 0x0 REVERT JUMPDEST POP POP POP POP PUSH1 0x40 MLOAD RETURNDATASIZE PUSH1 0x1F NOT PUSH1 0x1F DUP3 ADD AND DUP3 ADD DUP1 PUSH1 0x40 MSTORE POP DUP2 ADD SWAP1 PUSH3 0x3BA SWAP2 SWAP1 PUSH3 0x60F JUMP JUMPDEST PUSH1 0x40 MLOAD PUSH1 0x1 PUSH1 0x1 PUSH1 0xE0 SHL SUB NOT PUSH1 0xE0 DUP6 SWAP1 SHL AND DUP2 MSTORE PUSH1 0x1 PUSH1 0x1 PUSH1 0xA0 SHL SUB SWAP3 DUP4 AND PUSH1 0x4 DUP3 ADD MSTORE SWAP2 AND PUSH1 0x24 DUP3 ADD MSTORE PUSH1 0x44 ADD PUSH1 0x20 PUSH1 0x40 MLOAD DUP1 DUP4 SUB DUP2 PUSH1 0x0 DUP8 DUP1 EXTCODESIZE ISZERO DUP1 ISZERO PUSH3 0x403 JUMPI PUSH1 0x0 DUP1 REVERT JUMPDEST POP GAS CALL ISZERO DUP1 ISZERO PUSH3 0x418 JUMPI RETURNDATASIZE PUSH1 0x0 DUP1 RETURNDATACOPY RETURNDATASIZE PUSH1 0x0 REVERT JUMPDEST POP POP POP POP PUSH1 0x40 MLOAD RETURNDATASIZE PUSH1 0x1F NOT PUSH1 0x1F DUP3 ADD AND DUP3 ADD DUP1 PUSH1 0x40 MSTORE POP DUP2 ADD SWAP1 PUSH3 0x43E SWAP2 SWAP1 PUSH3 0x60F JUMP JUMPDEST PUSH1 0x1 PUSH1 0x1 PUSH1 0x60 SHL SUB NOT PUSH1 0x60 SWAP2 DUP3 SHL DUP2 AND PUSH1 0xA0 MSTORE SWAP1 DUP3 SWAP1 SHL AND PUSH1 0x80 MSTORE PUSH1 0x1 PUSH1 0x4 PUSH1 0x0 PUSH3 0x472 PUSH1 0x0 SLOAD PUSH1 0x1 PUSH1 0x1 PUSH1 0xA0 SHL SUB AND SWAP1 JUMP JUMPDEST PUSH1 0x1 PUSH1 0x1 PUSH1 0xA0 SHL SUB SWAP1 DUP2 AND DUP3 MSTORE PUSH1 0x20 DUP1 DUP4 ADD SWAP4 SWAP1 SWAP4 MSTORE PUSH1 0x40 SWAP2 DUP3 ADD PUSH1 0x0 SWAP1 DUP2 KECCAK256 DUP1 SLOAD SWAP6 ISZERO ISZERO PUSH1 0xFF NOT SWAP7 DUP8 AND OR SWAP1 SSTORE ADDRESS DUP2 MSTORE PUSH1 0x4 SWAP1 SWAP4 MSTORE DUP2 DUP4 KECCAK256 DUP1 SLOAD DUP6 AND PUSH1 0x1 SWAP1 DUP2 OR SWAP1 SWAP2 SSTORE PUSH1 0x29 SLOAD DUP3 AND DUP5 MSTORE DUP3 DUP5 KECCAK256 DUP1 SLOAD DUP7 AND DUP3 OR SWAP1 SSTORE PUSH1 0x19 SLOAD DUP3 AND DUP5 MSTORE DUP3 DUP5 KECCAK256 DUP1 SLOAD DUP7 AND DUP3 OR SWAP1 SSTORE PUSH1 0x1C SLOAD DUP3 AND DUP5 MSTORE DUP3 DUP5 KECCAK256 DUP1 SLOAD DUP7 AND DUP3 OR SWAP1 SSTORE PUSH1 0x1F SLOAD SWAP1 SWAP2 AND DUP4 MSTORE SWAP2 KECCAK256 DUP1 SLOAD SWAP1 SWAP3 AND OR SWAP1 SSTORE PUSH3 0x512 PUSH1 0x0 SLOAD PUSH1 0x1 PUSH1 0x1 PUSH1 0xA0 SHL SUB AND SWAP1 JUMP JUMPDEST PUSH1 0x1 PUSH1 0x1 PUSH1 0xA0 SHL SUB AND PUSH1 0x0 PUSH1 0x1 PUSH1 0x1 PUSH1 0xA0 SHL SUB AND PUSH32 0xDDF252AD1BE2C89B69C2B068FC378DAA952BA7F163C4A11628F55A4DF523B3EF PUSH1 0xC SLOAD PUSH1 0x40 MLOAD PUSH3 0x55A SWAP2 DUP2 MSTORE PUSH1 0x20 ADD SWAP1 JUMP JUMPDEST PUSH1 0x40 MLOAD DUP1 SWAP2 SUB SWAP1 LOG3 POP PUSH3 0x84A JUMP JUMPDEST DUP3 DUP1 SLOAD PUSH3 0x577 SWAP1 PUSH3 0x7CA JUMP JUMPDEST SWAP1 PUSH1 0x0 MSTORE PUSH1 0x20 PUSH1 0x0 KECCAK256 SWAP1 PUSH1 0x1F ADD PUSH1 0x20 SWAP1 DIV DUP2 ADD SWAP3 DUP3 PUSH3 0x59B JUMPI PUSH1 0x0 DUP6 SSTORE PUSH3 0x5E6 JUMP JUMPDEST DUP3 PUSH1 0x1F LT PUSH3 0x5B6 JUMPI DUP1 MLOAD PUSH1 0xFF NOT AND DUP4 DUP1 ADD OR DUP6 SSTORE PUSH3 0x5E6 JUMP JUMPDEST DUP3 DUP1 ADD PUSH1 0x1 ADD DUP6 SSTORE DUP3 ISZERO PUSH3 0x5E6 JUMPI SWAP2 DUP3 ADD JUMPDEST DUP3 DUP2 GT ISZERO PUSH3 0x5E6 JUMPI DUP3 MLOAD DUP3 SSTORE SWAP2 PUSH1 0x20 ADD SWAP2 SWAP1 PUSH1 0x1 ADD SWAP1 PUSH3 0x5C9 JUMP JUMPDEST POP PUSH3 0x5F4 SWAP3 SWAP2 POP PUSH3 0x5F8 JUMP JUMPDEST POP SWAP1 JUMP JUMPDEST JUMPDEST DUP1 DUP3 GT ISZERO PUSH3 0x5F4 JUMPI PUSH1 0x0 DUP2 SSTORE PUSH1 0x1 ADD PUSH3 0x5F9 JUMP JUMPDEST PUSH1 0x0 PUSH1 0x20 DUP3 DUP5 SUB SLT ISZERO PUSH3 0x621 JUMPI DUP1 DUP2 REVERT JUMPDEST DUP2 MLOAD PUSH1 0x1 PUSH1 0x1 PUSH1 0xA0 SHL SUB DUP2 AND DUP2 EQ PUSH3 0x638 JUMPI DUP2 DUP3 REVERT JUMPDEST SWAP4 SWAP3 POP POP POP JUMP JUMPDEST PUSH1 0x0 DUP3 PUSH3 0x651 JUMPI PUSH3 0x651 PUSH3 0x834 JUMP JUMPDEST POP DIV SWAP1 JUMP JUMPDEST DUP1 DUP3 JUMPDEST PUSH1 0x1 DUP1 DUP7 GT PUSH3 0x66A JUMPI POP PUSH3 0x69A JUMP JUMPDEST DUP2 DUP8 DIV DUP3 GT ISZERO PUSH3 0x67F JUMPI PUSH3 0x67F PUSH3 0x81E JUMP JUMPDEST DUP1 DUP7 AND ISZERO PUSH3 0x68D JUMPI SWAP2 DUP2 MUL SWAP2 JUMPDEST SWAP5 SWAP1 SWAP5 SHR SWAP4 DUP1 MUL PUSH3 0x659 JUMP JUMPDEST SWAP5 POP SWAP5 SWAP3 POP POP POP JUMP JUMPDEST PUSH1 0x0 PUSH3 0x638 PUSH1 0x0 NOT PUSH1 0xFF DUP6 AND DUP5 PUSH1 0x0 DUP3 PUSH3 0x6C2 JUMPI POP PUSH1 0x1 PUSH3 0x638 JUMP JUMPDEST DUP2 PUSH3 0x6D1 JUMPI POP PUSH1 0x0 PUSH3 0x638 JUMP JUMPDEST DUP2 PUSH1 0x1 DUP2 EQ PUSH3 0x6EA JUMPI PUSH1 0x2 DUP2 EQ PUSH3 0x6F5 JUMPI PUSH3 0x729 JUMP JUMPDEST PUSH1 0x1 SWAP2 POP POP PUSH3 0x638 JUMP JUMPDEST PUSH1 0xFF DUP5 GT ISZERO PUSH3 0x709 JUMPI PUSH3 0x709 PUSH3 0x81E JUMP JUMPDEST PUSH1 0x1 DUP5 SHL SWAP2 POP DUP5 DUP3 GT ISZERO PUSH3 0x722 JUMPI PUSH3 0x722 PUSH3 0x81E JUMP JUMPDEST POP PUSH3 0x638 JUMP JUMPDEST POP PUSH1 0x20 DUP4 LT PUSH2 0x133 DUP4 LT AND PUSH1 0x4E DUP5 LT PUSH1 0xB DUP5 LT AND OR ISZERO PUSH3 0x761 JUMPI POP DUP2 DUP2 EXP DUP4 DUP2 GT ISZERO PUSH3 0x75B JUMPI PUSH3 0x75B PUSH3 0x81E JUMP JUMPDEST PUSH3 0x638 JUMP JUMPDEST PUSH3 0x770 DUP5 DUP5 DUP5 PUSH1 0x1 PUSH3 0x656 JUMP JUMPDEST DUP1 DUP7 DIV DUP3 GT ISZERO PUSH3 0x785 JUMPI PUSH3 0x785 PUSH3 0x81E JUMP JUMPDEST MUL SWAP5 SWAP4 POP POP POP POP JUMP JUMPDEST PUSH1 0x0 DUP2 PUSH1 0x0 NOT DIV DUP4 GT DUP3 ISZERO ISZERO AND ISZERO PUSH3 0x7AB JUMPI PUSH3 0x7AB PUSH3 0x81E JUMP JUMPDEST POP MUL SWAP1 JUMP JUMPDEST PUSH1 0x0 DUP3 DUP3 LT ISZERO PUSH3 0x7C5 JUMPI PUSH3 0x7C5 PUSH3 0x81E JUMP JUMPDEST POP SUB SWAP1 JUMP JUMPDEST PUSH1 0x1 DUP2 DUP2 SHR SWAP1 DUP3 AND DUP1 PUSH3 0x7DF JUMPI PUSH1 0x7F DUP3 AND SWAP2 POP JUMPDEST PUSH1 0x20 DUP3 LT DUP2 EQ ISZERO PUSH3 0x801 JUMPI PUSH4 0x4E487B71 PUSH1 0xE0 SHL PUSH1 0x0 MSTORE PUSH1 0x22 PUSH1 0x4 MSTORE PUSH1 0x24 PUSH1 0x0 REVERT JUMPDEST POP SWAP2 SWAP1 POP JUMP JUMPDEST PUSH1 0x0 DUP3 PUSH3 0x819 JUMPI PUSH3 0x819 PUSH3 0x834 JUMP JUMPDEST POP MOD SWAP1 JUMP JUMPDEST PUSH4 0x4E487B71 PUSH1 0xE0 SHL PUSH1 0x0 MSTORE PUSH1 0x11 PUSH1 0x4 MSTORE PUSH1 0x24 PUSH1 0x0 REVERT JUMPDEST PUSH4 0x4E487B71 PUSH1 0xE0 SHL PUSH1 0x0 MSTORE PUSH1 0x12 PUSH1 0x4 MSTORE PUSH1 0x24 PUSH1 0x0 REVERT JUMPDEST PUSH1 0x80 MLOAD PUSH1 0x60 SHR PUSH1 0xA0 MLOAD PUSH1 0x60 SHR PUSH2 0x3E60 PUSH3 0x8D1 PUSH1 0x0 CODECOPY PUSH1 0x0 DUP2 DUP2 PUSH2 0x82F ADD MSTORE DUP2 DUP2 PUSH2 0x25A0 ADD MSTORE DUP2 DUP2 PUSH2 0x2765 ADD MSTORE DUP2 DUP2 PUSH2 0x29CF ADD MSTORE DUP2 DUP2 PUSH2 0x2A3A ADD MSTORE PUSH2 0x2B1C ADD MSTORE PUSH1 0x0 DUP2 DUP2 PUSH2 0x5DC ADD MSTORE DUP2 DUP2 PUSH2 0x342B ADD MSTORE DUP2 DUP2 PUSH2 0x3501 ADD MSTORE DUP2 DUP2 PUSH2 0x353D ADD MSTORE DUP2 DUP2 PUSH2 0x35AF ADD MSTORE DUP2 DUP2 PUSH2 0x361E ADD MSTORE DUP2 DUP2 PUSH2 0x37E1 ADD MSTORE DUP2 DUP2 PUSH2 0x38B7 ADD MSTORE PUSH2 0x38F3 ADD MSTORE PUSH2 0x3E60 PUSH1 0x0 RETURN INVALID PUSH1 0x80 PUSH1 0x40 MSTORE PUSH1 0x4 CALLDATASIZE LT PUSH2 0x435 JUMPI PUSH1 0x0 CALLDATALOAD PUSH1 0xE0 SHR DUP1 PUSH4 0x70A08231 GT PUSH2 0x229 JUMPI DUP1 PUSH4 0xB34B8CA3 GT PUSH2 0x12E JUMPI DUP1 PUSH4 0xDD62ED3E GT PUSH2 0xB6 JUMPI DUP1 PUSH4 0xF2FDE38B GT PUSH2 0x7A JUMPI DUP1 PUSH4 0xF2FDE38B EQ PUSH2 0xE0F JUMPI DUP1 PUSH4 0xFBA206C3 EQ PUSH2 0xE2F JUMPI DUP1 PUSH4 0xFD748C30 EQ PUSH2 0xE44 JUMPI DUP1 PUSH4 0xFED0D2A1 EQ PUSH2 0xE5A JUMPI DUP1 PUSH4 0xFFB54A99 EQ PUSH2 0xE70 JUMPI PUSH2 0x43C JUMP JUMPDEST DUP1 PUSH4 0xDD62ED3E EQ PUSH2 0xD53 JUMPI DUP1 PUSH4 0xE20B5C03 EQ PUSH2 0xD99 JUMPI DUP1 PUSH4 0xE38136EF EQ PUSH2 0xDAF JUMPI DUP1 PUSH4 0xEC72D65F EQ PUSH2 0xDCF JUMPI DUP1 PUSH4 0xF00C3322 EQ PUSH2 0xDEF JUMPI PUSH2 0x43C JUMP JUMPDEST DUP1 PUSH4 0xB8786EB1 GT PUSH2 0xFD JUMPI DUP1 PUSH4 0xB8786EB1 EQ PUSH2 0xCBD JUMPI DUP1 PUSH4 0xBD9AB537 EQ PUSH2 0xCD3 JUMPI DUP1 PUSH4 0xC49B9A80 EQ PUSH2 0xCF3 JUMPI DUP1 PUSH4 0xD5C9C9FB EQ PUSH2 0xD13 JUMPI DUP1 PUSH4 0xD61DF083 EQ PUSH2 0xD33 JUMPI PUSH2 0x43C JUMP JUMPDEST DUP1 PUSH4 0xB34B8CA3 EQ PUSH2 0xC5B JUMPI DUP1 PUSH4 0xB3F22CE3 EQ PUSH2 0xC7B JUMPI DUP1 PUSH4 0xB8392576 EQ PUSH2 0xC91 JUMPI DUP1 PUSH4 0xB85F1175 EQ PUSH2 0xCA7 JUMPI PUSH2 0x43C JUMP JUMPDEST DUP1 PUSH4 0x910FB008 GT PUSH2 0x1B1 JUMPI DUP1 PUSH4 0xA5AC51B6 GT PUSH2 0x180 JUMPI DUP1 PUSH4 0xA5AC51B6 EQ PUSH2 0xBC2 JUMPI DUP1 PUSH4 0xA7EB8EE8 EQ PUSH2 0xBD8 JUMPI DUP1 PUSH4 0xA9059CBB EQ PUSH2 0xBF8 JUMPI DUP1 PUSH4 0xB1EB20E9 EQ PUSH2 0xC18 JUMPI DUP1 PUSH4 0xB2E4D5A1 EQ PUSH2 0xC45 JUMPI PUSH2 0x43C JUMP JUMPDEST DUP1 PUSH4 0x910FB008 EQ PUSH2 0xB47 JUMPI DUP1 PUSH4 0x95D89B41 EQ PUSH2 0xB5D JUMPI DUP1 PUSH4 0x9CEE2142 EQ PUSH2 0xB72 JUMPI DUP1 PUSH4 0xA457C2D7 EQ PUSH2 0xBA2 JUMPI PUSH2 0x43C JUMP JUMPDEST DUP1 PUSH4 0x7D1DB4A5 GT PUSH2 0x1F8 JUMPI DUP1 PUSH4 0x7D1DB4A5 EQ PUSH2 0xA9A JUMPI DUP1 PUSH4 0x8097E697 EQ PUSH2 0xAB0 JUMPI DUP1 PUSH4 0x811AB49C EQ PUSH2 0xAD0 JUMPI DUP1 PUSH4 0x88F82020 EQ PUSH2 0xAF0 JUMPI DUP1 PUSH4 0x8DA5CB5B EQ PUSH2 0xB29 JUMPI PUSH2 0x43C JUMP JUMPDEST DUP1 PUSH4 0x70A08231 EQ PUSH2 0xA24 JUMPI DUP1 PUSH4 0x722B62AD EQ PUSH2 0xA44 JUMPI DUP1 PUSH4 0x78109E54 EQ PUSH2 0xA64 JUMPI DUP1 PUSH4 0x7BCAAE8A EQ PUSH2 0xA7A JUMPI PUSH2 0x43C JUMP JUMPDEST DUP1 PUSH4 0x2D838119 GT PUSH2 0x33A JUMPI DUP1 PUSH4 0x4549B039 GT PUSH2 0x2C2 JUMPI DUP1 PUSH4 0x5CFD7DF4 GT PUSH2 0x286 JUMPI DUP1 PUSH4 0x5CFD7DF4 EQ PUSH2 0x8C9 JUMPI DUP1 PUSH4 0x617C62A1 EQ PUSH2 0x8E9 JUMPI DUP1 PUSH4 0x617FE0ED EQ PUSH2 0x94C JUMPI DUP1 PUSH4 0x666A245D EQ PUSH2 0x96B JUMPI DUP1 PUSH4 0x67DC9E92 EQ PUSH2 0x98B JUMPI PUSH2 0x43C JUMP JUMPDEST DUP1 PUSH4 0x4549B039 EQ PUSH2 0x7FD JUMPI DUP1 PUSH4 0x49BD5A5E EQ PUSH2 0x81D JUMPI DUP1 PUSH4 0x4A74BB02 EQ PUSH2 0x851 JUMPI DUP1 PUSH4 0x52390C02 EQ PUSH2 0x870 JUMPI DUP1 PUSH4 0x5342ACB4 EQ PUSH2 0x890 JUMPI PUSH2 0x43C JUMP JUMPDEST DUP1 PUSH4 0x3417AB1D GT PUSH2 0x309 JUMPI DUP1 PUSH4 0x3417AB1D EQ PUSH2 0x767 JUMPI DUP1 PUSH4 0x3685D419 EQ PUSH2 0x77D JUMPI DUP1 PUSH4 0x39509351 EQ PUSH2 0x79D JUMPI DUP1 PUSH4 0x3BD5D173 EQ PUSH2 0x7BD JUMPI DUP1 PUSH4 0x42479199 EQ PUSH2 0x7DD JUMPI PUSH2 0x43C JUMP JUMPDEST DUP1 PUSH4 0x2D838119 EQ PUSH2 0x6E1 JUMPI DUP1 PUSH4 0x2DB06CB3 EQ PUSH2 0x701 JUMPI DUP1 PUSH4 0x313CE567 EQ PUSH2 0x721 JUMPI DUP1 PUSH4 0x33A06C94 EQ PUSH2 0x747 JUMPI PUSH2 0x43C JUMP JUMPDEST DUP1 PUSH4 0xFEC5DD0 GT PUSH2 0x3BD JUMPI DUP1 PUSH4 0x1C3C4FEC GT PUSH2 0x38C JUMPI DUP1 PUSH4 0x1C3C4FEC EQ PUSH2 0x62B JUMPI DUP1 PUSH4 0x1CDD3BE3 EQ PUSH2 0x65B JUMPI DUP1 PUSH4 0x23B872DD EQ PUSH2 0x68B JUMPI DUP1 PUSH4 0x28E2EAAB EQ PUSH2 0x6AB JUMPI DUP1 PUSH4 0x2D594567 EQ PUSH2 0x6C1 JUMPI PUSH2 0x43C JUMP JUMPDEST DUP1 PUSH4 0xFEC5DD0 EQ PUSH2 0x595 JUMPI DUP1 PUSH4 0x13114A9D EQ PUSH2 0x5B5 JUMPI DUP1 PUSH4 0x1694505E EQ PUSH2 0x5CA JUMPI DUP1 PUSH4 0x18160DDD EQ PUSH2 0x616 JUMPI PUSH2 0x43C JUMP JUMPDEST DUP1 PUSH4 0x9302DC6 GT PUSH2 0x404 JUMPI DUP1 PUSH4 0x9302DC6 EQ PUSH2 0x4E5 JUMPI DUP1 PUSH4 0x95EA7B3 EQ PUSH2 0x505 JUMPI DUP1 PUSH4 0xAAFF32C EQ PUSH2 0x535 JUMPI DUP1 PUSH4 0xB8DF8E3 EQ PUSH2 0x555 JUMPI DUP1 PUSH4 0xD295980 EQ PUSH2 0x575 JUMPI PUSH2 0x43C JUMP JUMPDEST DUP1 PUSH4 0x53CFA25 EQ PUSH2 0x441 JUMPI DUP1 PUSH4 0x6E6CE75 EQ PUSH2 0x481 JUMPI DUP1 PUSH4 0x6F3A47B EQ PUSH2 0x4A3 JUMPI DUP1 PUSH4 0x6FDDE03 EQ PUSH2 0x4C3 JUMPI PUSH2 0x43C JUMP JUMPDEST CALLDATASIZE PUSH2 0x43C JUMPI STOP JUMPDEST PUSH1 0x0 DUP1 REVERT JUMPDEST CALLVALUE DUP1 ISZERO PUSH2 0x44D JUMPI PUSH1 0x0 DUP1 REVERT JUMPDEST POP PUSH2 0x46E PUSH2 0x45C CALLDATASIZE PUSH1 0x4 PUSH2 0x3978 JUMP JUMPDEST PUSH1 0x2 PUSH1 0x20 MSTORE PUSH1 0x0 SWAP1 DUP2 MSTORE PUSH1 0x40 SWAP1 KECCAK256 SLOAD DUP2 JUMP JUMPDEST PUSH1 0x40 MLOAD SWAP1 DUP2 MSTORE PUSH1 0x20 ADD JUMPDEST PUSH1 0x40 MLOAD DUP1 SWAP2 SUB SWAP1 RETURN JUMPDEST CALLVALUE DUP1 ISZERO PUSH2 0x48D JUMPI PUSH1 0x0 DUP1 REVERT JUMPDEST POP PUSH2 0x4A1 PUSH2 0x49C CALLDATASIZE PUSH1 0x4 PUSH2 0x3A5A JUMP JUMPDEST PUSH2 0xE8A JUMP JUMPDEST STOP JUMPDEST CALLVALUE DUP1 ISZERO PUSH2 0x4AF JUMPI PUSH1 0x0 DUP1 REVERT JUMPDEST POP PUSH2 0x4A1 PUSH2 0x4BE CALLDATASIZE PUSH1 0x4 PUSH2 0x3B8C JUMP JUMPDEST PUSH2 0xF40 JUMP JUMPDEST CALLVALUE DUP1 ISZERO PUSH2 0x4CF JUMPI PUSH1 0x0 DUP1 REVERT JUMPDEST POP PUSH2 0x4D8 PUSH2 0xF72 JUMP JUMPDEST PUSH1 0x40 MLOAD PUSH2 0x478 SWAP2 SWAP1 PUSH2 0x3C57 JUMP JUMPDEST CALLVALUE DUP1 ISZERO PUSH2 0x4F1 JUMPI PUSH1 0x0 DUP1 REVERT JUMPDEST POP PUSH2 0x4A1 PUSH2 0x500 CALLDATASIZE PUSH1 0x4 PUSH2 0x3B23 JUMP JUMPDEST PUSH2 0x1004 JUMP JUMPDEST CALLVALUE DUP1 ISZERO PUSH2 0x511 JUMPI PUSH1 0x0 DUP1 REVERT JUMPDEST POP PUSH2 0x525 PUSH2 0x520 CALLDATASIZE PUSH1 0x4 PUSH2 0x3A2F JUMP JUMPDEST PUSH2 0x104F JUMP JUMPDEST PUSH1 0x40 MLOAD SWAP1 ISZERO ISZERO DUP2 MSTORE PUSH1 0x20 ADD PUSH2 0x478 JUMP JUMPDEST CALLVALUE DUP1 ISZERO PUSH2 0x541 JUMPI PUSH1 0x0 DUP1 REVERT JUMPDEST POP PUSH2 0x4A1 PUSH2 0x550 CALLDATASIZE PUSH1 0x4 PUSH2 0x3A5A JUMP JUMPDEST PUSH2 0x1066 JUMP JUMPDEST CALLVALUE DUP1 ISZERO PUSH2 0x561 JUMPI PUSH1 0x0 DUP1 REVERT JUMPDEST POP PUSH2 0x4A1 PUSH2 0x570 CALLDATASIZE PUSH1 0x4 PUSH2 0x3978 JUMP JUMPDEST PUSH2 0x110D JUMP JUMPDEST CALLVALUE DUP1 ISZERO PUSH2 0x581 JUMPI PUSH1 0x0 DUP1 REVERT JUMPDEST POP PUSH2 0x4A1 PUSH2 0x590 CALLDATASIZE PUSH1 0x4 PUSH2 0x3AD9 JUMP JUMPDEST PUSH2 0x1159 JUMP JUMPDEST CALLVALUE DUP1 ISZERO PUSH2 0x5A1 JUMPI PUSH1 0x0 DUP1 REVERT JUMPDEST POP PUSH2 0x4A1 PUSH2 0x5B0 CALLDATASIZE PUSH1 0x4 PUSH2 0x3B23 JUMP JUMPDEST PUSH2 0x1196 JUMP JUMPDEST CALLVALUE DUP1 ISZERO PUSH2 0x5C1 JUMPI PUSH1 0x0 DUP1 REVERT JUMPDEST POP PUSH1 0x16 SLOAD PUSH2 0x46E JUMP JUMPDEST CALLVALUE DUP1 ISZERO PUSH2 0x5D6 JUMPI PUSH1 0x0 DUP1 REVERT JUMPDEST POP PUSH2 0x5FE PUSH32 0x0 DUP2 JUMP JUMPDEST PUSH1 0x40 MLOAD PUSH1 0x1 PUSH1 0x1 PUSH1 0xA0 SHL SUB SWAP1 SWAP2 AND DUP2 MSTORE PUSH1 0x20 ADD PUSH2 0x478 JUMP JUMPDEST CALLVALUE DUP1 ISZERO PUSH2 0x622 JUMPI PUSH1 0x0 DUP1 REVERT JUMPDEST POP PUSH1 0xC SLOAD PUSH2 0x46E JUMP JUMPDEST CALLVALUE DUP1 ISZERO PUSH2 0x637 JUMPI PUSH1 0x0 DUP1 REVERT JUMPDEST POP PUSH2 0x640 PUSH2 0x11C5 JUMP JUMPDEST PUSH1 0x40 DUP1 MLOAD SWAP4 DUP5 MSTORE PUSH1 0x20 DUP5 ADD SWAP3 SWAP1 SWAP3 MSTORE SWAP1 DUP3 ADD MSTORE PUSH1 0x60 ADD PUSH2 0x478 JUMP JUMPDEST CALLVALUE DUP1 ISZERO PUSH2 0x667 JUMPI PUSH1 0x0 DUP1 REVERT JUMPDEST POP PUSH2 0x525 PUSH2 0x676 CALLDATASIZE PUSH1 0x4 PUSH2 0x3978 JUMP JUMPDEST PUSH1 0x6 PUSH1 0x20 MSTORE PUSH1 0x0 SWAP1 DUP2 MSTORE PUSH1 0x40 SWAP1 KECCAK256 SLOAD PUSH1 0xFF AND DUP2 JUMP JUMPDEST CALLVALUE DUP1 ISZERO PUSH2 0x697 JUMPI PUSH1 0x0 DUP1 REVERT JUMPDEST POP PUSH2 0x525 PUSH2 0x6A6 CALLDATASIZE PUSH1 0x4 PUSH2 0x39EF JUMP JUMPDEST PUSH2 0x11E4 JUMP JUMPDEST CALLVALUE DUP1 ISZERO PUSH2 0x6B7 JUMPI PUSH1 0x0 DUP1 REVERT JUMPDEST POP PUSH2 0x46E PUSH1 0x13 SLOAD DUP2 JUMP JUMPDEST CALLVALUE DUP1 ISZERO PUSH2 0x6CD JUMPI PUSH1 0x0 DUP1 REVERT JUMPDEST POP PUSH2 0x4A1 PUSH2 0x6DC CALLDATASIZE PUSH1 0x4 PUSH2 0x3AF3 JUMP JUMPDEST PUSH2 0x12BA JUMP JUMPDEST CALLVALUE DUP1 ISZERO PUSH2 0x6ED JUMPI PUSH1 0x0 DUP1 REVERT JUMPDEST POP PUSH2 0x46E PUSH2 0x6FC CALLDATASIZE PUSH1 0x4 PUSH2 0x3B23 JUMP JUMPDEST PUSH2 0x1315 JUMP JUMPDEST CALLVALUE DUP1 ISZERO PUSH2 0x70D JUMPI PUSH1 0x0 DUP1 REVERT JUMPDEST POP PUSH2 0x4A1 PUSH2 0x71C CALLDATASIZE PUSH1 0x4 PUSH2 0x3B3B JUMP JUMPDEST PUSH2 0x139B JUMP JUMPDEST CALLVALUE DUP1 ISZERO PUSH2 0x72D JUMPI PUSH1 0x0 DUP1 REVERT JUMPDEST POP PUSH1 0xB SLOAD PUSH1 0xFF AND JUMPDEST PUSH1 0x40 MLOAD PUSH1 0xFF SWAP1 SWAP2 AND DUP2 MSTORE PUSH1 0x20 ADD PUSH2 0x478 JUMP JUMPDEST CALLVALUE DUP1 ISZERO PUSH2 0x753 JUMPI PUSH1 0x0 DUP1 REVERT JUMPDEST POP PUSH1 0x1F SLOAD PUSH2 0x5FE SWAP1 PUSH1 0x1 PUSH1 0x1 PUSH1 0xA0 SHL SUB AND DUP2 JUMP JUMPDEST CALLVALUE DUP1 ISZERO PUSH2 0x773 JUMPI PUSH1 0x0 DUP1 REVERT JUMPDEST POP PUSH2 0x46E PUSH1 0x11 SLOAD DUP2 JUMP JUMPDEST CALLVALUE DUP1 ISZERO PUSH2 0x789 JUMPI PUSH1 0x0 DUP1 REVERT JUMPDEST POP PUSH2 0x4A1 PUSH2 0x798 CALLDATASIZE PUSH1 0x4 PUSH2 0x3978 JUMP JUMPDEST PUSH2 0x13D5 JUMP JUMPDEST CALLVALUE DUP1 ISZERO PUSH2 0x7A9 JUMPI PUSH1 0x0 DUP1 REVERT JUMPDEST POP PUSH2 0x525 PUSH2 0x7B8 CALLDATASIZE PUSH1 0x4 PUSH2 0x3A2F JUMP JUMPDEST PUSH2 0x15C5 JUMP JUMPDEST CALLVALUE DUP1 ISZERO PUSH2 0x7C9 JUMPI PUSH1 0x0 DUP1 REVERT JUMPDEST POP PUSH2 0x4A1 PUSH2 0x7D8 CALLDATASIZE PUSH1 0x4 PUSH2 0x3B23 JUMP JUMPDEST PUSH2 0x15FC JUMP JUMPDEST CALLVALUE DUP1 ISZERO PUSH2 0x7E9 JUMPI PUSH1 0x0 DUP1 REVERT JUMPDEST POP PUSH2 0x4A1 PUSH2 0x7F8 CALLDATASIZE PUSH1 0x4 PUSH2 0x3BDA JUMP JUMPDEST PUSH2 0x16EF JUMP JUMPDEST CALLVALUE DUP1 ISZERO PUSH2 0x809 JUMPI PUSH1 0x0 DUP1 REVERT JUMPDEST POP PUSH2 0x46E PUSH2 0x818 CALLDATASIZE PUSH1 0x4 PUSH2 0x3B61 JUMP JUMPDEST PUSH2 0x17D9 JUMP JUMPDEST CALLVALUE DUP1 ISZERO PUSH2 0x829 JUMPI PUSH1 0x0 DUP1 REVERT JUMPDEST POP PUSH2 0x5FE PUSH32 0x0 DUP2 JUMP JUMPDEST CALLVALUE DUP1 ISZERO PUSH2 0x85D JUMPI PUSH1 0x0 DUP1 REVERT JUMPDEST POP PUSH1 0x23 SLOAD PUSH2 0x525 SWAP1 PUSH2 0x100 SWAP1 DIV PUSH1 0xFF AND DUP2 JUMP JUMPDEST CALLVALUE DUP1 ISZERO PUSH2 0x87C JUMPI PUSH1 0x0 DUP1 REVERT JUMPDEST POP PUSH2 0x4A1 PUSH2 0x88B CALLDATASIZE PUSH1 0x4 PUSH2 0x3978 JUMP JUMPDEST PUSH2 0x1870 JUMP JUMPDEST CALLVALUE DUP1 ISZERO PUSH2 0x89C JUMPI PUSH1 0x0 DUP1 REVERT JUMPDEST POP PUSH2 0x525 PUSH2 0x8AB CALLDATASIZE PUSH1 0x4 PUSH2 0x3978 JUMP JUMPDEST PUSH1 0x1 PUSH1 0x1 PUSH1 0xA0 SHL SUB AND PUSH1 0x0 SWAP1 DUP2 MSTORE PUSH1 0x4 PUSH1 0x20 MSTORE PUSH1 0x40 SWAP1 KECCAK256 SLOAD PUSH1 0xFF AND SWAP1 JUMP JUMPDEST CALLVALUE DUP1 ISZERO PUSH2 0x8D5 JUMPI PUSH1 0x0 DUP1 REVERT JUMPDEST POP PUSH2 0x4A1 PUSH2 0x8E4 CALLDATASIZE PUSH1 0x4 PUSH2 0x3B23 JUMP JUMPDEST PUSH2 0x19C3 JUMP JUMPDEST CALLVALUE DUP1 ISZERO PUSH2 0x8F5 JUMPI PUSH1 0x0 DUP1 REVERT JUMPDEST POP PUSH2 0x8FE PUSH2 0x19F2 JUMP JUMPDEST PUSH1 0x40 DUP1 MLOAD PUSH1 0xFF SWAP11 DUP12 AND DUP2 MSTORE PUSH1 0x20 DUP2 ADD SWAP10 SWAP1 SWAP10 MSTORE DUP9 ADD SWAP7 SWAP1 SWAP7 MSTORE PUSH1 0x60 DUP8 ADD SWAP5 SWAP1 SWAP5 MSTORE PUSH1 0x80 DUP7 ADD SWAP3 SWAP1 SWAP3 MSTORE PUSH1 0xA0 DUP6 ADD MSTORE ISZERO ISZERO PUSH1 0xC0 DUP5 ADD MSTORE ISZERO ISZERO PUSH1 0xE0 DUP4 ADD MSTORE SWAP1 SWAP2 AND PUSH2 0x100 DUP3 ADD MSTORE PUSH2 0x120 ADD PUSH2 0x478 JUMP JUMPDEST CALLVALUE DUP1 ISZERO PUSH2 0x958 JUMPI PUSH1 0x0 DUP1 REVERT JUMPDEST POP PUSH1 0x8 SLOAD PUSH2 0x525 SWAP1 PUSH2 0x100 SWAP1 DIV PUSH1 0xFF AND DUP2 JUMP JUMPDEST CALLVALUE DUP1 ISZERO PUSH2 0x977 JUMPI PUSH1 0x0 DUP1 REVERT JUMPDEST POP PUSH1 0x19 SLOAD PUSH2 0x5FE SWAP1 PUSH1 0x1 PUSH1 0x1 PUSH1 0xA0 SHL SUB AND DUP2 JUMP JUMPDEST CALLVALUE DUP1 ISZERO PUSH2 0x997 JUMPI PUSH1 0x0 DUP1 REVERT JUMPDEST POP PUSH1 0x14 SLOAD PUSH1 0x20 DUP1 SLOAD PUSH1 0x1D SLOAD PUSH1 0x10 SLOAD PUSH1 0x12 SLOAD PUSH1 0x17 SLOAD PUSH1 0x11 SLOAD PUSH1 0x13 SLOAD PUSH1 0x1A SLOAD PUSH1 0x1F SLOAD PUSH1 0x1C SLOAD PUSH1 0x19 SLOAD PUSH1 0x40 DUP1 MLOAD SWAP14 DUP15 MSTORE SWAP12 DUP14 ADD SWAP11 SWAP1 SWAP11 MSTORE SWAP10 DUP12 ADD SWAP8 SWAP1 SWAP8 MSTORE PUSH1 0x60 DUP11 ADD SWAP6 SWAP1 SWAP6 MSTORE PUSH1 0x80 DUP10 ADD SWAP4 SWAP1 SWAP4 MSTORE PUSH1 0xA0 DUP9 ADD SWAP2 SWAP1 SWAP2 MSTORE PUSH1 0xC0 DUP8 ADD MSTORE PUSH1 0xE0 DUP7 ADD MSTORE PUSH2 0x100 DUP6 ADD MSTORE PUSH1 0x1 PUSH1 0x1 PUSH1 0xA0 SHL SUB SWAP1 DUP2 AND PUSH2 0x120 DUP6 ADD MSTORE SWAP2 DUP3 AND PUSH2 0x140 DUP5 ADD MSTORE AND PUSH2 0x160 DUP3 ADD MSTORE PUSH2 0x180 ADD PUSH2 0x478 JUMP JUMPDEST CALLVALUE DUP1 ISZERO PUSH2 0xA30 JUMPI PUSH1 0x0 DUP1 REVERT JUMPDEST POP PUSH2 0x46E PUSH2 0xA3F CALLDATASIZE PUSH1 0x4 PUSH2 0x3978 JUMP JUMPDEST PUSH2 0x1A56 JUMP JUMPDEST CALLVALUE DUP1 ISZERO PUSH2 0xA50 JUMPI PUSH1 0x0 DUP1 REVERT JUMPDEST POP PUSH1 0x8 SLOAD PUSH2 0x735 SWAP1 PUSH3 0x10000 SWAP1 DIV PUSH1 0xFF AND DUP2 JUMP JUMPDEST CALLVALUE DUP1 ISZERO PUSH2 0xA70 JUMPI PUSH1 0x0 DUP1 REVERT JUMPDEST POP PUSH2 0x46E PUSH1 0x24 SLOAD DUP2 JUMP JUMPDEST CALLVALUE DUP1 ISZERO PUSH2 0xA86 JUMPI PUSH1 0x0 DUP1 REVERT JUMPDEST POP PUSH2 0x4A1 PUSH2 0xA95 CALLDATASIZE PUSH1 0x4 PUSH2 0x3978 JUMP JUMPDEST PUSH2 0x1AB8 JUMP JUMPDEST CALLVALUE DUP1 ISZERO PUSH2 0xAA6 JUMPI PUSH1 0x0 DUP1 REVERT JUMPDEST POP PUSH2 0x46E PUSH1 0x25 SLOAD DUP2 JUMP JUMPDEST CALLVALUE DUP1 ISZERO PUSH2 0xABC JUMPI PUSH1 0x0 DUP1 REVERT JUMPDEST POP PUSH2 0x4A1 PUSH2 0xACB CALLDATASIZE PUSH1 0x4 PUSH2 0x3B23 JUMP JUMPDEST PUSH2 0x1B04 JUMP JUMPDEST CALLVALUE DUP1 ISZERO PUSH2 0xADC JUMPI PUSH1 0x0 DUP1 REVERT JUMPDEST POP PUSH1 0x1C SLOAD PUSH2 0x5FE SWAP1 PUSH1 0x1 PUSH1 0x1 PUSH1 0xA0 SHL SUB AND DUP2 JUMP JUMPDEST CALLVALUE DUP1 ISZERO PUSH2 0xAFC JUMPI PUSH1 0x0 DUP1 REVERT JUMPDEST POP PUSH2 0x525 PUSH2 0xB0B CALLDATASIZE PUSH1 0x4 PUSH2 0x3978 JUMP JUMPDEST PUSH1 0x1 PUSH1 0x1 PUSH1 0xA0 SHL SUB AND PUSH1 0x0 SWAP1 DUP2 MSTORE PUSH1 0x5 PUSH1 0x20 MSTORE PUSH1 0x40 SWAP1 KECCAK256 SLOAD PUSH1 0xFF AND SWAP1 JUMP JUMPDEST CALLVALUE DUP1 ISZERO PUSH2 0xB35 JUMPI PUSH1 0x0 DUP1 REVERT JUMPDEST POP PUSH1 0x0 SLOAD PUSH1 0x1 PUSH1 0x1 PUSH1 0xA0 SHL SUB AND PUSH2 0x5FE JUMP JUMPDEST CALLVALUE DUP1 ISZERO PUSH2 0xB53 JUMPI PUSH1 0x0 DUP1 REVERT JUMPDEST POP PUSH2 0x46E PUSH1 0x20 SLOAD DUP2 JUMP JUMPDEST CALLVALUE DUP1 ISZERO PUSH2 0xB69 JUMPI PUSH1 0x0 DUP1 REVERT JUMPDEST POP PUSH2 0x4D8 PUSH2 0x1B33 JUMP JUMPDEST CALLVALUE DUP1 ISZERO PUSH2 0xB7E JUMPI PUSH1 0x0 DUP1 REVERT JUMPDEST POP PUSH2 0x525 PUSH2 0xB8D CALLDATASIZE PUSH1 0x4 PUSH2 0x3978 JUMP JUMPDEST PUSH1 0x7 PUSH1 0x20 MSTORE PUSH1 0x0 SWAP1 DUP2 MSTORE PUSH1 0x40 SWAP1 KECCAK256 SLOAD PUSH1 0xFF AND DUP2 JUMP JUMPDEST CALLVALUE DUP1 ISZERO PUSH2 0xBAE JUMPI PUSH1 0x0 DUP1 REVERT JUMPDEST POP PUSH2 0x525 PUSH2 0xBBD CALLDATASIZE PUSH1 0x4 PUSH2 0x3A2F JUMP JUMPDEST PUSH2 0x1B42 JUMP JUMPDEST CALLVALUE DUP1 ISZERO PUSH2 0xBCE JUMPI PUSH1 0x0 DUP1 REVERT JUMPDEST POP PUSH2 0x46E PUSH1 0x1A SLOAD DUP2 JUMP JUMPDEST CALLVALUE DUP1 ISZERO PUSH2 0xBE4 JUMPI PUSH1 0x0 DUP1 REVERT JUMPDEST POP PUSH2 0x4A1 PUSH2 0xBF3 CALLDATASIZE PUSH1 0x4 PUSH2 0x3B8C JUMP JUMPDEST PUSH2 0x1BF9 JUMP JUMPDEST CALLVALUE DUP1 ISZERO PUSH2 0xC04 JUMPI PUSH1 0x0 DUP1 REVERT JUMPDEST POP PUSH2 0x525 PUSH2 0xC13 CALLDATASIZE PUSH1 0x4 PUSH2 0x3A2F JUMP JUMPDEST PUSH2 0x1C2E JUMP JUMPDEST CALLVALUE DUP1 ISZERO PUSH2 0xC24 JUMPI PUSH1 0x0 DUP1 REVERT JUMPDEST POP PUSH2 0x46E PUSH2 0xC33 CALLDATASIZE PUSH1 0x4 PUSH2 0x3978 JUMP JUMPDEST PUSH1 0x1 PUSH1 0x20 MSTORE PUSH1 0x0 SWAP1 DUP2 MSTORE PUSH1 0x40 SWAP1 KECCAK256 SLOAD DUP2 JUMP JUMPDEST CALLVALUE DUP1 ISZERO PUSH2 0xC51 JUMPI PUSH1 0x0 DUP1 REVERT JUMPDEST POP PUSH2 0x46E PUSH1 0x10 SLOAD DUP2 JUMP JUMPDEST CALLVALUE DUP1 ISZERO PUSH2 0xC67 JUMPI PUSH1 0x0 DUP1 REVERT JUMPDEST POP PUSH2 0x4A1 PUSH2 0xC76 CALLDATASIZE PUSH1 0x4 PUSH2 0x3B23 JUMP JUMPDEST PUSH2 0x1C3B JUMP JUMPDEST CALLVALUE DUP1 ISZERO PUSH2 0xC87 JUMPI PUSH1 0x0 DUP1 REVERT JUMPDEST POP PUSH2 0x46E PUSH1 0x26 SLOAD DUP2 JUMP JUMPDEST CALLVALUE DUP1 ISZERO PUSH2 0xC9D JUMPI PUSH1 0x0 DUP1 REVERT JUMPDEST POP PUSH2 0x46E PUSH1 0x17 SLOAD DUP2 JUMP JUMPDEST CALLVALUE DUP1 ISZERO PUSH2 0xCB3 JUMPI PUSH1 0x0 DUP1 REVERT JUMPDEST POP PUSH2 0x46E PUSH1 0x14 SLOAD DUP2 JUMP JUMPDEST CALLVALUE DUP1 ISZERO PUSH2 0xCC9 JUMPI PUSH1 0x0 DUP1 REVERT JUMPDEST POP PUSH2 0x46E PUSH1 0x1D SLOAD DUP2 JUMP JUMPDEST CALLVALUE DUP1 ISZERO PUSH2 0xCDF JUMPI PUSH1 0x0 DUP1 REVERT JUMPDEST POP PUSH2 0x4A1 PUSH2 0xCEE CALLDATASIZE PUSH1 0x4 PUSH2 0x3B23 JUMP JUMPDEST PUSH2 0x1CAB JUMP JUMPDEST CALLVALUE DUP1 ISZERO PUSH2 0xCFF JUMPI PUSH1 0x0 DUP1 REVERT JUMPDEST POP PUSH2 0x4A1 PUSH2 0xD0E CALLDATASIZE PUSH1 0x4 PUSH2 0x3AD9 JUMP JUMPDEST PUSH2 0x1CF6 JUMP JUMPDEST CALLVALUE DUP1 ISZERO PUSH2 0xD1F JUMPI PUSH1 0x0 DUP1 REVERT JUMPDEST POP PUSH2 0x4A1 PUSH2 0xD2E CALLDATASIZE PUSH1 0x4 PUSH2 0x3978 JUMP JUMPDEST PUSH2 0x1D74 JUMP JUMPDEST CALLVALUE DUP1 ISZERO PUSH2 0xD3F JUMPI PUSH1 0x0 DUP1 REVERT JUMPDEST POP PUSH2 0x4A1 PUSH2 0xD4E CALLDATASIZE PUSH1 0x4 PUSH2 0x3A2F JUMP JUMPDEST PUSH2 0x1DC0 JUMP JUMPDEST CALLVALUE DUP1 ISZERO PUSH2 0xD5F JUMPI PUSH1 0x0 DUP1 REVERT JUMPDEST POP PUSH2 0x46E PUSH2 0xD6E CALLDATASIZE PUSH1 0x4 PUSH2 0x39B7 JUMP JUMPDEST PUSH1 0x1 PUSH1 0x1 PUSH1 0xA0 SHL SUB SWAP2 DUP3 AND PUSH1 0x0 SWAP1 DUP2 MSTORE PUSH1 0x3 PUSH1 0x20 SWAP1 DUP2 MSTORE PUSH1 0x40 DUP1 DUP4 KECCAK256 SWAP4 SWAP1 SWAP5 AND DUP3 MSTORE SWAP2 SWAP1 SWAP2 MSTORE KECCAK256 SLOAD SWAP1 JUMP JUMPDEST CALLVALUE DUP1 ISZERO PUSH2 0xDA5 JUMPI PUSH1 0x0 DUP1 REVERT JUMPDEST POP PUSH2 0x46E PUSH1 0x12 SLOAD DUP2 JUMP JUMPDEST CALLVALUE DUP1 ISZERO PUSH2 0xDBB JUMPI PUSH1 0x0 DUP1 REVERT JUMPDEST POP PUSH2 0x4A1 PUSH2 0xDCA CALLDATASIZE PUSH1 0x4 PUSH2 0x3A5A JUMP JUMPDEST PUSH2 0x1FD4 JUMP JUMPDEST CALLVALUE DUP1 ISZERO PUSH2 0xDDB JUMPI PUSH1 0x0 DUP1 REVERT JUMPDEST POP PUSH2 0x4A1 PUSH2 0xDEA CALLDATASIZE PUSH1 0x4 PUSH2 0x3B23 JUMP JUMPDEST PUSH2 0x207B JUMP JUMPDEST CALLVALUE DUP1 ISZERO PUSH2 0xDFB JUMPI PUSH1 0x0 DUP1 REVERT JUMPDEST POP PUSH2 0x4A1 PUSH2 0xE0A CALLDATASIZE PUSH1 0x4 PUSH2 0x3A5A JUMP JUMPDEST PUSH2 0x20AA JUMP JUMPDEST CALLVALUE DUP1 ISZERO PUSH2 0xE1B JUMPI PUSH1 0x0 DUP1 REVERT JUMPDEST POP PUSH2 0x4A1 PUSH2 0xE2A CALLDATASIZE PUSH1 0x4 PUSH2 0x3978 JUMP JUMPDEST PUSH2 0x2151 JUMP JUMPDEST CALLVALUE DUP1 ISZERO PUSH2 0xE3B JUMPI PUSH1 0x0 DUP1 REVERT JUMPDEST POP PUSH2 0x4A1 PUSH2 0x223B JUMP JUMPDEST CALLVALUE DUP1 ISZERO PUSH2 0xE50 JUMPI PUSH1 0x0 DUP1 REVERT JUMPDEST POP PUSH2 0x46E PUSH1 0x22 SLOAD DUP2 JUMP JUMPDEST CALLVALUE DUP1 ISZERO PUSH2 0xE66 JUMPI PUSH1 0x0 DUP1 REVERT JUMPDEST POP PUSH2 0x46E PUSH1 0x27 SLOAD DUP2 JUMP JUMPDEST CALLVALUE DUP1 ISZERO PUSH2 0xE7C JUMPI PUSH1 0x0 DUP1 REVERT JUMPDEST POP PUSH1 0x8 SLOAD PUSH2 0x525 SWAP1 PUSH1 0xFF AND DUP2 JUMP JUMPDEST PUSH1 0x0 SLOAD PUSH1 0x1 PUSH1 0x1 PUSH1 0xA0 SHL SUB AND CALLER EQ PUSH2 0xEBD JUMPI PUSH1 0x40 MLOAD PUSH3 0x461BCD PUSH1 0xE5 SHL DUP2 MSTORE PUSH1 0x4 ADD PUSH2 0xEB4 SWAP1 PUSH2 0x3CAA JUMP JUMPDEST PUSH1 0x40 MLOAD DUP1 SWAP2 SUB SWAP1 REVERT JUMPDEST PUSH1 0x0 JUMPDEST DUP3 DUP2 LT ISZERO PUSH2 0xF3A JUMPI DUP2 PUSH1 0x4 PUSH1 0x0 DUP7 DUP7 DUP6 DUP2 DUP2 LT PUSH2 0xEED JUMPI PUSH4 0x4E487B71 PUSH1 0xE0 SHL PUSH1 0x0 MSTORE PUSH1 0x32 PUSH1 0x4 MSTORE PUSH1 0x24 PUSH1 0x0 REVERT JUMPDEST SWAP1 POP PUSH1 0x20 MUL ADD PUSH1 0x20 DUP2 ADD SWAP1 PUSH2 0xF02 SWAP2 SWAP1 PUSH2 0x3978 JUMP JUMPDEST PUSH1 0x1 PUSH1 0x1 PUSH1 0xA0 SHL SUB AND DUP2 MSTORE PUSH1 0x20 DUP2 ADD SWAP2 SWAP1 SWAP2 MSTORE PUSH1 0x40 ADD PUSH1 0x0 KECCAK256 DUP1 SLOAD PUSH1 0xFF NOT AND SWAP2 ISZERO ISZERO SWAP2 SWAP1 SWAP2 OR SWAP1 SSTORE PUSH2 0xF33 DUP2 PUSH2 0x3DC4 JUMP JUMPDEST SWAP1 POP PUSH2 0xEC0 JUMP JUMPDEST POP POP POP POP JUMP JUMPDEST PUSH1 0x0 SLOAD PUSH1 0x1 PUSH1 0x1 PUSH1 0xA0 SHL SUB AND CALLER EQ PUSH2 0xF6A JUMPI PUSH1 0x40 MLOAD PUSH3 0x461BCD PUSH1 0xE5 SHL DUP2 MSTORE PUSH1 0x4 ADD PUSH2 0xEB4 SWAP1 PUSH2 0x3CAA JUMP JUMPDEST PUSH1 0x12 SSTORE PUSH1 0x13 SSTORE JUMP JUMPDEST PUSH1 0x60 PUSH1 0xE DUP1 SLOAD PUSH2 0xF81 SWAP1 PUSH2 0x3D89 JUMP JUMPDEST DUP1 PUSH1 0x1F ADD PUSH1 0x20 DUP1 SWAP2 DIV MUL PUSH1 0x20 ADD PUSH1 0x40 MLOAD SWAP1 DUP2 ADD PUSH1 0x40 MSTORE DUP1 SWAP3 SWAP2 SWAP1 DUP2 DUP2 MSTORE PUSH1 0x20 ADD DUP3 DUP1 SLOAD PUSH2 0xFAD SWAP1 PUSH2 0x3D89 JUMP JUMPDEST DUP1 ISZERO PUSH2 0xFFA JUMPI DUP1 PUSH1 0x1F LT PUSH2 0xFCF JUMPI PUSH2 0x100 DUP1 DUP4 SLOAD DIV MUL DUP4 MSTORE SWAP2 PUSH1 0x20 ADD SWAP2 PUSH2 0xFFA JUMP JUMPDEST DUP3 ADD SWAP2 SWAP1 PUSH1 0x0 MSTORE PUSH1 0x20 PUSH1 0x0 KECCAK256 SWAP1 JUMPDEST DUP2 SLOAD DUP2 MSTORE SWAP1 PUSH1 0x1 ADD SWAP1 PUSH1 0x20 ADD DUP1 DUP4 GT PUSH2 0xFDD JUMPI DUP3 SWAP1 SUB PUSH1 0x1F AND DUP3 ADD SWAP2 JUMPDEST POP POP POP POP POP SWAP1 POP SWAP1 JUMP JUMPDEST PUSH1 0x0 SLOAD PUSH1 0x1 PUSH1 0x1 PUSH1 0xA0 SHL SUB AND CALLER EQ PUSH2 0x102E JUMPI PUSH1 0x40 MLOAD PUSH3 0x461BCD PUSH1 0xE5 SHL DUP2 MSTORE PUSH1 0x4 ADD PUSH2 0xEB4 SWAP1 PUSH2 0x3CAA JUMP JUMPDEST PUSH2 0x3E8 DUP2 PUSH1 0xC SLOAD PUSH2 0x103F SWAP2 SWAP1 PUSH2 0x3D53 JUMP JUMPDEST PUSH2 0x1049 SWAP2 SWAP1 PUSH2 0x3D33 JUMP JUMPDEST PUSH1 0x24 SSTORE POP JUMP JUMPDEST PUSH1 0x0 PUSH2 0x105C CALLER DUP5 DUP5 PUSH2 0x22E6 JUMP JUMPDEST POP PUSH1 0x1 JUMPDEST SWAP3 SWAP2 POP POP JUMP JUMPDEST PUSH1 0x0 SLOAD PUSH1 0x1 PUSH1 0x1 PUSH1 0xA0 SHL SUB AND CALLER EQ PUSH2 0x1090 JUMPI PUSH1 0x40 MLOAD PUSH3 0x461BCD PUSH1 0xE5 SHL DUP2 MSTORE PUSH1 0x4 ADD PUSH2 0xEB4 SWAP1 PUSH2 0x3CAA JUMP JUMPDEST PUSH1 0x0 JUMPDEST DUP3 DUP2 LT ISZERO PUSH2 0xF3A JUMPI DUP2 PUSH1 0x7 PUSH1 0x0 DUP7 DUP7 DUP6 DUP2 DUP2 LT PUSH2 0x10C0 JUMPI PUSH4 0x4E487B71 PUSH1 0xE0 SHL PUSH1 0x0 MSTORE PUSH1 0x32 PUSH1 0x4 MSTORE PUSH1 0x24 PUSH1 0x0 REVERT JUMPDEST SWAP1 POP PUSH1 0x20 MUL ADD PUSH1 0x20 DUP2 ADD SWAP1 PUSH2 0x10D5 SWAP2 SWAP1 PUSH2 0x3978 JUMP JUMPDEST PUSH1 0x1 PUSH1 0x1 PUSH1 0xA0 SHL SUB AND DUP2 MSTORE PUSH1 0x20 DUP2 ADD SWAP2 SWAP1 SWAP2 MSTORE PUSH1 0x40 ADD PUSH1 0x0 KECCAK256 DUP1 SLOAD PUSH1 0xFF NOT AND SWAP2 ISZERO ISZERO SWAP2 SWAP1 SWAP2 OR SWAP1 SSTORE PUSH2 0x1106 DUP2 PUSH2 0x3DC4 JUMP JUMPDEST SWAP1 POP PUSH2 0x1093 JUMP JUMPDEST PUSH1 0x0 SLOAD PUSH1 0x1 PUSH1 0x1 PUSH1 0xA0 SHL SUB AND CALLER EQ PUSH2 0x1137 JUMPI PUSH1 0x40 MLOAD PUSH3 0x461BCD PUSH1 0xE5 SHL DUP2 MSTORE PUSH1 0x4 ADD PUSH2 0xEB4 SWAP1 PUSH2 0x3CAA JUMP JUMPDEST PUSH1 0x19 DUP1 SLOAD PUSH1 0x1 PUSH1 0x1 PUSH1 0xA0 SHL SUB NOT AND PUSH1 0x1 PUSH1 0x1 PUSH1 0xA0 SHL SUB SWAP3 SWAP1 SWAP3 AND SWAP2 SWAP1 SWAP2 OR SWAP1 SSTORE JUMP JUMPDEST PUSH1 0x0 SLOAD PUSH1 0x1 PUSH1 0x1 PUSH1 0xA0 SHL SUB AND CALLER EQ PUSH2 0x1183 JUMPI PUSH1 0x40 MLOAD PUSH3 0x461BCD PUSH1 0xE5 SHL DUP2 MSTORE PUSH1 0x4 ADD PUSH2 0xEB4 SWAP1 PUSH2 0x3CAA JUMP JUMPDEST PUSH1 0x8 DUP1 SLOAD PUSH1 0xFF NOT AND SWAP2 ISZERO ISZERO SWAP2 SWAP1 SWAP2 OR SWAP1 SSTORE JUMP JUMPDEST PUSH1 0x0 SLOAD PUSH1 0x1 PUSH1 0x1 PUSH1 0xA0 SHL SUB AND CALLER EQ PUSH2 0x11C0 JUMPI PUSH1 0x40 MLOAD PUSH3 0x461BCD PUSH1 0xE5 SHL DUP2 MSTORE PUSH1 0x4 ADD PUSH2 0xEB4 SWAP1 PUSH2 0x3CAA JUMP JUMPDEST PUSH1 0x24 SSTORE JUMP JUMPDEST PUSH1 0x0 DUP1 PUSH1 0x0 PUSH1 0x26 SLOAD PUSH2 0x11D6 ADDRESS PUSH2 0x1A56 JUMP JUMPDEST PUSH1 0x16 SLOAD SWAP3 POP SWAP3 POP SWAP3 POP SWAP1 SWAP2 SWAP3 JUMP JUMPDEST PUSH1 0x0 PUSH2 0x11F1 DUP5 DUP5 DUP5 PUSH2 0x2402 JUMP JUMPDEST PUSH1 0x1 PUSH1 0x1 PUSH1 0xA0 SHL SUB DUP5 AND PUSH1 0x0 SWAP1 DUP2 MSTORE PUSH1 0x3 PUSH1 0x20 SWAP1 DUP2 MSTORE PUSH1 0x40 DUP1 DUP4 KECCAK256 CALLER DUP5 MSTORE SWAP1 SWAP2 MSTORE SWAP1 KECCAK256 SLOAD DUP3 GT ISZERO PUSH2 0x1275 JUMPI PUSH1 0x40 MLOAD PUSH3 0x461BCD PUSH1 0xE5 SHL DUP2 MSTORE PUSH1 0x20 PUSH1 0x4 DUP3 ADD MSTORE PUSH1 0x28 PUSH1 0x24 DUP3 ADD MSTORE PUSH32 0x45524332303A207472616E7366657220616D6F756E7420657863656564732061 PUSH1 0x44 DUP3 ADD MSTORE PUSH8 0x6C6C6F77616E6365 PUSH1 0xC0 SHL PUSH1 0x64 DUP3 ADD MSTORE PUSH1 0x84 ADD PUSH2 0xEB4 JUMP JUMPDEST PUSH1 0x1 PUSH1 0x1 PUSH1 0xA0 SHL SUB DUP5 AND PUSH1 0x0 SWAP1 DUP2 MSTORE PUSH1 0x3 PUSH1 0x20 SWAP1 DUP2 MSTORE PUSH1 0x40 DUP1 DUP4 KECCAK256 CALLER DUP1 DUP6 MSTORE SWAP3 MSTORE SWAP1 SWAP2 KECCAK256 SLOAD PUSH2 0x12B0 SWAP2 DUP7 SWAP2 PUSH2 0x12AB SWAP1 DUP7 SWAP1 PUSH2 0x3D72 JUMP JUMPDEST PUSH2 0x22E6 JUMP JUMPDEST POP PUSH1 0x1 SWAP4 SWAP3 POP POP POP JUMP JUMPDEST PUSH1 0x0 SLOAD PUSH1 0x1 PUSH1 0x1 PUSH1 0xA0 SHL SUB AND CALLER EQ PUSH2 0x12E4 JUMPI PUSH1 0x40 MLOAD PUSH3 0x461BCD PUSH1 0xE5 SHL DUP2 MSTORE PUSH1 0x4 ADD PUSH2 0xEB4 SWAP1 PUSH2 0x3CAA JUMP JUMPDEST PUSH1 0x8 DUP1 SLOAD PUSH3 0xFFFF00 NOT AND PUSH2 0x100 SWAP4 ISZERO ISZERO SWAP4 SWAP1 SWAP4 MUL PUSH3 0xFF0000 NOT AND SWAP3 SWAP1 SWAP3 OR PUSH3 0x10000 PUSH1 0xFF SWAP3 SWAP1 SWAP3 AND SWAP2 SWAP1 SWAP2 MUL OR SWAP1 SSTORE JUMP JUMPDEST PUSH1 0x0 PUSH1 0xD SLOAD DUP3 GT ISZERO PUSH2 0x137C JUMPI PUSH1 0x40 MLOAD PUSH3 0x461BCD PUSH1 0xE5 SHL DUP2 MSTORE PUSH1 0x20 PUSH1 0x4 DUP3 ADD MSTORE PUSH1 0x2A PUSH1 0x24 DUP3 ADD MSTORE PUSH32 0x416D6F756E74206D757374206265206C657373207468616E20746F74616C2072 PUSH1 0x44 DUP3 ADD MSTORE PUSH10 0x65666C656374696F6E73 PUSH1 0xB0 SHL PUSH1 0x64 DUP3 ADD MSTORE PUSH1 0x84 ADD PUSH2 0xEB4 JUMP JUMPDEST PUSH1 0x0 PUSH2 0x1386 PUSH2 0x2BC3 JUMP JUMPDEST SWAP1 POP PUSH2 0x1392 DUP2 DUP5 PUSH2 0x3D33 JUMP JUMPDEST SWAP2 POP POP JUMPDEST SWAP2 SWAP1 POP JUMP JUMPDEST PUSH1 0x0 SLOAD PUSH1 0x1 PUSH1 0x1 PUSH1 0xA0 SHL SUB AND CALLER EQ PUSH2 0x13C5 JUMPI PUSH1 0x40 MLOAD PUSH3 0x461BCD PUSH1 0xE5 SHL DUP2 MSTORE PUSH1 0x4 ADD PUSH2 0xEB4 SWAP1 PUSH2 0x3CAA JUMP JUMPDEST PUSH2 0x13D0 DUP4 DUP4 DUP4 PUSH2 0x2BE6 JUMP JUMPDEST POP POP POP JUMP JUMPDEST PUSH1 0x0 SLOAD PUSH1 0x1 PUSH1 0x1 PUSH1 0xA0 SHL SUB AND CALLER EQ PUSH2 0x13FF JUMPI PUSH1 0x40 MLOAD PUSH3 0x461BCD PUSH1 0xE5 SHL DUP2 MSTORE PUSH1 0x4 ADD PUSH2 0xEB4 SWAP1 PUSH2 0x3CAA JUMP JUMPDEST PUSH1 0x1 PUSH1 0x1 PUSH1 0xA0 SHL SUB DUP2 AND PUSH1 0x0 SWAP1 DUP2 MSTORE PUSH1 0x5 PUSH1 0x20 MSTORE PUSH1 0x40 SWAP1 KECCAK256 SLOAD PUSH1 0xFF AND PUSH2 0x1467 JUMPI PUSH1 0x40 MLOAD PUSH3 0x461BCD PUSH1 0xE5 SHL DUP2 MSTORE PUSH1 0x20 PUSH1 0x4 DUP3 ADD MSTORE PUSH1 0x1B PUSH1 0x24 DUP3 ADD MSTORE PUSH32 0x4163636F756E7420697320616C726561647920696E636C756465640000000000 PUSH1 0x44 DUP3 ADD MSTORE PUSH1 0x64 ADD PUSH2 0xEB4 JUMP JUMPDEST PUSH1 0x0 JUMPDEST PUSH1 0xA SLOAD DUP2 LT ISZERO PUSH2 0x15C1 JUMPI DUP2 PUSH1 0x1 PUSH1 0x1 PUSH1 0xA0 SHL SUB AND PUSH1 0xA DUP3 DUP2 SLOAD DUP2 LT PUSH2 0x149F JUMPI PUSH4 0x4E487B71 PUSH1 0xE0 SHL PUSH1 0x0 MSTORE PUSH1 0x32 PUSH1 0x4 MSTORE PUSH1 0x24 PUSH1 0x0 REVERT JUMPDEST PUSH1 0x0 SWAP2 DUP3 MSTORE PUSH1 0x20 SWAP1 SWAP2 KECCAK256 ADD SLOAD PUSH1 0x1 PUSH1 0x1 PUSH1 0xA0 SHL SUB AND EQ ISZERO PUSH2 0x15AF JUMPI PUSH1 0xA DUP1 SLOAD PUSH2 0x14CA SWAP1 PUSH1 0x1 SWAP1 PUSH2 0x3D72 JUMP JUMPDEST DUP2 SLOAD DUP2 LT PUSH2 0x14E8 JUMPI PUSH4 0x4E487B71 PUSH1 0xE0 SHL PUSH1 0x0 MSTORE PUSH1 0x32 PUSH1 0x4 MSTORE PUSH1 0x24 PUSH1 0x0 REVERT JUMPDEST PUSH1 0x0 SWAP2 DUP3 MSTORE PUSH1 0x20 SWAP1 SWAP2 KECCAK256 ADD SLOAD PUSH1 0xA DUP1 SLOAD PUSH1 0x1 PUSH1 0x1 PUSH1 0xA0 SHL SUB SWAP1 SWAP3 AND SWAP2 DUP4 SWAP1 DUP2 LT PUSH2 0x1522 JUMPI PUSH4 0x4E487B71 PUSH1 0xE0 SHL PUSH1 0x0 MSTORE PUSH1 0x32 PUSH1 0x4 MSTORE PUSH1 0x24 PUSH1 0x0 REVERT JUMPDEST PUSH1 0x0 SWAP2 DUP3 MSTORE PUSH1 0x20 DUP1 DUP4 KECCAK256 SWAP2 SWAP1 SWAP2 ADD DUP1 SLOAD PUSH1 0x1 PUSH1 0x1 PUSH1 0xA0 SHL SUB NOT AND PUSH1 0x1 PUSH1 0x1 PUSH1 0xA0 SHL SUB SWAP5 DUP6 AND OR SWAP1 SSTORE SWAP2 DUP5 AND DUP2 MSTORE PUSH1 0x2 DUP3 MSTORE PUSH1 0x40 DUP1 DUP3 KECCAK256 DUP3 SWAP1 SSTORE PUSH1 0x5 SWAP1 SWAP3 MSTORE KECCAK256 DUP1 SLOAD PUSH1 0xFF NOT AND SWAP1 SSTORE PUSH1 0xA DUP1 SLOAD DUP1 PUSH2 0x1588 JUMPI PUSH4 0x4E487B71 PUSH1 0xE0 SHL PUSH1 0x0 MSTORE PUSH1 0x31 PUSH1 0x4 MSTORE PUSH1 0x24 PUSH1 0x0 REVERT JUMPDEST PUSH1 0x0 DUP3 DUP2 MSTORE PUSH1 0x20 SWAP1 KECCAK256 DUP2 ADD PUSH1 0x0 NOT SWAP1 DUP2 ADD DUP1 SLOAD PUSH1 0x1 PUSH1 0x1 PUSH1 0xA0 SHL SUB NOT AND SWAP1 SSTORE ADD SWAP1 SSTORE PUSH2 0x15C1 JUMP JUMPDEST DUP1 PUSH2 0x15B9 DUP2 PUSH2 0x3DC4 JUMP JUMPDEST SWAP2 POP POP PUSH2 0x146A JUMP JUMPDEST POP POP JUMP JUMPDEST CALLER PUSH1 0x0 DUP2 DUP2 MSTORE PUSH1 0x3 PUSH1 0x20 SWAP1 DUP2 MSTORE PUSH1 0x40 DUP1 DUP4 KECCAK256 PUSH1 0x1 PUSH1 0x1 PUSH1 0xA0 SHL SUB DUP8 AND DUP5 MSTORE SWAP1 SWAP2 MSTORE DUP2 KECCAK256 SLOAD SWAP1 SWAP2 PUSH2 0x105C SWAP2 DUP6 SWAP1 PUSH2 0x12AB SWAP1 DUP7 SWAP1 PUSH2 0x3D1B JUMP JUMPDEST CALLER PUSH1 0x0 DUP2 DUP2 MSTORE PUSH1 0x5 PUSH1 0x20 MSTORE PUSH1 0x40 SWAP1 KECCAK256 SLOAD PUSH1 0xFF AND ISZERO PUSH2 0x1671 JUMPI PUSH1 0x40 MLOAD PUSH3 0x461BCD PUSH1 0xE5 SHL DUP2 MSTORE PUSH1 0x20 PUSH1 0x4 DUP3 ADD MSTORE PUSH1 0x2C PUSH1 0x24 DUP3 ADD MSTORE PUSH32 0x4578636C75646564206164647265737365732063616E6E6F742063616C6C2074 PUSH1 0x44 DUP3 ADD MSTORE PUSH12 0x3434B990333AB731BA34B7B7 PUSH1 0xA1 SHL PUSH1 0x64 DUP3 ADD MSTORE PUSH1 0x84 ADD PUSH2 0xEB4 JUMP JUMPDEST PUSH1 0x0 PUSH2 0x167E DUP4 PUSH1 0x0 PUSH2 0x2C22 JUMP JUMPDEST POP POP POP PUSH1 0x1 PUSH1 0x1 PUSH1 0xA0 SHL SUB DUP9 AND PUSH1 0x0 SWAP1 DUP2 MSTORE PUSH1 0x1 PUSH1 0x20 MSTORE PUSH1 0x40 SWAP1 KECCAK256 SLOAD SWAP6 SWAP7 POP PUSH2 0x16AF SWAP6 DUP8 SWAP6 POP SWAP4 POP PUSH2 0x3D72 SWAP3 POP POP POP JUMP JUMPDEST PUSH1 0x1 PUSH1 0x1 PUSH1 0xA0 SHL SUB DUP4 AND PUSH1 0x0 SWAP1 DUP2 MSTORE PUSH1 0x1 PUSH1 0x20 MSTORE PUSH1 0x40 SWAP1 KECCAK256 SSTORE PUSH1 0xD SLOAD PUSH2 0x16D6 SWAP1 DUP3 SWAP1 PUSH2 0x3D72 JUMP JUMPDEST PUSH1 0xD SSTORE PUSH1 0x16 SLOAD PUSH2 0x16E7 SWAP1 DUP5 SWAP1 PUSH2 0x3D1B JUMP JUMPDEST PUSH1 0x16 SSTORE POP POP POP JUMP JUMPDEST PUSH1 0x0 SLOAD PUSH1 0x1 PUSH1 0x1 PUSH1 0xA0 SHL SUB AND CALLER EQ PUSH2 0x1719 JUMPI PUSH1 0x40 MLOAD PUSH3 0x461BCD PUSH1 0xE5 SHL DUP2 MSTORE PUSH1 0x4 ADD PUSH2 0xEB4 SWAP1 PUSH2 0x3CAA JUMP JUMPDEST PUSH1 0x0 DUP3 DUP7 DUP6 PUSH2 0x1728 DUP6 DUP10 PUSH2 0x3D1B JUMP JUMPDEST PUSH2 0x1732 SWAP2 SWAP1 PUSH2 0x3D1B JUMP JUMPDEST PUSH2 0x173C SWAP2 SWAP1 PUSH2 0x3D1B JUMP JUMPDEST PUSH2 0x1746 SWAP2 SWAP1 PUSH2 0x3D1B JUMP JUMPDEST SWAP1 POP PUSH2 0xFA0 DUP2 LT PUSH2 0x17B7 JUMPI PUSH1 0x40 MLOAD PUSH3 0x461BCD PUSH1 0xE5 SHL DUP2 MSTORE PUSH1 0x20 PUSH1 0x4 DUP3 ADD MSTORE PUSH1 0x35 PUSH1 0x24 DUP3 ADD MSTORE PUSH32 0x43616E6E6F74207365742066656573207468697320686967682C2070616E6361 PUSH1 0x44 DUP3 ADD MSTORE PUSH21 0x6B6520737761702077696C6C206861746520757321 PUSH1 0x58 SHL PUSH1 0x64 DUP3 ADD MSTORE PUSH1 0x84 ADD PUSH2 0xEB4 JUMP JUMPDEST PUSH1 0x1A DUP6 SWAP1 SSTORE PUSH1 0x17 DUP3 SWAP1 SSTORE PUSH1 0x20 DUP5 SWAP1 SSTORE PUSH1 0x1D DUP7 SWAP1 SSTORE PUSH1 0x14 DUP4 SWAP1 SSTORE JUMPDEST POP POP POP POP POP POP JUMP JUMPDEST PUSH1 0x0 PUSH1 0xC SLOAD DUP4 GT ISZERO PUSH2 0x182D JUMPI PUSH1 0x40 MLOAD PUSH3 0x461BCD PUSH1 0xE5 SHL DUP2 MSTORE PUSH1 0x20 PUSH1 0x4 DUP3 ADD MSTORE PUSH1 0x1F PUSH1 0x24 DUP3 ADD MSTORE PUSH32 0x416D6F756E74206D757374206265206C657373207468616E20737570706C7900 PUSH1 0x44 DUP3 ADD MSTORE PUSH1 0x64 ADD PUSH2 0xEB4 JUMP JUMPDEST DUP2 PUSH2 0x1851 JUMPI PUSH1 0x0 PUSH2 0x183F DUP5 PUSH1 0x0 PUSH2 0x2C22 JUMP JUMPDEST POP SWAP7 SWAP9 POP PUSH2 0x1060 SWAP8 POP POP POP POP POP POP POP POP JUMP JUMPDEST PUSH1 0x0 PUSH2 0x185E DUP5 PUSH1 0x0 PUSH2 0x2C22 JUMP JUMPDEST POP SWAP6 SWAP9 POP PUSH2 0x1060 SWAP8 POP POP POP POP POP POP POP POP JUMP JUMPDEST PUSH1 0x0 SLOAD PUSH1 0x1 PUSH1 0x1 PUSH1 0xA0 SHL SUB AND CALLER EQ PUSH2 0x189A JUMPI PUSH1 0x40 MLOAD PUSH3 0x461BCD PUSH1 0xE5 SHL DUP2 MSTORE PUSH1 0x4 ADD PUSH2 0xEB4 SWAP1 PUSH2 0x3CAA JUMP JUMPDEST PUSH1 0x1 PUSH1 0x1 PUSH1 0xA0 SHL SUB DUP2 AND PUSH1 0x0 SWAP1 DUP2 MSTORE PUSH1 0x5 PUSH1 0x20 MSTORE PUSH1 0x40 SWAP1 KECCAK256 SLOAD PUSH1 0xFF AND ISZERO PUSH2 0x1903 JUMPI PUSH1 0x40 MLOAD PUSH3 0x461BCD PUSH1 0xE5 SHL DUP2 MSTORE PUSH1 0x20 PUSH1 0x4 DUP3 ADD MSTORE PUSH1 0x1B PUSH1 0x24 DUP3 ADD MSTORE PUSH32 0x4163636F756E7420697320616C7265616479206578636C756465640000000000 PUSH1 0x44 DUP3 ADD MSTORE PUSH1 0x64 ADD PUSH2 0xEB4 JUMP JUMPDEST PUSH1 0x1 PUSH1 0x1 PUSH1 0xA0 SHL SUB DUP2 AND PUSH1 0x0 SWAP1 DUP2 MSTORE PUSH1 0x1 PUSH1 0x20 MSTORE PUSH1 0x40 SWAP1 KECCAK256 SLOAD ISZERO PUSH2 0x195D JUMPI PUSH1 0x1 PUSH1 0x1 PUSH1 0xA0 SHL SUB DUP2 AND PUSH1 0x0 SWAP1 DUP2 MSTORE PUSH1 0x1 PUSH1 0x20 MSTORE PUSH1 0x40 SWAP1 KECCAK256 SLOAD PUSH2 0x1943 SWAP1 PUSH2 0x1315 JUMP JUMPDEST PUSH1 0x1 PUSH1 0x1 PUSH1 0xA0 SHL SUB DUP3 AND PUSH1 0x0 SWAP1 DUP2 MSTORE PUSH1 0x2 PUSH1 0x20 MSTORE PUSH1 0x40 SWAP1 KECCAK256 SSTORE JUMPDEST PUSH1 0x1 PUSH1 0x1 PUSH1 0xA0 SHL SUB AND PUSH1 0x0 DUP2 DUP2 MSTORE PUSH1 0x5 PUSH1 0x20 MSTORE PUSH1 0x40 DUP2 KECCAK256 DUP1 SLOAD PUSH1 0xFF NOT AND PUSH1 0x1 SWAP1 DUP2 OR SWAP1 SWAP2 SSTORE PUSH1 0xA DUP1 SLOAD SWAP2 DUP3 ADD DUP2 SSTORE SWAP1 SWAP2 MSTORE PUSH32 0xC65A7BB8D6351C1CF70C95A316CC6A92839C986682D98BC35F958F4883F9D2A8 ADD DUP1 SLOAD PUSH1 0x1 PUSH1 0x1 PUSH1 0xA0 SHL SUB NOT AND SWAP1 SWAP2 OR SWAP1 SSTORE JUMP JUMPDEST PUSH1 0x0 SLOAD PUSH1 0x1 PUSH1 0x1 PUSH1 0xA0 SHL SUB AND CALLER EQ PUSH2 0x19ED JUMPI PUSH1 0x40 MLOAD PUSH3 0x461BCD PUSH1 0xE5 SHL DUP2 MSTORE PUSH1 0x4 ADD PUSH2 0xEB4 SWAP1 PUSH2 0x3CAA JUMP JUMPDEST PUSH1 0x25 SSTORE JUMP JUMPDEST PUSH1 0x0 DUP1 PUSH1 0x0 DUP1 PUSH1 0x0 DUP1 PUSH1 0x0 DUP1 PUSH1 0x0 PUSH1 0xB PUSH1 0x0 SWAP1 SLOAD SWAP1 PUSH2 0x100 EXP SWAP1 DIV PUSH1 0xFF AND PUSH1 0x25 SLOAD PUSH1 0x24 SLOAD PUSH1 0xC SLOAD PUSH1 0xD SLOAD PUSH2 0x1A24 PUSH2 0x2BC3 JUMP JUMPDEST PUSH1 0x8 SLOAD SWAP6 SWAP16 SWAP5 SWAP15 POP SWAP3 SWAP13 POP SWAP1 SWAP11 POP SWAP9 POP SWAP7 POP PUSH1 0xFF DUP1 DUP4 AND SWAP7 POP PUSH2 0x100 DUP4 DIV DUP2 AND SWAP6 POP PUSH3 0x10000 SWAP1 SWAP3 DIV SWAP1 SWAP2 AND SWAP3 POP SWAP1 POP JUMP JUMPDEST PUSH1 0x1 PUSH1 0x1 PUSH1 0xA0 SHL SUB DUP2 AND PUSH1 0x0 SWAP1 DUP2 MSTORE PUSH1 0x5 PUSH1 0x20 MSTORE PUSH1 0x40 DUP2 KECCAK256 SLOAD PUSH1 0xFF AND ISZERO PUSH2 0x1A96 JUMPI POP PUSH1 0x1 PUSH1 0x1 PUSH1 0xA0 SHL SUB DUP2 AND PUSH1 0x0 SWAP1 DUP2 MSTORE PUSH1 0x2 PUSH1 0x20 MSTORE PUSH1 0x40 SWAP1 KECCAK256 SLOAD PUSH2 0x1396 JUMP JUMPDEST PUSH1 0x1 PUSH1 0x1 PUSH1 0xA0 SHL SUB DUP3 AND PUSH1 0x0 SWAP1 DUP2 MSTORE PUSH1 0x1 PUSH1 0x20 MSTORE PUSH1 0x40 SWAP1 KECCAK256 SLOAD PUSH2 0x1060 SWAP1 PUSH2 0x1315 JUMP JUMPDEST PUSH1 0x0 SLOAD PUSH1 0x1 PUSH1 0x1 PUSH1 0xA0 SHL SUB AND CALLER EQ PUSH2 0x1AE2 JUMPI PUSH1 0x40 MLOAD PUSH3 0x461BCD PUSH1 0xE5 SHL DUP2 MSTORE PUSH1 0x4 ADD PUSH2 0xEB4 SWAP1 PUSH2 0x3CAA JUMP JUMPDEST PUSH1 0x1F DUP1 SLOAD PUSH1 0x1 PUSH1 0x1 PUSH1 0xA0 SHL SUB NOT AND PUSH1 0x1 PUSH1 0x1 PUSH1 0xA0 SHL SUB SWAP3 SWAP1 SWAP3 AND SWAP2 SWAP1 SWAP2 OR SWAP1 SSTORE JUMP JUMPDEST PUSH1 0x0 SLOAD PUSH1 0x1 PUSH1 0x1 PUSH1 0xA0 SHL SUB AND CALLER EQ PUSH2 0x1B2E JUMPI PUSH1 0x40 MLOAD PUSH3 0x461BCD PUSH1 0xE5 SHL DUP2 MSTORE PUSH1 0x4 ADD PUSH2 0xEB4 SWAP1 PUSH2 0x3CAA JUMP JUMPDEST PUSH1 0x26 SSTORE JUMP JUMPDEST PUSH1 0x60 PUSH1 0xF DUP1 SLOAD PUSH2 0xF81 SWAP1 PUSH2 0x3D89 JUMP JUMPDEST CALLER PUSH1 0x0 SWAP1 DUP2 MSTORE PUSH1 0x3 PUSH1 0x20 SWAP1 DUP2 MSTORE PUSH1 0x40 DUP1 DUP4 KECCAK256 PUSH1 0x1 PUSH1 0x1 PUSH1 0xA0 SHL SUB DUP7 AND DUP5 MSTORE SWAP1 SWAP2 MSTORE DUP2 KECCAK256 SLOAD DUP3 GT ISZERO PUSH2 0x1BC3 JUMPI PUSH1 0x40 MLOAD PUSH3 0x461BCD PUSH1 0xE5 SHL DUP2 MSTORE PUSH1 0x20 PUSH1 0x4 DUP3 ADD MSTORE PUSH1 0x25 PUSH1 0x24 DUP3 ADD MSTORE PUSH32 0x45524332303A2064656372656173656420616C6C6F77616E63652062656C6F77 PUSH1 0x44 DUP3 ADD MSTORE PUSH5 0x207A65726F PUSH1 0xD8 SHL PUSH1 0x64 DUP3 ADD MSTORE PUSH1 0x84 ADD PUSH2 0xEB4 JUMP JUMPDEST CALLER PUSH1 0x0 DUP2 DUP2 MSTORE PUSH1 0x3 PUSH1 0x20 SWAP1 DUP2 MSTORE PUSH1 0x40 DUP1 DUP4 KECCAK256 PUSH1 0x1 PUSH1 0x1 PUSH1 0xA0 SHL SUB DUP9 AND DUP5 MSTORE SWAP1 SWAP2 MSTORE SWAP1 KECCAK256 SLOAD PUSH2 0x105C SWAP2 SWAP1 DUP6 SWAP1 PUSH2 0x12AB SWAP1 DUP7 SWAP1 PUSH2 0x3D72 JUMP JUMPDEST PUSH1 0x0 SLOAD PUSH1 0x1 PUSH1 0x1 PUSH1 0xA0 SHL SUB AND CALLER EQ PUSH2 0x1C23 JUMPI PUSH1 0x40 MLOAD PUSH3 0x461BCD PUSH1 0xE5 SHL DUP2 MSTORE PUSH1 0x4 ADD PUSH2 0xEB4 SWAP1 PUSH2 0x3CAA JUMP JUMPDEST PUSH1 0x11 SWAP2 SWAP1 SWAP2 SSTORE PUSH1 0x10 SSTORE JUMP JUMPDEST PUSH1 0x0 PUSH2 0x105C CALLER DUP5 DUP5 PUSH2 0x2402 JUMP JUMPDEST PUSH1 0x0 SLOAD PUSH1 0x1 PUSH1 0x1 PUSH1 0xA0 SHL SUB AND CALLER EQ PUSH2 0x1C65 JUMPI PUSH1 0x40 MLOAD PUSH3 0x461BCD PUSH1 0xE5 SHL DUP2 MSTORE PUSH1 0x4 ADD PUSH2 0xEB4 SWAP1 PUSH2 0x3CAA JUMP JUMPDEST PUSH1 0x0 PUSH2 0x1C70 ADDRESS PUSH2 0x1A56 JUMP JUMPDEST SWAP1 POP PUSH1 0x25 SLOAD DUP2 LT PUSH2 0x1C8D JUMPI PUSH1 0x1 PUSH1 0x25 SLOAD PUSH2 0x1C8A SWAP2 SWAP1 PUSH2 0x3D72 JUMP JUMPDEST SWAP1 POP JUMPDEST DUP2 ISZERO DUP1 PUSH2 0x1C99 JUMPI POP DUP1 DUP3 GT JUMPDEST ISZERO PUSH2 0x1CA2 JUMPI DUP1 SWAP2 POP JUMPDEST PUSH2 0x15C1 DUP3 PUSH2 0x2DB1 JUMP JUMPDEST PUSH1 0x0 SLOAD PUSH1 0x1 PUSH1 0x1 PUSH1 0xA0 SHL SUB AND CALLER EQ PUSH2 0x1CD5 JUMPI PUSH1 0x40 MLOAD PUSH3 0x461BCD PUSH1 0xE5 SHL DUP2 MSTORE PUSH1 0x4 ADD PUSH2 0xEB4 SWAP1 PUSH2 0x3CAA JUMP JUMPDEST PUSH2 0x3E8 DUP2 PUSH1 0xC SLOAD PUSH2 0x1CE6 SWAP2 SWAP1 PUSH2 0x3D53 JUMP JUMPDEST PUSH2 0x1CF0 SWAP2 SWAP1 PUSH2 0x3D33 JUMP JUMPDEST PUSH1 0x25 SSTORE POP JUMP JUMPDEST PUSH1 0x0 SLOAD PUSH1 0x1 PUSH1 0x1 PUSH1 0xA0 SHL SUB AND CALLER EQ PUSH2 0x1D20 JUMPI PUSH1 0x40 MLOAD PUSH3 0x461BCD PUSH1 0xE5 SHL DUP2 MSTORE PUSH1 0x4 ADD PUSH2 0xEB4 SWAP1 PUSH2 0x3CAA JUMP JUMPDEST PUSH1 0x23 DUP1 SLOAD DUP3 ISZERO ISZERO PUSH2 0x100 MUL PUSH2 0xFF00 NOT SWAP1 SWAP2 AND OR SWAP1 SSTORE PUSH1 0x40 MLOAD PUSH32 0x53726DFCAF90650AA7EB35524F4D3220F07413C8D6CB404CC8C18BF5591BC159 SWAP1 PUSH2 0x1D69 SWAP1 DUP4 ISZERO ISZERO DUP2 MSTORE PUSH1 0x20 ADD SWAP1 JUMP JUMPDEST PUSH1 0x40 MLOAD DUP1 SWAP2 SUB SWAP1 LOG1 POP JUMP JUMPDEST PUSH1 0x0 SLOAD PUSH1 0x1 PUSH1 0x1 PUSH1 0xA0 SHL SUB AND CALLER EQ PUSH2 0x1D9E JUMPI PUSH1 0x40 MLOAD PUSH3 0x461BCD PUSH1 0xE5 SHL DUP2 MSTORE PUSH1 0x4 ADD PUSH2 0xEB4 SWAP1 PUSH2 0x3CAA JUMP JUMPDEST PUSH1 0x1C DUP1 SLOAD PUSH1 0x1 PUSH1 0x1 PUSH1 0xA0 SHL SUB NOT AND PUSH1 0x1 PUSH1 0x1 PUSH1 0xA0 SHL SUB SWAP3 SWAP1 SWAP3 AND SWAP2 SWAP1 SWAP2 OR SWAP1 SSTORE JUMP JUMPDEST PUSH1 0x0 SLOAD PUSH1 0x1 PUSH1 0x1 PUSH1 0xA0 SHL SUB AND CALLER EQ PUSH2 0x1DEA JUMPI PUSH1 0x40 MLOAD PUSH3 0x461BCD PUSH1 0xE5 SHL DUP2 MSTORE PUSH1 0x4 ADD PUSH2 0xEB4 SWAP1 PUSH2 0x3CAA JUMP JUMPDEST PUSH1 0x0 SLOAD PUSH1 0x1 PUSH1 0x1 PUSH1 0xA0 SHL SUB AND CALLER EQ DUP1 PUSH2 0x1E0B JUMPI POP CALLER PUSH1 0x1 PUSH1 0x1 PUSH1 0xA0 SHL SUB DUP4 AND EQ JUMPDEST PUSH2 0x1E50 JUMPI PUSH1 0x40 MLOAD PUSH3 0x461BCD PUSH1 0xE5 SHL DUP2 MSTORE PUSH1 0x20 PUSH1 0x4 DUP3 ADD MSTORE PUSH1 0x16 PUSH1 0x24 DUP3 ADD MSTORE PUSH22 0x2737BA1030BABA3437B934BD32B2103A3790313AB937 PUSH1 0x51 SHL PUSH1 0x44 DUP3 ADD MSTORE PUSH1 0x64 ADD PUSH2 0xEB4 JUMP JUMPDEST PUSH1 0x0 PUSH2 0x1E5A PUSH2 0x2BC3 JUMP JUMPDEST PUSH2 0x1E64 SWAP1 DUP4 PUSH2 0x3D53 JUMP JUMPDEST PUSH1 0x1 PUSH1 0x1 PUSH1 0xA0 SHL SUB DUP5 AND PUSH1 0x0 SWAP1 DUP2 MSTORE PUSH1 0x1 PUSH1 0x20 MSTORE PUSH1 0x40 SWAP1 KECCAK256 SLOAD SWAP1 SWAP2 POP PUSH2 0x1E8B SWAP1 DUP3 SWAP1 PUSH2 0x3D72 JUMP JUMPDEST PUSH1 0x1 PUSH1 0x1 PUSH1 0xA0 SHL SUB DUP5 AND PUSH1 0x0 SWAP1 DUP2 MSTORE PUSH1 0x1 PUSH1 0x20 SWAP1 DUP2 MSTORE PUSH1 0x40 DUP1 DUP4 KECCAK256 SWAP4 SWAP1 SWAP4 SSTORE PUSH1 0x5 SWAP1 MSTORE KECCAK256 SLOAD PUSH1 0xFF AND ISZERO PUSH2 0x1EF6 JUMPI PUSH1 0x1 PUSH1 0x1 PUSH1 0xA0 SHL SUB DUP4 AND PUSH1 0x0 SWAP1 DUP2 MSTORE PUSH1 0x2 PUSH1 0x20 MSTORE PUSH1 0x40 SWAP1 KECCAK256 SLOAD PUSH2 0x1EDC SWAP1 DUP4 SWAP1 PUSH2 0x3D72 JUMP JUMPDEST PUSH1 0x1 PUSH1 0x1 PUSH1 0xA0 SHL SUB DUP5 AND PUSH1 0x0 SWAP1 DUP2 MSTORE PUSH1 0x2 PUSH1 0x20 MSTORE PUSH1 0x40 SWAP1 KECCAK256 SSTORE JUMPDEST PUSH1 0x29 SLOAD PUSH1 0x1 PUSH1 0x1 PUSH1 0xA0 SHL SUB AND PUSH1 0x0 SWAP1 DUP2 MSTORE PUSH1 0x5 PUSH1 0x20 MSTORE PUSH1 0x40 SWAP1 KECCAK256 SLOAD PUSH1 0xFF AND ISZERO PUSH2 0x1F5B JUMPI PUSH1 0x29 SLOAD PUSH1 0x1 PUSH1 0x1 PUSH1 0xA0 SHL SUB AND PUSH1 0x0 SWAP1 DUP2 MSTORE PUSH1 0x2 PUSH1 0x20 MSTORE PUSH1 0x40 SWAP1 KECCAK256 SLOAD PUSH2 0x1F3F SWAP1 DUP4 SWAP1 PUSH2 0x3D1B JUMP JUMPDEST PUSH1 0x29 SLOAD PUSH1 0x1 PUSH1 0x1 PUSH1 0xA0 SHL SUB AND PUSH1 0x0 SWAP1 DUP2 MSTORE PUSH1 0x2 PUSH1 0x20 MSTORE PUSH1 0x40 SWAP1 KECCAK256 SSTORE JUMPDEST PUSH1 0x29 SLOAD PUSH1 0x1 PUSH1 0x1 PUSH1 0xA0 SHL SUB AND PUSH1 0x0 SWAP1 DUP2 MSTORE PUSH1 0x1 PUSH1 0x20 MSTORE PUSH1 0x40 SWAP1 KECCAK256 SLOAD PUSH2 0x1F81 SWAP1 DUP3 SWAP1 PUSH2 0x3D1B JUMP JUMPDEST PUSH1 0x29 DUP1 SLOAD PUSH1 0x1 PUSH1 0x1 PUSH1 0xA0 SHL SUB SWAP1 DUP2 AND PUSH1 0x0 SWAP1 DUP2 MSTORE PUSH1 0x1 PUSH1 0x20 SWAP1 DUP2 MSTORE PUSH1 0x40 SWAP2 DUP3 SWAP1 KECCAK256 SWAP5 SWAP1 SWAP5 SSTORE SWAP2 SLOAD SWAP2 MLOAD DUP6 DUP2 MSTORE SWAP2 DUP2 AND SWAP3 SWAP1 DUP7 AND SWAP2 PUSH1 0x0 DUP1 MLOAD PUSH1 0x20 PUSH2 0x3E0B DUP4 CODECOPY DUP2 MLOAD SWAP2 MSTORE SWAP2 ADD JUMPDEST PUSH1 0x40 MLOAD DUP1 SWAP2 SUB SWAP1 LOG3 POP POP POP JUMP JUMPDEST PUSH1 0x0 SLOAD PUSH1 0x1 PUSH1 0x1 PUSH1 0xA0 SHL SUB AND CALLER EQ PUSH2 0x1FFE JUMPI PUSH1 0x40 MLOAD PUSH3 0x461BCD PUSH1 0xE5 SHL DUP2 MSTORE PUSH1 0x4 ADD PUSH2 0xEB4 SWAP1 PUSH2 0x3CAA JUMP JUMPDEST PUSH1 0x0 JUMPDEST DUP3 DUP2 LT ISZERO PUSH2 0xF3A JUMPI DUP2 PUSH1 0x6 PUSH1 0x0 DUP7 DUP7 DUP6 DUP2 DUP2 LT PUSH2 0x202E JUMPI PUSH4 0x4E487B71 PUSH1 0xE0 SHL PUSH1 0x0 MSTORE PUSH1 0x32 PUSH1 0x4 MSTORE PUSH1 0x24 PUSH1 0x0 REVERT JUMPDEST SWAP1 POP PUSH1 0x20 MUL ADD PUSH1 0x20 DUP2 ADD SWAP1 PUSH2 0x2043 SWAP2 SWAP1 PUSH2 0x3978 JUMP JUMPDEST PUSH1 0x1 PUSH1 0x1 PUSH1 0xA0 SHL SUB AND DUP2 MSTORE PUSH1 0x20 DUP2 ADD SWAP2 SWAP1 SWAP2 MSTORE PUSH1 0x40 ADD PUSH1 0x0 KECCAK256 DUP1 SLOAD PUSH1 0xFF NOT AND SWAP2 ISZERO ISZERO SWAP2 SWAP1 SWAP2 OR SWAP1 SSTORE PUSH2 0x2074 DUP2 PUSH2 0x3DC4 JUMP JUMPDEST SWAP1 POP PUSH2 0x2001 JUMP JUMPDEST PUSH1 0x0 SLOAD PUSH1 0x1 PUSH1 0x1 PUSH1 0xA0 SHL SUB AND CALLER EQ PUSH2 0x20A5 JUMPI PUSH1 0x40 MLOAD PUSH3 0x461BCD PUSH1 0xE5 SHL DUP2 MSTORE PUSH1 0x4 ADD PUSH2 0xEB4 SWAP1 PUSH2 0x3CAA JUMP JUMPDEST PUSH1 0x27 SSTORE JUMP JUMPDEST PUSH1 0x0 SLOAD PUSH1 0x1 PUSH1 0x1 PUSH1 0xA0 SHL SUB AND CALLER EQ PUSH2 0x20D4 JUMPI PUSH1 0x40 MLOAD PUSH3 0x461BCD PUSH1 0xE5 SHL DUP2 MSTORE PUSH1 0x4 ADD PUSH2 0xEB4 SWAP1 PUSH2 0x3CAA JUMP JUMPDEST PUSH1 0x0 JUMPDEST DUP3 DUP2 LT ISZERO PUSH2 0xF3A JUMPI DUP2 PUSH1 0x4 PUSH1 0x0 DUP7 DUP7 DUP6 DUP2 DUP2 LT PUSH2 0x2104 JUMPI PUSH4 0x4E487B71 PUSH1 0xE0 SHL PUSH1 0x0 MSTORE PUSH1 0x32 PUSH1 0x4 MSTORE PUSH1 0x24 PUSH1 0x0 REVERT JUMPDEST SWAP1 POP PUSH1 0x20 MUL ADD PUSH1 0x20 DUP2 ADD SWAP1 PUSH2 0x2119 SWAP2 SWAP1 PUSH2 0x3978 JUMP JUMPDEST PUSH1 0x1 PUSH1 0x1 PUSH1 0xA0 SHL SUB AND DUP2 MSTORE PUSH1 0x20 DUP2 ADD SWAP2 SWAP1 SWAP2 MSTORE PUSH1 0x40 ADD PUSH1 0x0 KECCAK256 DUP1 SLOAD PUSH1 0xFF NOT AND SWAP2 ISZERO ISZERO SWAP2 SWAP1 SWAP2 OR SWAP1 SSTORE PUSH2 0x214A DUP2 PUSH2 0x3DC4 JUMP JUMPDEST SWAP1 POP PUSH2 0x20D7 JUMP JUMPDEST PUSH1 0x0 SLOAD PUSH1 0x1 PUSH1 0x1 PUSH1 0xA0 SHL SUB AND CALLER EQ PUSH2 0x217B JUMPI PUSH1 0x40 MLOAD PUSH3 0x461BCD PUSH1 0xE5 SHL DUP2 MSTORE PUSH1 0x4 ADD PUSH2 0xEB4 SWAP1 PUSH2 0x3CAA JUMP JUMPDEST PUSH1 0x1 PUSH1 0x1 PUSH1 0xA0 SHL SUB DUP2 AND PUSH2 0x21E0 JUMPI PUSH1 0x40 MLOAD PUSH3 0x461BCD PUSH1 0xE5 SHL DUP2 MSTORE PUSH1 0x20 PUSH1 0x4 DUP3 ADD MSTORE PUSH1 0x26 PUSH1 0x24 DUP3 ADD MSTORE PUSH32 0x4F776E61626C653A206E6577206F776E657220697320746865207A65726F2061 PUSH1 0x44 DUP3 ADD MSTORE PUSH6 0x646472657373 PUSH1 0xD0 SHL PUSH1 0x64 DUP3 ADD MSTORE PUSH1 0x84 ADD PUSH2 0xEB4 JUMP JUMPDEST PUSH1 0x0 DUP1 SLOAD PUSH1 0x40 MLOAD PUSH1 0x1 PUSH1 0x1 PUSH1 0xA0 SHL SUB DUP1 DUP6 AND SWAP4 SWAP3 AND SWAP2 PUSH32 0x8BE0079C531659141344CD1FD0A4F28419497F9722A3DAAFE3B4186F6B6457E0 SWAP2 LOG3 PUSH1 0x0 DUP1 SLOAD PUSH1 0x1 PUSH1 0x1 PUSH1 0xA0 SHL SUB NOT AND PUSH1 0x1 PUSH1 0x1 PUSH1 0xA0 SHL SUB SWAP3 SWAP1 SWAP3 AND SWAP2 SWAP1 SWAP2 OR SWAP1 SSTORE JUMP JUMPDEST PUSH1 0x0 SLOAD PUSH1 0x1 PUSH1 0x1 PUSH1 0xA0 SHL SUB AND CALLER EQ DUP1 PUSH2 0x225E JUMPI POP PUSH1 0x19 SLOAD PUSH1 0x1 PUSH1 0x1 PUSH1 0xA0 SHL SUB AND CALLER EQ JUMPDEST PUSH2 0x22AA JUMPI PUSH1 0x40 MLOAD PUSH3 0x461BCD PUSH1 0xE5 SHL DUP2 MSTORE PUSH1 0x20 PUSH1 0x4 DUP3 ADD MSTORE PUSH1 0x1E PUSH1 0x24 DUP3 ADD MSTORE PUSH32 0x4E6F7420617574686F72697A656420746F20706572666F726D20746869730000 PUSH1 0x44 DUP3 ADD MSTORE PUSH1 0x64 ADD PUSH2 0xEB4 JUMP JUMPDEST PUSH1 0x19 SLOAD PUSH1 0x40 MLOAD PUSH1 0x1 PUSH1 0x1 PUSH1 0xA0 SHL SUB SWAP1 SWAP2 AND SWAP1 SELFBALANCE DUP1 ISZERO PUSH2 0x8FC MUL SWAP2 PUSH1 0x0 DUP2 DUP2 DUP2 DUP6 DUP9 DUP9 CALL SWAP4 POP POP POP POP ISZERO DUP1 ISZERO PUSH2 0x22E3 JUMPI RETURNDATASIZE PUSH1 0x0 DUP1 RETURNDATACOPY RETURNDATASIZE PUSH1 0x0 REVERT JUMPDEST POP JUMP JUMPDEST PUSH1 0x1 PUSH1 0x1 PUSH1 0xA0 SHL SUB DUP4 AND PUSH2 0x2348 JUMPI PUSH1 0x40 MLOAD PUSH3 0x461BCD PUSH1 0xE5 SHL DUP2 MSTORE PUSH1 0x20 PUSH1 0x4 DUP3 ADD MSTORE PUSH1 0x24 DUP1 DUP3 ADD MSTORE PUSH32 0x45524332303A20617070726F76652066726F6D20746865207A65726F20616464 PUSH1 0x44 DUP3 ADD MSTORE PUSH4 0x72657373 PUSH1 0xE0 SHL PUSH1 0x64 DUP3 ADD MSTORE PUSH1 0x84 ADD PUSH2 0xEB4 JUMP JUMPDEST PUSH1 0x1 PUSH1 0x1 PUSH1 0xA0 SHL SUB DUP3 AND PUSH2 0x23A9 JUMPI PUSH1 0x40 MLOAD PUSH3 0x461BCD PUSH1 0xE5 SHL DUP2 MSTORE PUSH1 0x20 PUSH1 0x4 DUP3 ADD MSTORE PUSH1 0x22 PUSH1 0x24 DUP3 ADD MSTORE PUSH32 0x45524332303A20617070726F766520746F20746865207A65726F206164647265 PUSH1 0x44 DUP3 ADD MSTORE PUSH2 0x7373 PUSH1 0xF0 SHL PUSH1 0x64 DUP3 ADD MSTORE PUSH1 0x84 ADD PUSH2 0xEB4 JUMP JUMPDEST PUSH1 0x1 PUSH1 0x1 PUSH1 0xA0 SHL SUB DUP4 DUP2 AND PUSH1 0x0 DUP2 DUP2 MSTORE PUSH1 0x3 PUSH1 0x20 SWAP1 DUP2 MSTORE PUSH1 0x40 DUP1 DUP4 KECCAK256 SWAP5 DUP8 AND DUP1 DUP5 MSTORE SWAP5 DUP3 MSTORE SWAP2 DUP3 SWAP1 KECCAK256 DUP6 SWAP1 SSTORE SWAP1 MLOAD DUP5 DUP2 MSTORE PUSH32 0x8C5BE1E5EBEC7D5BD14F71427D1E84F3DD0314C0F7B2291E5B200AC8C7C3B925 SWAP2 ADD PUSH2 0x1FC7 JUMP JUMPDEST PUSH1 0x1 PUSH1 0x1 PUSH1 0xA0 SHL SUB DUP4 AND PUSH1 0x0 SWAP1 DUP2 MSTORE PUSH1 0x6 PUSH1 0x20 MSTORE PUSH1 0x40 SWAP1 KECCAK256 SLOAD PUSH1 0xFF AND ISZERO DUP1 ISZERO PUSH2 0x2444 JUMPI POP PUSH1 0x1 PUSH1 0x1 PUSH1 0xA0 SHL SUB DUP3 AND PUSH1 0x0 SWAP1 DUP2 MSTORE PUSH1 0x6 PUSH1 0x20 MSTORE PUSH1 0x40 SWAP1 KECCAK256 SLOAD PUSH1 0xFF AND ISZERO JUMPDEST PUSH2 0x2490 JUMPI PUSH1 0x40 MLOAD PUSH3 0x461BCD PUSH1 0xE5 SHL DUP2 MSTORE PUSH1 0x20 PUSH1 0x4 DUP3 ADD MSTORE PUSH1 0x1B PUSH1 0x24 DUP3 ADD MSTORE PUSH32 0x54686973206164647265737320697320626C61636B6C69737465640000000000 PUSH1 0x44 DUP3 ADD MSTORE PUSH1 0x64 ADD PUSH2 0xEB4 JUMP JUMPDEST PUSH1 0x1 PUSH1 0x1 PUSH1 0xA0 SHL SUB DUP4 AND PUSH2 0x24F4 JUMPI PUSH1 0x40 MLOAD PUSH3 0x461BCD PUSH1 0xE5 SHL DUP2 MSTORE PUSH1 0x20 PUSH1 0x4 DUP3 ADD MSTORE PUSH1 0x25 PUSH1 0x24 DUP3 ADD MSTORE PUSH32 0x45524332303A207472616E736665722066726F6D20746865207A65726F206164 PUSH1 0x44 DUP3 ADD MSTORE PUSH5 0x6472657373 PUSH1 0xD8 SHL PUSH1 0x64 DUP3 ADD MSTORE PUSH1 0x84 ADD PUSH2 0xEB4 JUMP JUMPDEST PUSH1 0x1 PUSH1 0x1 PUSH1 0xA0 SHL SUB DUP3 AND PUSH2 0x2556 JUMPI PUSH1 0x40 MLOAD PUSH3 0x461BCD PUSH1 0xE5 SHL DUP2 MSTORE PUSH1 0x20 PUSH1 0x4 DUP3 ADD MSTORE PUSH1 0x23 PUSH1 0x24 DUP3 ADD MSTORE PUSH32 0x45524332303A207472616E7366657220746F20746865207A65726F2061646472 PUSH1 0x44 DUP3 ADD MSTORE PUSH3 0x657373 PUSH1 0xE8 SHL PUSH1 0x64 DUP3 ADD MSTORE PUSH1 0x84 ADD PUSH2 0xEB4 JUMP JUMPDEST PUSH1 0x0 SLOAD PUSH1 0x1 PUSH1 0x1 PUSH1 0xA0 SHL SUB DUP4 DUP2 AND SWAP2 AND EQ DUP1 ISZERO SWAP1 PUSH2 0x257D JUMPI POP PUSH1 0x1 PUSH1 0x1 PUSH1 0xA0 SHL SUB DUP3 AND ADDRESS EQ ISZERO JUMPDEST DUP1 ISZERO PUSH2 0x2597 JUMPI POP PUSH1 0x29 SLOAD PUSH1 0x1 PUSH1 0x1 PUSH1 0xA0 SHL SUB DUP4 DUP2 AND SWAP2 AND EQ ISZERO JUMPDEST DUP1 ISZERO PUSH2 0x25D5 JUMPI POP PUSH32 0x0 PUSH1 0x1 PUSH1 0x1 PUSH1 0xA0 SHL SUB AND DUP3 PUSH1 0x1 PUSH1 0x1 PUSH1 0xA0 SHL SUB AND EQ ISZERO JUMPDEST DUP1 ISZERO PUSH2 0x25EF JUMPI POP PUSH1 0x19 SLOAD PUSH1 0x1 PUSH1 0x1 PUSH1 0xA0 SHL SUB DUP4 DUP2 AND SWAP2 AND EQ ISZERO JUMPDEST DUP1 ISZERO PUSH2 0x2609 JUMPI POP PUSH1 0x1F SLOAD PUSH1 0x1 PUSH1 0x1 PUSH1 0xA0 SHL SUB DUP4 DUP2 AND SWAP2 AND EQ ISZERO JUMPDEST ISZERO PUSH2 0x269F JUMPI PUSH1 0x0 PUSH2 0x2619 DUP4 PUSH2 0x1A56 JUMP JUMPDEST PUSH1 0x24 SLOAD SWAP1 SWAP2 POP PUSH2 0x2629 DUP4 DUP4 PUSH2 0x3D1B JUMP JUMPDEST GT ISZERO PUSH2 0x269D JUMPI PUSH1 0x40 MLOAD PUSH3 0x461BCD PUSH1 0xE5 SHL DUP2 MSTORE PUSH1 0x20 PUSH1 0x4 DUP3 ADD MSTORE PUSH1 0x3E PUSH1 0x24 DUP3 ADD MSTORE PUSH32 0x546F74616C20486F6C64696E672069732063757272656E746C79206C696D6974 PUSH1 0x44 DUP3 ADD MSTORE PUSH32 0x65642C20796F752063616E206E6F74206275792074686174206D7563682E0000 PUSH1 0x64 DUP3 ADD MSTORE PUSH1 0x84 ADD PUSH2 0xEB4 JUMP JUMPDEST POP JUMPDEST PUSH1 0x0 SLOAD PUSH1 0x1 PUSH1 0x1 PUSH1 0xA0 SHL SUB DUP5 DUP2 AND SWAP2 AND EQ DUP1 ISZERO SWAP1 PUSH2 0x26CB JUMPI POP PUSH1 0x0 SLOAD PUSH1 0x1 PUSH1 0x1 PUSH1 0xA0 SHL SUB DUP4 DUP2 AND SWAP2 AND EQ ISZERO JUMPDEST DUP1 ISZERO PUSH2 0x26F0 JUMPI POP PUSH1 0x1 PUSH1 0x1 PUSH1 0xA0 SHL SUB DUP4 AND PUSH1 0x0 SWAP1 DUP2 MSTORE PUSH1 0x7 PUSH1 0x20 MSTORE PUSH1 0x40 SWAP1 KECCAK256 SLOAD PUSH1 0xFF AND ISZERO JUMPDEST DUP1 ISZERO PUSH2 0x2715 JUMPI POP PUSH1 0x1 PUSH1 0x1 PUSH1 0xA0 SHL SUB DUP3 AND PUSH1 0x0 SWAP1 DUP2 MSTORE PUSH1 0x7 PUSH1 0x20 MSTORE PUSH1 0x40 SWAP1 KECCAK256 SLOAD PUSH1 0xFF AND ISZERO JUMPDEST ISZERO PUSH2 0x2763 JUMPI PUSH1 0x8 SLOAD PUSH1 0xFF AND PUSH2 0x2763 JUMPI PUSH1 0x40 MLOAD PUSH3 0x461BCD PUSH1 0xE5 SHL DUP2 MSTORE PUSH1 0x20 PUSH1 0x4 DUP3 ADD MSTORE PUSH1 0x14 PUSH1 0x24 DUP3 ADD MSTORE PUSH20 0x151C98591A5B99C81B9BDD081BDC195B881E595D PUSH1 0x62 SHL PUSH1 0x44 DUP3 ADD MSTORE PUSH1 0x64 ADD PUSH2 0xEB4 JUMP JUMPDEST PUSH32 0x0 PUSH1 0x1 PUSH1 0x1 PUSH1 0xA0 SHL SUB AND DUP4 PUSH1 0x1 PUSH1 0x1 PUSH1 0xA0 SHL SUB AND EQ DUP1 ISZERO PUSH2 0x27AB JUMPI POP PUSH1 0x8 SLOAD PUSH2 0x100 SWAP1 DIV PUSH1 0xFF AND JUMPDEST DUP1 ISZERO PUSH2 0x27D0 JUMPI POP PUSH1 0x1 PUSH1 0x1 PUSH1 0xA0 SHL SUB DUP3 AND PUSH1 0x0 SWAP1 DUP2 MSTORE PUSH1 0x4 PUSH1 0x20 MSTORE PUSH1 0x40 SWAP1 KECCAK256 SLOAD PUSH1 0xFF AND ISZERO JUMPDEST DUP1 ISZERO PUSH2 0x27E5 JUMPI POP PUSH1 0x1 PUSH1 0x1 PUSH1 0xA0 SHL SUB DUP3 AND ADDRESS EQ ISZERO JUMPDEST DUP1 ISZERO PUSH2 0x27FF JUMPI POP PUSH1 0x29 SLOAD PUSH1 0x1 PUSH1 0x1 PUSH1 0xA0 SHL SUB DUP4 DUP2 AND SWAP2 AND EQ ISZERO JUMPDEST ISZERO PUSH2 0x28A9 JUMPI PUSH1 0x1 PUSH1 0x1 PUSH1 0xA0 SHL SUB DUP3 AND PUSH1 0x0 SWAP1 DUP2 MSTORE PUSH1 0x9 PUSH1 0x20 MSTORE PUSH1 0x40 SWAP1 KECCAK256 SLOAD TIMESTAMP GT PUSH2 0x2879 JUMPI PUSH1 0x40 MLOAD PUSH3 0x461BCD PUSH1 0xE5 SHL DUP2 MSTORE PUSH1 0x20 PUSH1 0x4 DUP3 ADD MSTORE PUSH1 0x25 PUSH1 0x24 DUP3 ADD MSTORE PUSH32 0x506C65617365207761697420666F7220636F6F6C646F776E206265747765656E PUSH1 0x44 DUP3 ADD MSTORE PUSH5 0x2062757973 PUSH1 0xD8 SHL PUSH1 0x64 DUP3 ADD MSTORE PUSH1 0x84 ADD PUSH2 0xEB4 JUMP JUMPDEST PUSH1 0x8 SLOAD PUSH2 0x288F SWAP1 PUSH3 0x10000 SWAP1 DIV PUSH1 0xFF AND TIMESTAMP PUSH2 0x3D1B JUMP JUMPDEST PUSH1 0x1 PUSH1 0x1 PUSH1 0xA0 SHL SUB DUP4 AND PUSH1 0x0 SWAP1 DUP2 MSTORE PUSH1 0x9 PUSH1 0x20 MSTORE PUSH1 0x40 SWAP1 KECCAK256 SSTORE JUMPDEST PUSH1 0x0 SLOAD PUSH1 0x1 PUSH1 0x1 PUSH1 0xA0 SHL SUB DUP5 DUP2 AND SWAP2 AND EQ DUP1 ISZERO SWAP1 PUSH2 0x28D5 JUMPI POP PUSH1 0x0 SLOAD PUSH1 0x1 PUSH1 0x1 PUSH1 0xA0 SHL SUB DUP4 DUP2 AND SWAP2 AND EQ ISZERO JUMPDEST DUP1 ISZERO PUSH2 0x28FA JUMPI POP PUSH1 0x1 PUSH1 0x1 PUSH1 0xA0 SHL SUB DUP4 AND PUSH1 0x0 SWAP1 DUP2 MSTORE PUSH1 0x7 PUSH1 0x20 MSTORE PUSH1 0x40 SWAP1 KECCAK256 SLOAD PUSH1 0xFF AND ISZERO JUMPDEST DUP1 ISZERO PUSH2 0x291F JUMPI POP PUSH1 0x1 PUSH1 0x1 PUSH1 0xA0 SHL SUB DUP3 AND PUSH1 0x0 SWAP1 DUP2 MSTORE PUSH1 0x7 PUSH1 0x20 MSTORE PUSH1 0x40 SWAP1 KECCAK256 SLOAD PUSH1 0xFF AND ISZERO JUMPDEST ISZERO PUSH2 0x2987 JUMPI PUSH1 0x25 SLOAD DUP2 GT ISZERO PUSH2 0x2987 JUMPI PUSH1 0x40 MLOAD PUSH3 0x461BCD PUSH1 0xE5 SHL DUP2 MSTORE PUSH1 0x20 PUSH1 0x4 DUP3 ADD MSTORE PUSH1 0x28 PUSH1 0x24 DUP3 ADD MSTORE PUSH32 0x5472616E7366657220616D6F756E74206578636565647320746865206D617854 PUSH1 0x44 DUP3 ADD MSTORE PUSH8 0x3C20B6B7BAB73A17 PUSH1 0xC1 SHL PUSH1 0x64 DUP3 ADD MSTORE PUSH1 0x84 ADD PUSH2 0xEB4 JUMP JUMPDEST PUSH1 0x0 PUSH2 0x2992 ADDRESS PUSH2 0x1A56 JUMP JUMPDEST SWAP1 POP PUSH1 0x25 SLOAD DUP2 LT PUSH2 0x29AF JUMPI PUSH1 0x1 PUSH1 0x25 SLOAD PUSH2 0x29AC SWAP2 SWAP1 PUSH2 0x3D72 JUMP JUMPDEST SWAP1 POP JUMPDEST PUSH1 0x26 SLOAD DUP2 LT DUP1 ISZERO SWAP1 DUP2 SWAP1 PUSH2 0x29C6 JUMPI POP PUSH1 0x23 SLOAD PUSH1 0xFF AND ISZERO JUMPDEST DUP1 ISZERO PUSH2 0x2A04 JUMPI POP PUSH32 0x0 PUSH1 0x1 PUSH1 0x1 PUSH1 0xA0 SHL SUB AND DUP6 PUSH1 0x1 PUSH1 0x1 PUSH1 0xA0 SHL SUB AND EQ ISZERO JUMPDEST DUP1 ISZERO PUSH2 0x2A17 JUMPI POP PUSH1 0x23 SLOAD PUSH2 0x100 SWAP1 DIV PUSH1 0xFF AND JUMPDEST ISZERO PUSH2 0x2A2A JUMPI PUSH1 0x26 SLOAD SWAP2 POP PUSH2 0x2A2A DUP3 PUSH2 0x2DB1 JUMP JUMPDEST PUSH1 0x23 SLOAD PUSH1 0xFF AND ISZERO DUP1 ISZERO PUSH2 0x2A6F JUMPI POP PUSH32 0x0 PUSH1 0x1 PUSH1 0x1 PUSH1 0xA0 SHL SUB AND DUP6 PUSH1 0x1 PUSH1 0x1 PUSH1 0xA0 SHL SUB AND EQ ISZERO JUMPDEST ISZERO PUSH2 0x2AAE JUMPI PUSH1 0x10 SLOAD PUSH1 0x1F SLOAD PUSH1 0x12 SLOAD PUSH2 0x2A91 SWAP3 SWAP2 PUSH1 0x1 PUSH1 0x1 PUSH1 0xA0 SHL SUB AND SWAP1 PUSH2 0x2BE6 JUMP JUMPDEST PUSH1 0x11 SLOAD PUSH1 0x19 SLOAD PUSH1 0x13 SLOAD PUSH2 0x2AAE SWAP3 SWAP2 PUSH1 0x1 PUSH1 0x1 PUSH1 0xA0 SHL SUB AND SWAP1 PUSH2 0x2BE6 JUMP JUMPDEST POP POP PUSH1 0x1 PUSH1 0x1 PUSH1 0xA0 SHL SUB DUP4 AND PUSH1 0x0 SWAP1 DUP2 MSTORE PUSH1 0x4 PUSH1 0x20 MSTORE PUSH1 0x40 SWAP1 KECCAK256 SLOAD PUSH1 0x1 SWAP1 PUSH1 0xFF AND DUP1 PUSH2 0x2AF2 JUMPI POP PUSH1 0x1 PUSH1 0x1 PUSH1 0xA0 SHL SUB DUP4 AND PUSH1 0x0 SWAP1 DUP2 MSTORE PUSH1 0x4 PUSH1 0x20 MSTORE PUSH1 0x40 SWAP1 KECCAK256 SLOAD PUSH1 0xFF AND JUMPDEST ISZERO PUSH2 0x2AFB JUMPI POP PUSH1 0x0 JUMPDEST DUP1 PUSH2 0x2B08 JUMPI PUSH2 0x2B08 PUSH2 0x2E40 JUMP JUMPDEST PUSH1 0x0 DUP1 PUSH1 0x0 DUP1 PUSH1 0x0 DUP1 PUSH1 0x0 DUP1 PUSH1 0x0 PUSH2 0x2B54 DUP12 PUSH32 0x0 PUSH1 0x1 PUSH1 0x1 PUSH1 0xA0 SHL SUB AND DUP15 PUSH1 0x1 PUSH1 0x1 PUSH1 0xA0 SHL SUB AND EQ PUSH2 0x2C22 JUMP JUMPDEST SWAP9 POP SWAP9 POP SWAP9 POP SWAP9 POP SWAP9 POP SWAP9 POP SWAP9 POP SWAP9 POP SWAP9 POP PUSH2 0x2B74 DUP14 DUP14 DUP14 DUP13 DUP11 DUP14 PUSH2 0x2E80 JUMP JUMPDEST PUSH2 0x2B7E DUP8 DUP3 PUSH2 0x303C JUMP JUMPDEST DUP10 PUSH2 0x2B90 JUMPI PUSH2 0x2B8B PUSH2 0x3062 JUMP JUMPDEST PUSH2 0x2BB4 JUMP JUMPDEST PUSH2 0x2B99 DUP6 PUSH2 0x308B JUMP JUMPDEST PUSH2 0x2BA2 DUP5 PUSH2 0x30A2 JUMP JUMPDEST PUSH2 0x2BAB DUP4 PUSH2 0x30B9 JUMP JUMPDEST PUSH2 0x2BB4 DUP3 PUSH2 0x30C3 JUMP JUMPDEST POP POP POP POP POP POP POP POP POP POP POP POP POP JUMP JUMPDEST PUSH1 0x0 DUP1 PUSH1 0x0 PUSH2 0x2BD0 PUSH2 0x30DA JUMP JUMPDEST SWAP1 SWAP3 POP SWAP1 POP PUSH2 0x2BDF DUP2 DUP4 PUSH2 0x3D33 JUMP JUMPDEST SWAP3 POP POP POP SWAP1 JUMP JUMPDEST DUP3 PUSH2 0x2BF0 JUMPI PUSH2 0x13D0 JUMP JUMPDEST PUSH1 0x25 SLOAD DUP4 GT ISZERO PUSH2 0x2C00 JUMPI PUSH1 0x25 SLOAD SWAP3 POP JUMPDEST PUSH2 0x2C09 DUP3 PUSH2 0x1A56 JUMP JUMPDEST PUSH2 0x2C13 DUP3 DUP6 PUSH2 0x3D1B JUMP JUMPDEST GT PUSH2 0x13D0 JUMPI PUSH2 0x13D0 DUP3 DUP5 PUSH2 0x3298 JUMP JUMPDEST PUSH1 0x0 DUP1 PUSH1 0x0 DUP1 PUSH1 0x0 DUP1 PUSH1 0x0 DUP1 PUSH1 0x0 DUP1 DUP11 PUSH2 0x2C3D JUMPI PUSH1 0x64 PUSH2 0x2C41 JUMP JUMPDEST PUSH1 0x27 SLOAD JUMPDEST SWAP1 POP PUSH1 0x22 SLOAD PUSH1 0x1A SLOAD DUP14 PUSH2 0x2C54 SWAP2 SWAP1 PUSH2 0x3D53 JUMP JUMPDEST PUSH2 0x2C5E SWAP2 SWAP1 PUSH2 0x3D33 JUMP JUMPDEST SWAP6 POP PUSH1 0x22 SLOAD PUSH1 0x64 PUSH2 0x2C6F SWAP2 SWAP1 PUSH2 0x3D53 JUMP JUMPDEST DUP2 PUSH1 0x17 SLOAD DUP15 PUSH2 0x2C7E SWAP2 SWAP1 PUSH2 0x3D53 JUMP JUMPDEST PUSH2 0x2C88 SWAP2 SWAP1 PUSH2 0x3D53 JUMP JUMPDEST PUSH2 0x2C92 SWAP2 SWAP1 PUSH2 0x3D33 JUMP JUMPDEST SWAP5 POP PUSH1 0x22 SLOAD PUSH1 0x64 PUSH2 0x2CA3 SWAP2 SWAP1 PUSH2 0x3D53 JUMP JUMPDEST DUP2 PUSH1 0x20 SLOAD DUP15 PUSH2 0x2CB2 SWAP2 SWAP1 PUSH2 0x3D53 JUMP JUMPDEST PUSH2 0x2CBC SWAP2 SWAP1 PUSH2 0x3D53 JUMP JUMPDEST PUSH2 0x2CC6 SWAP2 SWAP1 PUSH2 0x3D33 JUMP JUMPDEST SWAP4 POP PUSH1 0x22 SLOAD PUSH1 0x64 PUSH2 0x2CD7 SWAP2 SWAP1 PUSH2 0x3D53 JUMP JUMPDEST DUP2 PUSH1 0x1D SLOAD DUP15 PUSH2 0x2CE6 SWAP2 SWAP1 PUSH2 0x3D53 JUMP JUMPDEST PUSH2 0x2CF0 SWAP2 SWAP1 PUSH2 0x3D53 JUMP JUMPDEST PUSH2 0x2CFA SWAP2 SWAP1 PUSH2 0x3D33 JUMP JUMPDEST SWAP3 POP PUSH1 0x22 SLOAD PUSH1 0x64 PUSH2 0x2D0B SWAP2 SWAP1 PUSH2 0x3D53 JUMP JUMPDEST DUP2 PUSH1 0x14 SLOAD DUP15 PUSH2 0x2D1A SWAP2 SWAP1 PUSH2 0x3D53 JUMP JUMPDEST PUSH2 0x2D24 SWAP2 SWAP1 PUSH2 0x3D53 JUMP JUMPDEST PUSH2 0x2D2E SWAP2 SWAP1 PUSH2 0x3D33 JUMP JUMPDEST SWAP2 POP DUP2 DUP4 DUP6 PUSH2 0x2D3D DUP9 DUP11 PUSH2 0x3D1B JUMP JUMPDEST PUSH2 0x2D47 SWAP2 SWAP1 PUSH2 0x3D1B JUMP JUMPDEST PUSH2 0x2D51 SWAP2 SWAP1 PUSH2 0x3D1B JUMP JUMPDEST PUSH2 0x2D5B SWAP2 SWAP1 PUSH2 0x3D1B JUMP JUMPDEST PUSH2 0x2D65 SWAP1 DUP14 PUSH2 0x3D72 JUMP JUMPDEST SWAP7 POP PUSH2 0x2D6F PUSH2 0x2BC3 JUMP JUMPDEST PUSH2 0x2D79 SWAP1 DUP4 PUSH2 0x3D53 JUMP JUMPDEST SWAP8 POP PUSH2 0x2D83 PUSH2 0x2BC3 JUMP JUMPDEST PUSH2 0x2D8D SWAP1 DUP14 PUSH2 0x3D53 JUMP JUMPDEST SWAP10 POP PUSH2 0x2D97 PUSH2 0x2BC3 JUMP JUMPDEST PUSH2 0x2DA1 SWAP1 DUP9 PUSH2 0x3D53 JUMP JUMPDEST SWAP9 POP POP SWAP3 SWAP6 SWAP9 POP SWAP3 SWAP6 SWAP9 POP SWAP3 SWAP6 SWAP9 JUMP JUMPDEST PUSH1 0x23 DUP1 SLOAD PUSH1 0xFF NOT AND PUSH1 0x1 OR SWAP1 SSTORE PUSH1 0x0 PUSH2 0x2DCB PUSH1 0x2 DUP4 PUSH2 0x3D33 JUMP JUMPDEST SWAP1 POP SELFBALANCE PUSH2 0x2DD7 DUP3 PUSH2 0x33C6 JUMP JUMPDEST PUSH1 0x0 PUSH2 0x2DE3 DUP3 SELFBALANCE PUSH2 0x3D72 JUMP JUMPDEST SWAP1 POP PUSH2 0x2DEF DUP4 DUP3 PUSH2 0x35A9 JUMP JUMPDEST PUSH1 0x40 DUP1 MLOAD DUP6 DUP2 MSTORE PUSH1 0x20 DUP2 ADD DUP6 SWAP1 MSTORE SWAP1 DUP2 ADD DUP3 SWAP1 MSTORE PUSH32 0x17BBFB9A6069321B6DED73BD96327C9E6B7212A5CD51FF219CD61370ACAFB561 SWAP1 PUSH1 0x60 ADD PUSH1 0x40 MLOAD DUP1 SWAP2 SUB SWAP1 LOG1 POP POP PUSH1 0x23 DUP1 SLOAD PUSH1 0xFF NOT AND SWAP1 SSTORE POP POP JUMP JUMPDEST PUSH1 0x1A SLOAD PUSH1 0x1B SSTORE PUSH1 0x17 SLOAD PUSH1 0x18 SSTORE PUSH1 0x20 SLOAD PUSH1 0x21 SSTORE PUSH1 0x1D SLOAD PUSH1 0x1E SSTORE PUSH1 0x14 SLOAD PUSH1 0x15 SSTORE PUSH2 0x2E7E PUSH1 0x0 DUP1 DUP1 DUP1 DUP1 PUSH1 0x1A SWAP5 SWAP1 SWAP5 SSTORE PUSH1 0x17 SWAP3 SWAP1 SWAP3 SSTORE PUSH1 0x20 SSTORE PUSH1 0x1D SSTORE PUSH1 0x14 SSTORE JUMP JUMPDEST JUMP JUMPDEST PUSH1 0x1 PUSH1 0x1 PUSH1 0xA0 SHL SUB DUP7 AND PUSH1 0x0 SWAP1 DUP2 MSTORE PUSH1 0x1 PUSH1 0x20 MSTORE PUSH1 0x40 SWAP1 KECCAK256 SLOAD PUSH2 0x2EA4 SWAP1 DUP5 SWAP1 PUSH2 0x3D72 JUMP JUMPDEST PUSH1 0x1 PUSH1 0x1 PUSH1 0xA0 SHL SUB DUP8 AND PUSH1 0x0 SWAP1 DUP2 MSTORE PUSH1 0x1 PUSH1 0x20 SWAP1 DUP2 MSTORE PUSH1 0x40 DUP1 DUP4 KECCAK256 SWAP4 SWAP1 SWAP4 SSTORE PUSH1 0x5 SWAP1 MSTORE KECCAK256 SLOAD PUSH1 0xFF AND ISZERO PUSH2 0x2F0F JUMPI PUSH1 0x1 PUSH1 0x1 PUSH1 0xA0 SHL SUB DUP7 AND PUSH1 0x0 SWAP1 DUP2 MSTORE PUSH1 0x2 PUSH1 0x20 MSTORE PUSH1 0x40 SWAP1 KECCAK256 SLOAD PUSH2 0x2EF5 SWAP1 DUP6 SWAP1 PUSH2 0x3D72 JUMP JUMPDEST PUSH1 0x1 PUSH1 0x1 PUSH1 0xA0 SHL SUB DUP8 AND PUSH1 0x0 SWAP1 DUP2 MSTORE PUSH1 0x2 PUSH1 0x20 MSTORE PUSH1 0x40 SWAP1 KECCAK256 SSTORE JUMPDEST PUSH1 0x1 PUSH1 0x1 PUSH1 0xA0 SHL SUB DUP6 AND PUSH1 0x0 SWAP1 DUP2 MSTORE PUSH1 0x5 PUSH1 0x20 MSTORE PUSH1 0x40 SWAP1 KECCAK256 SLOAD PUSH1 0xFF AND ISZERO PUSH2 0x2F6E JUMPI PUSH1 0x1 PUSH1 0x1 PUSH1 0xA0 SHL SUB DUP6 AND PUSH1 0x0 SWAP1 DUP2 MSTORE PUSH1 0x2 PUSH1 0x20 MSTORE PUSH1 0x40 SWAP1 KECCAK256 SLOAD PUSH2 0x2F54 SWAP1 DUP4 SWAP1 PUSH2 0x3D1B JUMP JUMPDEST PUSH1 0x1 PUSH1 0x1 PUSH1 0xA0 SHL SUB DUP7 AND PUSH1 0x0 SWAP1 DUP2 MSTORE PUSH1 0x2 PUSH1 0x20 MSTORE PUSH1 0x40 SWAP1 KECCAK256 SSTORE JUMPDEST PUSH1 0x1 PUSH1 0x1 PUSH1 0xA0 SHL SUB DUP6 AND PUSH1 0x0 SWAP1 DUP2 MSTORE PUSH1 0x1 PUSH1 0x20 MSTORE PUSH1 0x40 SWAP1 KECCAK256 SLOAD PUSH2 0x2F92 SWAP1 DUP3 SWAP1 PUSH2 0x3D1B JUMP JUMPDEST PUSH1 0x1 PUSH1 0x1 PUSH1 0xA0 SHL SUB DUP1 DUP8 AND PUSH1 0x0 DUP2 DUP2 MSTORE PUSH1 0x1 PUSH1 0x20 MSTORE PUSH1 0x40 SWAP1 DUP2 SWAP1 KECCAK256 SWAP4 SWAP1 SWAP4 SSTORE SWAP2 MLOAD SWAP1 DUP9 AND SWAP1 PUSH1 0x0 DUP1 MLOAD PUSH1 0x20 PUSH2 0x3E0B DUP4 CODECOPY DUP2 MLOAD SWAP2 MSTORE SWAP1 PUSH2 0x2FD4 SWAP1 DUP7 DUP2 MSTORE PUSH1 0x20 ADD SWAP1 JUMP JUMPDEST PUSH1 0x40 MLOAD DUP1 SWAP2 SUB SWAP1 LOG3 PUSH1 0x40 DUP1 MLOAD DUP6 DUP2 MSTORE PUSH1 0x20 DUP2 ADD DUP6 SWAP1 MSTORE SWAP1 DUP2 ADD DUP4 SWAP1 MSTORE PUSH1 0x60 DUP2 ADD DUP3 SWAP1 MSTORE PUSH1 0x1 PUSH1 0x1 PUSH1 0xA0 SHL SUB DUP1 DUP8 AND SWAP2 SWAP1 DUP9 AND SWAP1 PUSH32 0xA44E2EBD30E6F04FBF0EE4935CC0558C3B926D578067DC2940E6880750CB8478 SWAP1 PUSH1 0x80 ADD PUSH1 0x40 MLOAD DUP1 SWAP2 SUB SWAP1 LOG3 POP POP POP POP POP POP JUMP JUMPDEST DUP2 PUSH1 0xD SLOAD PUSH2 0x304A SWAP2 SWAP1 PUSH2 0x3D72 JUMP JUMPDEST PUSH1 0xD SSTORE PUSH1 0x16 SLOAD PUSH2 0x305B SWAP1 DUP3 SWAP1 PUSH2 0x3D1B JUMP JUMPDEST PUSH1 0x16 SSTORE POP POP JUMP JUMPDEST PUSH2 0x2E7E PUSH1 0x1B SLOAD PUSH1 0x18 SLOAD PUSH1 0x21 SLOAD PUSH1 0x1E SLOAD PUSH1 0x15 SLOAD PUSH1 0x1A SWAP5 SWAP1 SWAP5 SSTORE PUSH1 0x17 SWAP3 SWAP1 SWAP3 SSTORE PUSH1 0x20 SSTORE PUSH1 0x1D SSTORE PUSH1 0x14 SSTORE JUMP JUMPDEST PUSH1 0x1C SLOAD PUSH2 0x22E3 SWAP1 DUP3 SWAP1 PUSH1 0x1 PUSH1 0x1 PUSH1 0xA0 SHL SUB AND PUSH2 0x36AB JUMP JUMPDEST PUSH1 0x19 SLOAD PUSH2 0x22E3 SWAP1 DUP3 SWAP1 PUSH1 0x1 PUSH1 0x1 PUSH1 0xA0 SHL SUB AND PUSH2 0x36AB JUMP JUMPDEST PUSH2 0x22E3 DUP2 ADDRESS PUSH2 0x36AB JUMP JUMPDEST PUSH1 0x1F SLOAD PUSH2 0x22E3 SWAP1 DUP3 SWAP1 PUSH1 0x1 PUSH1 0x1 PUSH1 0xA0 SHL SUB AND PUSH2 0x36AB JUMP JUMPDEST PUSH1 0xD SLOAD PUSH1 0xC SLOAD PUSH1 0x0 SWAP2 DUP3 SWAP2 DUP3 JUMPDEST PUSH1 0xA SLOAD DUP2 LT ISZERO PUSH2 0x3265 JUMPI DUP3 PUSH1 0x1 PUSH1 0x0 PUSH1 0xA DUP5 DUP2 SLOAD DUP2 LT PUSH2 0x3117 JUMPI PUSH4 0x4E487B71 PUSH1 0xE0 SHL PUSH1 0x0 MSTORE PUSH1 0x32 PUSH1 0x4 MSTORE PUSH1 0x24 PUSH1 0x0 REVERT JUMPDEST PUSH1 0x0 SWAP2 DUP3 MSTORE PUSH1 0x20 DUP1 DUP4 KECCAK256 SWAP1 SWAP2 ADD SLOAD PUSH1 0x1 PUSH1 0x1 PUSH1 0xA0 SHL SUB AND DUP4 MSTORE DUP3 ADD SWAP3 SWAP1 SWAP3 MSTORE PUSH1 0x40 ADD SWAP1 KECCAK256 SLOAD GT DUP1 PUSH2 0x3190 JUMPI POP DUP2 PUSH1 0x2 PUSH1 0x0 PUSH1 0xA DUP5 DUP2 SLOAD DUP2 LT PUSH2 0x3169 JUMPI PUSH4 0x4E487B71 PUSH1 0xE0 SHL PUSH1 0x0 MSTORE PUSH1 0x32 PUSH1 0x4 MSTORE PUSH1 0x24 PUSH1 0x0 REVERT JUMPDEST PUSH1 0x0 SWAP2 DUP3 MSTORE PUSH1 0x20 DUP1 DUP4 KECCAK256 SWAP1 SWAP2 ADD SLOAD PUSH1 0x1 PUSH1 0x1 PUSH1 0xA0 SHL SUB AND DUP4 MSTORE DUP3 ADD SWAP3 SWAP1 SWAP3 MSTORE PUSH1 0x40 ADD SWAP1 KECCAK256 SLOAD GT JUMPDEST ISZERO PUSH2 0x31A7 JUMPI PUSH1 0xD SLOAD PUSH1 0xC SLOAD SWAP5 POP SWAP5 POP POP POP POP PUSH2 0x3294 JUMP JUMPDEST PUSH1 0x1 PUSH1 0x0 PUSH1 0xA DUP4 DUP2 SLOAD DUP2 LT PUSH2 0x31CC JUMPI PUSH4 0x4E487B71 PUSH1 0xE0 SHL PUSH1 0x0 MSTORE PUSH1 0x32 PUSH1 0x4 MSTORE PUSH1 0x24 PUSH1 0x0 REVERT JUMPDEST PUSH1 0x0 SWAP2 DUP3 MSTORE PUSH1 0x20 DUP1 DUP4 KECCAK256 SWAP1 SWAP2 ADD SLOAD PUSH1 0x1 PUSH1 0x1 PUSH1 0xA0 SHL SUB AND DUP4 MSTORE DUP3 ADD SWAP3 SWAP1 SWAP3 MSTORE PUSH1 0x40 ADD SWAP1 KECCAK256 SLOAD PUSH2 0x31FB SWAP1 DUP5 PUSH2 0x3D72 JUMP JUMPDEST SWAP3 POP PUSH1 0x2 PUSH1 0x0 PUSH1 0xA DUP4 DUP2 SLOAD DUP2 LT PUSH2 0x3222 JUMPI PUSH4 0x4E487B71 PUSH1 0xE0 SHL PUSH1 0x0 MSTORE PUSH1 0x32 PUSH1 0x4 MSTORE PUSH1 0x24 PUSH1 0x0 REVERT JUMPDEST PUSH1 0x0 SWAP2 DUP3 MSTORE PUSH1 0x20 DUP1 DUP4 KECCAK256 SWAP1 SWAP2 ADD SLOAD PUSH1 0x1 PUSH1 0x1 PUSH1 0xA0 SHL SUB AND DUP4 MSTORE DUP3 ADD SWAP3 SWAP1 SWAP3 MSTORE PUSH1 0x40 ADD SWAP1 KECCAK256 SLOAD PUSH2 0x3251 SWAP1 DUP4 PUSH2 0x3D72 JUMP JUMPDEST SWAP2 POP DUP1 PUSH2 0x325D DUP2 PUSH2 0x3DC4 JUMP JUMPDEST SWAP2 POP POP PUSH2 0x30E7 JUMP JUMPDEST POP PUSH1 0xC SLOAD PUSH1 0xD SLOAD PUSH2 0x3276 SWAP2 SWAP1 PUSH2 0x3D33 JUMP JUMPDEST DUP3 LT ISZERO PUSH2 0x328E JUMPI PUSH1 0xD SLOAD PUSH1 0xC SLOAD SWAP4 POP SWAP4 POP POP POP PUSH2 0x3294 JUMP JUMPDEST SWAP1 SWAP3 POP SWAP1 POP JUMPDEST SWAP1 SWAP2 JUMP JUMPDEST PUSH1 0x23 DUP1 SLOAD PUSH1 0xFF NOT AND PUSH1 0x1 OR SWAP1 SSTORE PUSH1 0x0 PUSH2 0x32AF PUSH2 0x2BC3 JUMP JUMPDEST PUSH2 0x32B9 SWAP1 DUP4 PUSH2 0x3D53 JUMP JUMPDEST PUSH1 0x1 PUSH1 0x1 PUSH1 0xA0 SHL SUB DUP5 AND PUSH1 0x0 SWAP1 DUP2 MSTORE PUSH1 0x1 PUSH1 0x20 MSTORE PUSH1 0x40 SWAP1 KECCAK256 SLOAD SWAP1 SWAP2 POP PUSH2 0x32E0 SWAP1 DUP3 SWAP1 PUSH2 0x3D72 JUMP JUMPDEST PUSH1 0x1 PUSH1 0x1 PUSH1 0xA0 SHL SUB DUP5 AND PUSH1 0x0 SWAP1 DUP2 MSTORE PUSH1 0x1 PUSH1 0x20 SWAP1 DUP2 MSTORE PUSH1 0x40 DUP1 DUP4 KECCAK256 SWAP4 SWAP1 SWAP4 SSTORE PUSH1 0x5 SWAP1 MSTORE KECCAK256 SLOAD PUSH1 0xFF AND ISZERO PUSH2 0x334B JUMPI PUSH1 0x1 PUSH1 0x1 PUSH1 0xA0 SHL SUB DUP4 AND PUSH1 0x0 SWAP1 DUP2 MSTORE PUSH1 0x2 PUSH1 0x20 MSTORE PUSH1 0x40 SWAP1 KECCAK256 SLOAD PUSH2 0x3331 SWAP1 DUP4 SWAP1 PUSH2 0x3D72 JUMP JUMPDEST PUSH1 0x1 PUSH1 0x1 PUSH1 0xA0 SHL SUB DUP5 AND PUSH1 0x0 SWAP1 DUP2 MSTORE PUSH1 0x2 PUSH1 0x20 MSTORE PUSH1 0x40 SWAP1 KECCAK256 SSTORE JUMPDEST ADDRESS PUSH1 0x0 SWAP1 DUP2 MSTORE PUSH1 0x1 PUSH1 0x20 MSTORE PUSH1 0x40 SWAP1 KECCAK256 SLOAD PUSH2 0x3366 SWAP1 DUP3 SWAP1 PUSH2 0x3D1B JUMP JUMPDEST ADDRESS PUSH1 0x0 DUP2 DUP2 MSTORE PUSH1 0x1 PUSH1 0x20 MSTORE PUSH1 0x40 SWAP1 DUP2 SWAP1 KECCAK256 SWAP3 SWAP1 SWAP3 SSTORE SWAP1 MLOAD PUSH1 0x1 PUSH1 0x1 PUSH1 0xA0 SHL SUB DUP6 AND SWAP1 PUSH1 0x0 DUP1 MLOAD PUSH1 0x20 PUSH2 0x3E0B DUP4 CODECOPY DUP2 MLOAD SWAP2 MSTORE SWAP1 PUSH2 0x33A5 SWAP1 DUP7 DUP2 MSTORE PUSH1 0x20 ADD SWAP1 JUMP JUMPDEST PUSH1 0x40 MLOAD DUP1 SWAP2 SUB SWAP1 LOG3 PUSH2 0x33B7 DUP3 DUP5 PUSH2 0x377C JUMP JUMPDEST POP POP PUSH1 0x23 DUP1 SLOAD PUSH1 0xFF NOT AND SWAP1 SSTORE POP JUMP JUMPDEST PUSH1 0x40 DUP1 MLOAD PUSH1 0x2 DUP1 DUP3 MSTORE PUSH1 0x60 DUP3 ADD DUP4 MSTORE PUSH1 0x0 SWAP3 PUSH1 0x20 DUP4 ADD SWAP1 DUP1 CALLDATASIZE DUP4 CALLDATACOPY ADD SWAP1 POP POP SWAP1 POP ADDRESS DUP2 PUSH1 0x0 DUP2 MLOAD DUP2 LT PUSH2 0x3409 JUMPI PUSH4 0x4E487B71 PUSH1 0xE0 SHL PUSH1 0x0 MSTORE PUSH1 0x32 PUSH1 0x4 MSTORE PUSH1 0x24 PUSH1 0x0 REVERT JUMPDEST PUSH1 0x20 MUL PUSH1 0x20 ADD ADD SWAP1 PUSH1 0x1 PUSH1 0x1 PUSH1 0xA0 SHL SUB AND SWAP1 DUP2 PUSH1 0x1 PUSH1 0x1 PUSH1 0xA0 SHL SUB AND DUP2 MSTORE POP POP PUSH32 0x0 PUSH1 0x1 PUSH1 0x1 PUSH1 0xA0 SHL SUB AND PUSH4 0xAD5C4648 PUSH1 0x40 MLOAD DUP2 PUSH4 0xFFFFFFFF AND PUSH1 0xE0 SHL DUP2 MSTORE PUSH1 0x4 ADD PUSH1 0x20 PUSH1 0x40 MLOAD DUP1 DUP4 SUB DUP2 DUP7 DUP1 EXTCODESIZE ISZERO DUP1 ISZERO PUSH2 0x3482 JUMPI PUSH1 0x0 DUP1 REVERT JUMPDEST POP GAS STATICCALL ISZERO DUP1 ISZERO PUSH2 0x3496 JUMPI RETURNDATASIZE PUSH1 0x0 DUP1 RETURNDATACOPY RETURNDATASIZE PUSH1 0x0 REVERT JUMPDEST POP POP POP POP PUSH1 0x40 MLOAD RETURNDATASIZE PUSH1 0x1F NOT PUSH1 0x1F DUP3 ADD AND DUP3 ADD DUP1 PUSH1 0x40 MSTORE POP DUP2 ADD SWAP1 PUSH2 0x34BA SWAP2 SWAP1 PUSH2 0x399B JUMP JUMPDEST DUP2 PUSH1 0x1 DUP2 MLOAD DUP2 LT PUSH2 0x34DB JUMPI PUSH4 0x4E487B71 PUSH1 0xE0 SHL PUSH1 0x0 MSTORE PUSH1 0x32 PUSH1 0x4 MSTORE PUSH1 0x24 PUSH1 0x0 REVERT JUMPDEST PUSH1 0x20 MUL PUSH1 0x20 ADD ADD SWAP1 PUSH1 0x1 PUSH1 0x1 PUSH1 0xA0 SHL SUB AND SWAP1 DUP2 PUSH1 0x1 PUSH1 0x1 PUSH1 0xA0 SHL SUB AND DUP2 MSTORE POP POP PUSH2 0x3526 ADDRESS PUSH32 0x0 DUP5 PUSH2 0x22E6 JUMP JUMPDEST PUSH1 0x40 MLOAD PUSH4 0x791AC947 PUSH1 0xE0 SHL DUP2 MSTORE PUSH1 0x1 PUSH1 0x1 PUSH1 0xA0 SHL SUB PUSH32 0x0 AND SWAP1 PUSH4 0x791AC947 SWAP1 PUSH2 0x357B SWAP1 DUP6 SWAP1 PUSH1 0x0 SWAP1 DUP7 SWAP1 ADDRESS SWAP1 TIMESTAMP SWAP1 PUSH1 0x4 ADD PUSH2 0x3CDF JUMP JUMPDEST PUSH1 0x0 PUSH1 0x40 MLOAD DUP1 DUP4 SUB DUP2 PUSH1 0x0 DUP8 DUP1 EXTCODESIZE ISZERO DUP1 ISZERO PUSH2 0x3595 JUMPI PUSH1 0x0 DUP1 REVERT JUMPDEST POP GAS CALL ISZERO DUP1 ISZERO PUSH2 0x17D1 JUMPI RETURNDATASIZE PUSH1 0x0 DUP1 RETURNDATACOPY RETURNDATASIZE PUSH1 0x0 REVERT JUMPDEST PUSH2 0x35D4 ADDRESS PUSH32 0x0 DUP5 PUSH2 0x22E6 JUMP JUMPDEST PUSH1 0x40 MLOAD PUSH4 0xF305D719 PUSH1 0xE0 SHL DUP2 MSTORE ADDRESS PUSH1 0x4 DUP3 ADD MSTORE PUSH1 0x24 DUP2 ADD DUP4 SWAP1 MSTORE PUSH1 0x0 PUSH1 0x44 DUP3 ADD DUP2 SWAP1 MSTORE PUSH1 0x64 DUP3 ADD MSTORE PUSH20 0x38FEBBBD7B96E459692C9B9FE8F8CF62653277C8 PUSH1 0x84 DUP3 ADD MSTORE TIMESTAMP PUSH1 0xA4 DUP3 ADD MSTORE PUSH32 0x0 PUSH1 0x1 PUSH1 0x1 PUSH1 0xA0 SHL SUB AND SWAP1 PUSH4 0xF305D719 SWAP1 DUP4 SWAP1 PUSH1 0xC4 ADD PUSH1 0x60 PUSH1 0x40 MLOAD DUP1 DUP4 SUB DUP2 DUP6 DUP9 DUP1 EXTCODESIZE ISZERO DUP1 ISZERO PUSH2 0x366B JUMPI PUSH1 0x0 DUP1 REVERT JUMPDEST POP GAS CALL ISZERO DUP1 ISZERO PUSH2 0x367F JUMPI RETURNDATASIZE PUSH1 0x0 DUP1 RETURNDATACOPY RETURNDATASIZE PUSH1 0x0 REVERT JUMPDEST POP POP POP POP POP PUSH1 0x40 MLOAD RETURNDATASIZE PUSH1 0x1F NOT PUSH1 0x1F DUP3 ADD AND DUP3 ADD DUP1 PUSH1 0x40 MSTORE POP DUP2 ADD SWAP1 PUSH2 0x36A4 SWAP2 SWAP1 PUSH2 0x3BAD JUMP JUMPDEST POP POP POP POP POP JUMP JUMPDEST PUSH1 0x0 PUSH2 0x36B5 PUSH2 0x2BC3 JUMP JUMPDEST PUSH2 0x36BF SWAP1 DUP5 PUSH2 0x3D53 JUMP JUMPDEST PUSH1 0x1 PUSH1 0x1 PUSH1 0xA0 SHL SUB DUP4 AND PUSH1 0x0 SWAP1 DUP2 MSTORE PUSH1 0x1 PUSH1 0x20 MSTORE PUSH1 0x40 SWAP1 KECCAK256 SLOAD SWAP1 SWAP2 POP PUSH2 0x36E6 SWAP1 DUP3 SWAP1 PUSH2 0x3D1B JUMP JUMPDEST PUSH1 0x1 PUSH1 0x1 PUSH1 0xA0 SHL SUB DUP4 AND PUSH1 0x0 SWAP1 DUP2 MSTORE PUSH1 0x1 PUSH1 0x20 SWAP1 DUP2 MSTORE PUSH1 0x40 DUP1 DUP4 KECCAK256 SWAP4 SWAP1 SWAP4 SSTORE PUSH1 0x5 SWAP1 MSTORE KECCAK256 SLOAD PUSH1 0xFF AND ISZERO PUSH2 0x3751 JUMPI PUSH1 0x1 PUSH1 0x1 PUSH1 0xA0 SHL SUB DUP3 AND PUSH1 0x0 SWAP1 DUP2 MSTORE PUSH1 0x2 PUSH1 0x20 MSTORE PUSH1 0x40 SWAP1 KECCAK256 SLOAD PUSH2 0x3737 SWAP1 DUP5 SWAP1 PUSH2 0x3D1B JUMP JUMPDEST PUSH1 0x1 PUSH1 0x1 PUSH1 0xA0 SHL SUB DUP4 AND PUSH1 0x0 SWAP1 DUP2 MSTORE PUSH1 0x2 PUSH1 0x20 MSTORE PUSH1 0x40 SWAP1 KECCAK256 SSTORE JUMPDEST PUSH1 0x40 MLOAD DUP4 DUP2 MSTORE PUSH1 0x1 PUSH1 0x1 PUSH1 0xA0 SHL SUB DUP4 AND SWAP1 CALLER SWAP1 PUSH1 0x0 DUP1 MLOAD PUSH1 0x20 PUSH2 0x3E0B DUP4 CODECOPY DUP2 MLOAD SWAP2 MSTORE SWAP1 PUSH1 0x20 ADD PUSH2 0x1FC7 JUMP JUMPDEST PUSH1 0x40 DUP1 MLOAD PUSH1 0x2 DUP1 DUP3 MSTORE PUSH1 0x60 DUP3 ADD DUP4 MSTORE PUSH1 0x0 SWAP3 PUSH1 0x20 DUP4 ADD SWAP1 DUP1 CALLDATASIZE DUP4 CALLDATACOPY ADD SWAP1 POP POP SWAP1 POP ADDRESS DUP2 PUSH1 0x0 DUP2 MLOAD DUP2 LT PUSH2 0x37BF JUMPI PUSH4 0x4E487B71 PUSH1 0xE0 SHL PUSH1 0x0 MSTORE PUSH1 0x32 PUSH1 0x4 MSTORE PUSH1 0x24 PUSH1 0x0 REVERT JUMPDEST PUSH1 0x20 MUL PUSH1 0x20 ADD ADD SWAP1 PUSH1 0x1 PUSH1 0x1 PUSH1 0xA0 SHL SUB AND SWAP1 DUP2 PUSH1 0x1 PUSH1 0x1 PUSH1 0xA0 SHL SUB AND DUP2 MSTORE POP POP PUSH32 0x0 PUSH1 0x1 PUSH1 0x1 PUSH1 0xA0 SHL SUB AND PUSH4 0xAD5C4648 PUSH1 0x40 MLOAD DUP2 PUSH4 0xFFFFFFFF AND PUSH1 0xE0 SHL DUP2 MSTORE PUSH1 0x4 ADD PUSH1 0x20 PUSH1 0x40 MLOAD DUP1 DUP4 SUB DUP2 DUP7 DUP1 EXTCODESIZE ISZERO DUP1 ISZERO PUSH2 0x3838 JUMPI PUSH1 0x0 DUP1 REVERT JUMPDEST POP GAS STATICCALL ISZERO DUP1 ISZERO PUSH2 0x384C JUMPI RETURNDATASIZE PUSH1 0x0 DUP1 RETURNDATACOPY RETURNDATASIZE PUSH1 0x0 REVERT JUMPDEST POP POP POP POP PUSH1 0x40 MLOAD RETURNDATASIZE PUSH1 0x1F NOT PUSH1 0x1F DUP3 ADD AND DUP3 ADD DUP1 PUSH1 0x40 MSTORE POP DUP2 ADD SWAP1 PUSH2 0x3870 SWAP2 SWAP1 PUSH2 0x399B JUMP JUMPDEST DUP2 PUSH1 0x1 DUP2 MLOAD DUP2 LT PUSH2 0x3891 JUMPI PUSH4 0x4E487B71 PUSH1 0xE0 SHL PUSH1 0x0 MSTORE PUSH1 0x32 PUSH1 0x4 MSTORE PUSH1 0x24 PUSH1 0x0 REVERT JUMPDEST PUSH1 0x20 MUL PUSH1 0x20 ADD ADD SWAP1 PUSH1 0x1 PUSH1 0x1 PUSH1 0xA0 SHL SUB AND SWAP1 DUP2 PUSH1 0x1 PUSH1 0x1 PUSH1 0xA0 SHL SUB AND DUP2 MSTORE POP POP PUSH2 0x38DC ADDRESS PUSH32 0x0 DUP6 PUSH2 0x22E6 JUMP JUMPDEST PUSH1 0x40 MLOAD PUSH4 0x791AC947 PUSH1 0xE0 SHL DUP2 MSTORE PUSH1 0x1 PUSH1 0x1 PUSH1 0xA0 SHL SUB PUSH32 0x0 AND SWAP1 PUSH4 0x791AC947 SWAP1 PUSH2 0x3931 SWAP1 DUP7 SWAP1 PUSH1 0x0 SWAP1 DUP7 SWAP1 DUP9 SWAP1 TIMESTAMP SWAP1 PUSH1 0x4 ADD PUSH2 0x3CDF JUMP JUMPDEST PUSH1 0x0 PUSH1 0x40 MLOAD DUP1 DUP4 SUB DUP2 PUSH1 0x0 DUP8 DUP1 EXTCODESIZE ISZERO DUP1 ISZERO PUSH2 0x394B JUMPI PUSH1 0x0 DUP1 REVERT JUMPDEST POP GAS CALL ISZERO DUP1 ISZERO PUSH2 0x395F JUMPI RETURNDATASIZE PUSH1 0x0 DUP1 RETURNDATACOPY RETURNDATASIZE PUSH1 0x0 REVERT JUMPDEST POP POP POP POP POP POP POP JUMP JUMPDEST DUP1 CALLDATALOAD DUP1 ISZERO ISZERO DUP2 EQ PUSH2 0x1396 JUMPI PUSH1 0x0 DUP1 REVERT JUMPDEST PUSH1 0x0 PUSH1 0x20 DUP3 DUP5 SUB SLT ISZERO PUSH2 0x3989 JUMPI DUP1 DUP2 REVERT JUMPDEST DUP2 CALLDATALOAD PUSH2 0x3994 DUP2 PUSH2 0x3DF5 JUMP JUMPDEST SWAP4 SWAP3 POP POP POP JUMP JUMPDEST PUSH1 0x0 PUSH1 0x20 DUP3 DUP5 SUB SLT ISZERO PUSH2 0x39AC JUMPI DUP1 DUP2 REVERT JUMPDEST DUP2 MLOAD PUSH2 0x3994 DUP2 PUSH2 0x3DF5 JUMP JUMPDEST PUSH1 0x0 DUP1 PUSH1 0x40 DUP4 DUP6 SUB SLT ISZERO PUSH2 0x39C9 JUMPI DUP1 DUP2 REVERT JUMPDEST DUP3 CALLDATALOAD PUSH2 0x39D4 DUP2 PUSH2 0x3DF5 JUMP JUMPDEST SWAP2 POP PUSH1 0x20 DUP4 ADD CALLDATALOAD PUSH2 0x39E4 DUP2 PUSH2 0x3DF5 JUMP JUMPDEST DUP1 SWAP2 POP POP SWAP3 POP SWAP3 SWAP1 POP JUMP JUMPDEST PUSH1 0x0 DUP1 PUSH1 0x0 PUSH1 0x60 DUP5 DUP7 SUB SLT ISZERO PUSH2 0x3A03 JUMPI DUP1 DUP2 REVERT JUMPDEST DUP4 CALLDATALOAD PUSH2 0x3A0E DUP2 PUSH2 0x3DF5 JUMP JUMPDEST SWAP3 POP PUSH1 0x20 DUP5 ADD CALLDATALOAD PUSH2 0x3A1E DUP2 PUSH2 0x3DF5 JUMP JUMPDEST SWAP3 SWAP6 SWAP3 SWAP5 POP POP POP PUSH1 0x40 SWAP2 SWAP1 SWAP2 ADD CALLDATALOAD SWAP1 JUMP JUMPDEST PUSH1 0x0 DUP1 PUSH1 0x40 DUP4 DUP6 SUB SLT ISZERO PUSH2 0x3A41 JUMPI DUP2 DUP3 REVERT JUMPDEST DUP3 CALLDATALOAD PUSH2 0x3A4C DUP2 PUSH2 0x3DF5 JUMP JUMPDEST SWAP5 PUSH1 0x20 SWAP4 SWAP1 SWAP4 ADD CALLDATALOAD SWAP4 POP POP POP JUMP JUMPDEST PUSH1 0x0 DUP1 PUSH1 0x0 PUSH1 0x40 DUP5 DUP7 SUB SLT ISZERO PUSH2 0x3A6E JUMPI DUP3 DUP4 REVERT JUMPDEST DUP4 CALLDATALOAD PUSH8 0xFFFFFFFFFFFFFFFF DUP1 DUP3 GT ISZERO PUSH2 0x3A85 JUMPI DUP5 DUP6 REVERT JUMPDEST DUP2 DUP7 ADD SWAP2 POP DUP7 PUSH1 0x1F DUP4 ADD SLT PUSH2 0x3A98 JUMPI DUP5 DUP6 REVERT JUMPDEST DUP2 CALLDATALOAD DUP2 DUP2 GT ISZERO PUSH2 0x3AA6 JUMPI DUP6 DUP7 REVERT JUMPDEST DUP8 PUSH1 0x20 DUP3 PUSH1 0x5 SHL DUP6 ADD ADD GT ISZERO PUSH2 0x3ABA JUMPI DUP6 DUP7 REVERT JUMPDEST PUSH1 0x20 SWAP3 DUP4 ADD SWAP6 POP SWAP4 POP PUSH2 0x3AD0 SWAP2 DUP7 ADD SWAP1 POP PUSH2 0x3968 JUMP JUMPDEST SWAP1 POP SWAP3 POP SWAP3 POP SWAP3 JUMP JUMPDEST PUSH1 0x0 PUSH1 0x20 DUP3 DUP5 SUB SLT ISZERO PUSH2 0x3AEA JUMPI DUP1 DUP2 REVERT JUMPDEST PUSH2 0x3994 DUP3 PUSH2 0x3968 JUMP JUMPDEST PUSH1 0x0 DUP1 PUSH1 0x40 DUP4 DUP6 SUB SLT ISZERO PUSH2 0x3B05 JUMPI DUP2 DUP3 REVERT JUMPDEST PUSH2 0x3B0E DUP4 PUSH2 0x3968 JUMP JUMPDEST SWAP2 POP PUSH1 0x20 DUP4 ADD CALLDATALOAD PUSH1 0xFF DUP2 AND DUP2 EQ PUSH2 0x39E4 JUMPI DUP2 DUP3 REVERT JUMPDEST PUSH1 0x0 PUSH1 0x20 DUP3 DUP5 SUB SLT ISZERO PUSH2 0x3B34 JUMPI DUP1 DUP2 REVERT JUMPDEST POP CALLDATALOAD SWAP2 SWAP1 POP JUMP JUMPDEST PUSH1 0x0 DUP1 PUSH1 0x0 PUSH1 0x60 DUP5 DUP7 SUB SLT ISZERO PUSH2 0x3B4F JUMPI DUP3 DUP4 REVERT JUMPDEST DUP4 CALLDATALOAD SWAP3 POP PUSH1 0x20 DUP5 ADD CALLDATALOAD PUSH2 0x3A1E DUP2 PUSH2 0x3DF5 JUMP JUMPDEST PUSH1 0x0 DUP1 PUSH1 0x40 DUP4 DUP6 SUB SLT ISZERO PUSH2 0x3B73 JUMPI DUP2 DUP3 REVERT JUMPDEST DUP3 CALLDATALOAD SWAP2 POP PUSH2 0x3B83 PUSH1 0x20 DUP5 ADD PUSH2 0x3968 JUMP JUMPDEST SWAP1 POP SWAP3 POP SWAP3 SWAP1 POP JUMP JUMPDEST PUSH1 0x0 DUP1 PUSH1 0x40 DUP4 DUP6 SUB SLT ISZERO PUSH2 0x3B9E JUMPI DUP2 DUP3 REVERT JUMPDEST POP POP DUP1 CALLDATALOAD SWAP3 PUSH1 0x20 SWAP1 SWAP2 ADD CALLDATALOAD SWAP2 POP JUMP JUMPDEST PUSH1 0x0 DUP1 PUSH1 0x0 PUSH1 0x60 DUP5 DUP7 SUB SLT ISZERO PUSH2 0x3BC1 JUMPI DUP3 DUP4 REVERT JUMPDEST DUP4 MLOAD SWAP3 POP PUSH1 0x20 DUP5 ADD MLOAD SWAP2 POP PUSH1 0x40 DUP5 ADD MLOAD SWAP1 POP SWAP3 POP SWAP3 POP SWAP3 JUMP JUMPDEST PUSH1 0x0 DUP1 PUSH1 0x0 DUP1 PUSH1 0x0 PUSH1 0xA0 DUP7 DUP9 SUB SLT ISZERO PUSH2 0x3BF1 JUMPI DUP1 DUP2 REVERT JUMPDEST POP POP DUP4 CALLDATALOAD SWAP6 PUSH1 0x20 DUP6 ADD CALLDATALOAD SWAP6 POP PUSH1 0x40 DUP6 ADD CALLDATALOAD SWAP5 PUSH1 0x60 DUP2 ADD CALLDATALOAD SWAP5 POP PUSH1 0x80 ADD CALLDATALOAD SWAP3 POP SWAP1 POP JUMP JUMPDEST PUSH1 0x0 DUP2 MLOAD DUP1 DUP5 MSTORE PUSH1 0x20 DUP1 DUP6 ADD SWAP5 POP DUP1 DUP5 ADD DUP4 JUMPDEST DUP4 DUP2 LT ISZERO PUSH2 0x3C4C JUMPI DUP2 MLOAD PUSH1 0x1 PUSH1 0x1 PUSH1 0xA0 SHL SUB AND DUP8 MSTORE SWAP6 DUP3 ADD SWAP6 SWAP1 DUP3 ADD SWAP1 PUSH1 0x1 ADD PUSH2 0x3C27 JUMP JUMPDEST POP SWAP5 SWAP6 SWAP5 POP POP POP POP POP JUMP JUMPDEST PUSH1 0x0 PUSH1 0x20 DUP1 DUP4 MSTORE DUP4 MLOAD DUP1 DUP3 DUP6 ADD MSTORE DUP3 JUMPDEST DUP2 DUP2 LT ISZERO PUSH2 0x3C83 JUMPI DUP6 DUP2 ADD DUP4 ADD MLOAD DUP6 DUP3 ADD PUSH1 0x40 ADD MSTORE DUP3 ADD PUSH2 0x3C67 JUMP JUMPDEST DUP2 DUP2 GT ISZERO PUSH2 0x3C94 JUMPI DUP4 PUSH1 0x40 DUP4 DUP8 ADD ADD MSTORE JUMPDEST POP PUSH1 0x1F ADD PUSH1 0x1F NOT AND SWAP3 SWAP1 SWAP3 ADD PUSH1 0x40 ADD SWAP4 SWAP3 POP POP POP JUMP JUMPDEST PUSH1 0x20 DUP1 DUP3 MSTORE DUP2 DUP2 ADD MSTORE PUSH32 0x4F776E61626C653A2063616C6C6572206973206E6F7420746865206F776E6572 PUSH1 0x40 DUP3 ADD MSTORE PUSH1 0x60 ADD SWAP1 JUMP JUMPDEST PUSH1 0x0 DUP7 DUP3 MSTORE DUP6 PUSH1 0x20 DUP4 ADD MSTORE PUSH1 0xA0 PUSH1 0x40 DUP4 ADD MSTORE PUSH2 0x3CFE PUSH1 0xA0 DUP4 ADD DUP7 PUSH2 0x3C14 JUMP JUMPDEST PUSH1 0x1 PUSH1 0x1 PUSH1 0xA0 SHL SUB SWAP5 SWAP1 SWAP5 AND PUSH1 0x60 DUP4 ADD MSTORE POP PUSH1 0x80 ADD MSTORE SWAP4 SWAP3 POP POP POP JUMP JUMPDEST PUSH1 0x0 DUP3 NOT DUP3 GT ISZERO PUSH2 0x3D2E JUMPI PUSH2 0x3D2E PUSH2 0x3DDF JUMP JUMPDEST POP ADD SWAP1 JUMP JUMPDEST PUSH1 0x0 DUP3 PUSH2 0x3D4E JUMPI PUSH4 0x4E487B71 PUSH1 0xE0 SHL DUP2 MSTORE PUSH1 0x12 PUSH1 0x4 MSTORE PUSH1 0x24 DUP2 REVERT JUMPDEST POP DIV SWAP1 JUMP JUMPDEST PUSH1 0x0 DUP2 PUSH1 0x0 NOT DIV DUP4 GT DUP3 ISZERO ISZERO AND ISZERO PUSH2 0x3D6D JUMPI PUSH2 0x3D6D PUSH2 0x3DDF JUMP JUMPDEST POP MUL SWAP1 JUMP JUMPDEST PUSH1 0x0 DUP3 DUP3 LT ISZERO PUSH2 0x3D84 JUMPI PUSH2 0x3D84 PUSH2 0x3DDF JUMP JUMPDEST POP SUB SWAP1 JUMP JUMPDEST PUSH1 0x1 DUP2 DUP2 SHR SWAP1 DUP3 AND DUP1 PUSH2 0x3D9D JUMPI PUSH1 0x7F DUP3 AND SWAP2 POP JUMPDEST PUSH1 0x20 DUP3 LT DUP2 EQ ISZERO PUSH2 0x3DBE JUMPI PUSH4 0x4E487B71 PUSH1 0xE0 SHL PUSH1 0x0 MSTORE PUSH1 0x22 PUSH1 0x4 MSTORE PUSH1 0x24 PUSH1 0x0 REVERT JUMPDEST POP SWAP2 SWAP1 POP JUMP JUMPDEST PUSH1 0x0 PUSH1 0x0 NOT DUP3 EQ ISZERO PUSH2 0x3DD8 JUMPI PUSH2 0x3DD8 PUSH2 0x3DDF JUMP JUMPDEST POP PUSH1 0x1 ADD SWAP1 JUMP JUMPDEST PUSH4 0x4E487B71 PUSH1 0xE0 SHL PUSH1 0x0 MSTORE PUSH1 0x11 PUSH1 0x4 MSTORE PUSH1 0x24 PUSH1 0x0 REVERT JUMPDEST PUSH1 0x1 PUSH1 0x1 PUSH1 0xA0 SHL SUB DUP2 AND DUP2 EQ PUSH2 0x22E3 JUMPI PUSH1 0x0 DUP1 REVERT INVALID 0xDD CALLCODE MSTORE 0xAD SHL 0xE2 0xC8 SWAP12 PUSH10 0xC2B068FC378DAA952BA7 CALL PUSH4 0xC4A11628 CREATE2 GAS 0x4D CREATE2 0x23 0xB3 0xEF LOG2 PUSH5 0x6970667358 0x22 SLT KECCAK256 0xC4 DIFFICULTY DIFFICULTY 0xDE ORIGIN 0xDD DUP12 0xD9 0xAA DUP11 DIV 0xCB DUP11 PUSH10 0x2DF59B9C31DCE033C22C SWAP10 CALLDATACOPY PUSH10 0xF23A999CC864736F6C63 NUMBER STOP ADDMOD SUB STOP CALLER "
        },
        "methodIdentifiers": {
          "Change_Wallet_Burn(address)": "d5c9c9fb",
          "Change_Wallet_Buyback(address)": "7bcaae8a",
          "Change_Wallet_Marketing(address)": "0b8df8e3",
          "___feesInfo()": "1c3c4fec",
          "___tokenInfo()": "617c62a1",
          "___wallets()": "67dc9e92",
          "_balance_reflected(address)": "b1eb20e9",
          "_balance_total(address)": "053cfa25",
          "_fee_burn()": "a5ac51b6",
          "_fee_buyback()": "b8786eb1",
          "_fee_buyback_convert_limit()": "b2e4d5a1",
          "_fee_buyback_min_bal()": "e20b5c03",
          "_fee_denominator()": "fd748c30",
          "_fee_liquidity()": "910fb008",
          "_fee_marketing()": "b8392576",
          "_fee_marketing_convert_limit()": "3417ab1d",
          "_fee_marketing_min_bal()": "28e2eaab",
          "_fee_reflection()": "b85f1175",
          "_isBlacklisted(address)": "1cdd3be3",
          "_isWhitelisted(address)": "9cee2142",
          "_maxTxAmount()": "7d1db4a5",
          "_maxWalletToken()": "78109e54",
          "_numTokensSellToAddToLiquidity()": "b3f22ce3",
          "_wallet_burn()": "811ab49c",
          "_wallet_buyback()": "33a06c94",
          "_wallet_marketing()": "666a245d",
          "allowance(address,address)": "dd62ed3e",
          "approve(address,uint256)": "095ea7b3",
          "balanceOf(address)": "70a08231",
          "burn_tokens_to_dead(address,uint256)": "d61df083",
          "buyCooldownEnabled()": "617fe0ed",
          "convertLiquidityBalance(uint256)": "b34b8ca3",
          "cooldownEnabled(bool,uint8)": "2d594567",
          "cooldownTimerInterval()": "722b62ad",
          "decimals()": "313ce567",
          "decreaseAllowance(address,uint256)": "a457c2d7",
          "deliver(uint256)": "3bd5d173",
          "excludeFromReward(address)": "52390c02",
          "fees_to_bnb_manual(uint256,address,uint256)": "2db06cb3",
          "includeInReward(address)": "3685d419",
          "increaseAllowance(address,uint256)": "39509351",
          "isExcludedFromFee(address)": "5342acb4",
          "isExcludedFromReward(address)": "88f82020",
          "name()": "06fdde03",
          "owner()": "8da5cb5b",
          "purgeContractBalance()": "fba206c3",
          "reflectionFromToken(uint256,bool)": "4549b039",
          "s_excludeFromFee(address[],bool)": "06e6ce75",
          "s_manageBlacklist(address[],bool)": "e38136ef",
          "s_manageExcludeFromFee(address[],bool)": "f00c3322",
          "s_manageWhitelist(address[],bool)": "0aaff32c",
          "sellMultiplier()": "fed0d2a1",
          "setMaxTxPercent_base1000(uint256)": "bd9ab537",
          "setMaxTxTokens(uint256)": "5cfd7df4",
          "setMaxWalletPercent_base1000(uint256)": "09302dc6",
          "setMaxWalletTokens(uint256)": "0fec5dd0",
          "setNumTokensSellToAddToLiquidityt(uint256)": "8097e697",
          "setSwapAndLiquifyEnabled(bool)": "c49b9a80",
          "set_All_Fees(uint256,uint256,uint256,uint256,uint256)": "42479199",
          "set_All_Fees_Minimum_Balance(uint256,uint256)": "06f3a47b",
          "set_All_Fees_Triggers(uint256,uint256)": "a7eb8ee8",
          "set_sell_multiplier(uint256)": "ec72d65f",
          "swapAndLiquifyEnabled()": "4a74bb02",
          "symbol()": "95d89b41",
          "tokenFromReflection(uint256)": "2d838119",
          "totalFees()": "13114a9d",
          "totalSupply()": "18160ddd",
          "tradingOpen()": "ffb54a99",
          "tradingStatus(bool)": "0d295980",
          "transfer(address,uint256)": "a9059cbb",
          "transferFrom(address,address,uint256)": "23b872dd",
          "transferOwnership(address)": "f2fde38b",
          "uniswapV2Pair()": "49bd5a5e",
          "uniswapV2Router()": "1694505e"
        }
      }
    }
  }
}