{
  "_format": "hh-sol-artifact-1",
  "contractName": "INVENT",
  "sourceName": "contracts/INVENT.sol",
  "abi": [
    {
      "inputs": [
        {
          "internalType": "address",
          "name": "_pancakeSwapRouterV2",
          "type": "address"
        },
        {
          "internalType": "address",
          "name": "_marketingWallet",
          "type": "address"
        },
        {
          "internalType": "address",
          "name": "_buybackWallet",
          "type": "address"
        }
      ],
      "stateMutability": "nonpayable",
      "type": "constructor"
    },
    {
      "anonymous": false,
      "inputs": [
        {
          "indexed": true,
          "internalType": "address",
          "name": "owner",
          "type": "address"
        },
        {
          "indexed": true,
          "internalType": "address",
          "name": "spender",
          "type": "address"
        },
        {
          "indexed": false,
          "internalType": "uint256",
          "name": "value",
          "type": "uint256"
        }
      ],
      "name": "Approval",
      "type": "event"
    },
    {
      "anonymous": false,
      "inputs": [
        {
          "indexed": false,
          "internalType": "uint256",
          "name": "minTokensBeforeSwap",
          "type": "uint256"
        }
      ],
      "name": "MinTokensBeforeSwapUpdated",
      "type": "event"
    },
    {
      "anonymous": false,
      "inputs": [
        {
          "indexed": true,
          "internalType": "address",
          "name": "previousOwner",
          "type": "address"
        },
        {
          "indexed": true,
          "internalType": "address",
          "name": "newOwner",
          "type": "address"
        }
      ],
      "name": "OwnershipTransferred",
      "type": "event"
    },
    {
      "anonymous": false,
      "inputs": [
        {
          "indexed": false,
          "internalType": "uint256",
          "name": "tokensSwapped",
          "type": "uint256"
        },
        {
          "indexed": false,
          "internalType": "uint256",
          "name": "ethReceived",
          "type": "uint256"
        },
        {
          "indexed": false,
          "internalType": "uint256",
          "name": "tokensIntoLiqudity",
          "type": "uint256"
        }
      ],
      "name": "SwapAndLiquify",
      "type": "event"
    },
    {
      "anonymous": false,
      "inputs": [
        {
          "indexed": false,
          "internalType": "bool",
          "name": "enabled",
          "type": "bool"
        }
      ],
      "name": "SwapAndLiquifyEnabledUpdated",
      "type": "event"
    },
    {
      "anonymous": false,
      "inputs": [
        {
          "indexed": true,
          "internalType": "address",
          "name": "from",
          "type": "address"
        },
        {
          "indexed": true,
          "internalType": "address",
          "name": "to",
          "type": "address"
        },
        {
          "indexed": false,
          "internalType": "uint256",
          "name": "value",
          "type": "uint256"
        }
      ],
      "name": "Transfer",
      "type": "event"
    },
    {
      "anonymous": false,
      "inputs": [
        {
          "indexed": true,
          "internalType": "address",
          "name": "from",
          "type": "address"
        },
        {
          "indexed": true,
          "internalType": "address",
          "name": "to",
          "type": "address"
        },
        {
          "indexed": false,
          "internalType": "uint256",
          "name": "total_Amount",
          "type": "uint256"
        },
        {
          "indexed": false,
          "internalType": "uint256",
          "name": "reflected_amount",
          "type": "uint256"
        },
        {
          "indexed": false,
          "internalType": "uint256",
          "name": "total_TransferAmount",
          "type": "uint256"
        },
        {
          "indexed": false,
          "internalType": "uint256",
          "name": "reflected_TransferAmount",
          "type": "uint256"
        }
      ],
      "name": "TransferDetails",
      "type": "event"
    },
    {
      "inputs": [
        {
          "internalType": "address",
          "name": "newWallet",
          "type": "address"
        }
      ],
      "name": "Change_Wallet_Burn",
      "outputs": [],
      "stateMutability": "nonpayable",
      "type": "function"
    },
    {
      "inputs": [
        {
          "internalType": "address",
          "name": "newWallet",
          "type": "address"
        }
      ],
      "name": "Change_Wallet_Buyback",
      "outputs": [],
      "stateMutability": "nonpayable",
      "type": "function"
    },
    {
      "inputs": [
        {
          "internalType": "address",
          "name": "newWallet",
          "type": "address"
        }
      ],
      "name": "Change_Wallet_Marketing",
      "outputs": [],
      "stateMutability": "nonpayable",
      "type": "function"
    },
    {
      "inputs": [],
      "name": "PCSRouter",
      "outputs": [
        {
          "internalType": "address",
          "name": "",
          "type": "address"
        }
      ],
      "stateMutability": "view",
      "type": "function"
    },
    {
      "inputs": [],
      "name": "___feesInfo",
      "outputs": [
        {
          "internalType": "uint256",
          "name": "NumTokensSellToAddToLiquidity",
          "type": "uint256"
        },
        {
          "internalType": "uint256",
          "name": "contractTokenBalance",
          "type": "uint256"
        },
        {
          "internalType": "uint256",
          "name": "Reflection_tokens_stored",
          "type": "uint256"
        }
      ],
      "stateMutability": "view",
      "type": "function"
    },
    {
      "inputs": [],
      "name": "___tokenInfo",
      "outputs": [
        {
          "internalType": "uint8",
          "name": "Decimals",
          "type": "uint8"
        },
        {
          "internalType": "uint256",
          "name": "MaxTxAmount",
          "type": "uint256"
        },
        {
          "internalType": "uint256",
          "name": "MaxWalletToken",
          "type": "uint256"
        },
        {
          "internalType": "uint256",
          "name": "TotalSupply",
          "type": "uint256"
        },
        {
          "internalType": "uint256",
          "name": "Reflected_Supply",
          "type": "uint256"
        },
        {
          "internalType": "uint256",
          "name": "Reflection_Rate",
          "type": "uint256"
        },
        {
          "internalType": "bool",
          "name": "TradingOpen",
          "type": "bool"
        },
        {
          "internalType": "bool",
          "name": "Cooldown_timer_enabled",
          "type": "bool"
        },
        {
          "internalType": "uint8",
          "name": "Cooldown_timer_interval",
          "type": "uint8"
        }
      ],
      "stateMutability": "view",
      "type": "function"
    },
    {
      "inputs": [],
      "name": "___wallets",
      "outputs": [
        {
          "internalType": "uint256",
          "name": "Reflection_Fees",
          "type": "uint256"
        },
        {
          "internalType": "uint256",
          "name": "Liquidity_Fee",
          "type": "uint256"
        },
        {
          "internalType": "uint256",
          "name": "Buyback_Fee",
          "type": "uint256"
        },
        {
          "internalType": "uint256",
          "name": "Buyback_Fee_Convert_Limit",
          "type": "uint256"
        },
        {
          "internalType": "uint256",
          "name": "Buyback_Fee_Minimum_Balance",
          "type": "uint256"
        },
        {
          "internalType": "uint256",
          "name": "Marketing_Fee",
          "type": "uint256"
        },
        {
          "internalType": "uint256",
          "name": "Marketing_Fee_Convert_Limit",
          "type": "uint256"
        },
        {
          "internalType": "uint256",
          "name": "Marketing_Fee_Minimum_Balance",
          "type": "uint256"
        },
        {
          "internalType": "uint256",
          "name": "Burn_Fee",
          "type": "uint256"
        },
        {
          "internalType": "address",
          "name": "Buyback_Wallet_Address",
          "type": "address"
        },
        {
          "internalType": "address",
          "name": "Burn_Wallet_Address",
          "type": "address"
        },
        {
          "internalType": "address",
          "name": "Marketing_Wallet_Address",
          "type": "address"
        }
      ],
      "stateMutability": "view",
      "type": "function"
    },
    {
      "inputs": [
        {
          "internalType": "address",
          "name": "",
          "type": "address"
        }
      ],
      "name": "_balance_reflected",
      "outputs": [
        {
          "internalType": "uint256",
          "name": "",
          "type": "uint256"
        }
      ],
      "stateMutability": "view",
      "type": "function"
    },
    {
      "inputs": [
        {
          "internalType": "address",
          "name": "",
          "type": "address"
        }
      ],
      "name": "_balance_total",
      "outputs": [
        {
          "internalType": "uint256",
          "name": "",
          "type": "uint256"
        }
      ],
      "stateMutability": "view",
      "type": "function"
    },
    {
      "inputs": [],
      "name": "_fee_burn",
      "outputs": [
        {
          "internalType": "uint256",
          "name": "",
          "type": "uint256"
        }
      ],
      "stateMutability": "view",
      "type": "function"
    },
    {
      "inputs": [],
      "name": "_fee_buyback",
      "outputs": [
        {
          "internalType": "uint256",
          "name": "",
          "type": "uint256"
        }
      ],
      "stateMutability": "view",
      "type": "function"
    },
    {
      "inputs": [],
      "name": "_fee_buyback_convert_limit",
      "outputs": [
        {
          "internalType": "uint256",
          "name": "",
          "type": "uint256"
        }
      ],
      "stateMutability": "view",
      "type": "function"
    },
    {
      "inputs": [],
      "name": "_fee_buyback_min_bal",
      "outputs": [
        {
          "internalType": "uint256",
          "name": "",
          "type": "uint256"
        }
      ],
      "stateMutability": "view",
      "type": "function"
    },
    {
      "inputs": [],
      "name": "_fee_denominator",
      "outputs": [
        {
          "internalType": "uint256",
          "name": "",
          "type": "uint256"
        }
      ],
      "stateMutability": "view",
      "type": "function"
    },
    {
      "inputs": [],
      "name": "_fee_liquidity",
      "outputs": [
        {
          "internalType": "uint256",
          "name": "",
          "type": "uint256"
        }
      ],
      "stateMutability": "view",
      "type": "function"
    },
    {
      "inputs": [],
      "name": "_fee_marketing",
      "outputs": [
        {
          "internalType": "uint256",
          "name": "",
          "type": "uint256"
        }
      ],
      "stateMutability": "view",
      "type": "function"
    },
    {
      "inputs": [],
      "name": "_fee_marketing_convert_limit",
      "outputs": [
        {
          "internalType": "uint256",
          "name": "",
          "type": "uint256"
        }
      ],
      "stateMutability": "view",
      "type": "function"
    },
    {
      "inputs": [],
      "name": "_fee_marketing_min_bal",
      "outputs": [
        {
          "internalType": "uint256",
          "name": "",
          "type": "uint256"
        }
      ],
      "stateMutability": "view",
      "type": "function"
    },
    {
      "inputs": [],
      "name": "_fee_reflection",
      "outputs": [
        {
          "internalType": "uint256",
          "name": "",
          "type": "uint256"
        }
      ],
      "stateMutability": "view",
      "type": "function"
    },
    {
      "inputs": [
        {
          "internalType": "address",
          "name": "",
          "type": "address"
        }
      ],
      "name": "_isBlacklisted",
      "outputs": [
        {
          "internalType": "bool",
          "name": "",
          "type": "bool"
        }
      ],
      "stateMutability": "view",
      "type": "function"
    },
    {
      "inputs": [
        {
          "internalType": "address",
          "name": "",
          "type": "address"
        }
      ],
      "name": "_isWhitelisted",
      "outputs": [
        {
          "internalType": "bool",
          "name": "",
          "type": "bool"
        }
      ],
      "stateMutability": "view",
      "type": "function"
    },
    {
      "inputs": [],
      "name": "_maxTxAmount",
      "outputs": [
        {
          "internalType": "uint256",
          "name": "",
          "type": "uint256"
        }
      ],
      "stateMutability": "view",
      "type": "function"
    },
    {
      "inputs": [],
      "name": "_maxWalletToken",
      "outputs": [
        {
          "internalType": "uint256",
          "name": "",
          "type": "uint256"
        }
      ],
      "stateMutability": "view",
      "type": "function"
    },
    {
      "inputs": [],
      "name": "_numTokensSellToAddToLiquidity",
      "outputs": [
        {
          "internalType": "uint256",
          "name": "",
          "type": "uint256"
        }
      ],
      "stateMutability": "view",
      "type": "function"
    },
    {
      "inputs": [],
      "name": "_wallet_burn",
      "outputs": [
        {
          "internalType": "address payable",
          "name": "",
          "type": "address"
        }
      ],
      "stateMutability": "view",
      "type": "function"
    },
    {
      "inputs": [],
      "name": "_wallet_buyback",
      "outputs": [
        {
          "internalType": "address payable",
          "name": "",
          "type": "address"
        }
      ],
      "stateMutability": "view",
      "type": "function"
    },
    {
      "inputs": [],
      "name": "_wallet_marketing",
      "outputs": [
        {
          "internalType": "address payable",
          "name": "",
          "type": "address"
        }
      ],
      "stateMutability": "view",
      "type": "function"
    },
    {
      "inputs": [
        {
          "internalType": "address",
          "name": "owner",
          "type": "address"
        },
        {
          "internalType": "address",
          "name": "spender",
          "type": "address"
        }
      ],
      "name": "allowance",
      "outputs": [
        {
          "internalType": "uint256",
          "name": "",
          "type": "uint256"
        }
      ],
      "stateMutability": "view",
      "type": "function"
    },
    {
      "inputs": [
        {
          "internalType": "address",
          "name": "spender",
          "type": "address"
        },
        {
          "internalType": "uint256",
          "name": "amount",
          "type": "uint256"
        }
      ],
      "name": "approve",
      "outputs": [
        {
          "internalType": "bool",
          "name": "",
          "type": "bool"
        }
      ],
      "stateMutability": "nonpayable",
      "type": "function"
    },
    {
      "inputs": [
        {
          "internalType": "address",
          "name": "account",
          "type": "address"
        }
      ],
      "name": "balanceOf",
      "outputs": [
        {
          "internalType": "uint256",
          "name": "",
          "type": "uint256"
        }
      ],
      "stateMutability": "view",
      "type": "function"
    },
    {
      "inputs": [
        {
          "internalType": "address",
          "name": "wallet",
          "type": "address"
        },
        {
          "internalType": "uint256",
          "name": "tokensToConvert",
          "type": "uint256"
        }
      ],
      "name": "burn_tokens_to_dead",
      "outputs": [],
      "stateMutability": "nonpayable",
      "type": "function"
    },
    {
      "inputs": [],
      "name": "buyCooldownEnabled",
      "outputs": [
        {
          "internalType": "bool",
          "name": "",
          "type": "bool"
        }
      ],
      "stateMutability": "view",
      "type": "function"
    },
    {
      "inputs": [
        {
          "internalType": "uint256",
          "name": "tokensToConvert",
          "type": "uint256"
        }
      ],
      "name": "convertLiquidityBalance",
      "outputs": [],
      "stateMutability": "nonpayable",
      "type": "function"
    },
    {
      "inputs": [
        {
          "internalType": "bool",
          "name": "_status",
          "type": "bool"
        },
        {
          "internalType": "uint8",
          "name": "_interval",
          "type": "uint8"
        }
      ],
      "name": "cooldownEnabled",
      "outputs": [],
      "stateMutability": "nonpayable",
      "type": "function"
    },
    {
      "inputs": [],
      "name": "cooldownTimerInterval",
      "outputs": [
        {
          "internalType": "uint8",
          "name": "",
          "type": "uint8"
        }
      ],
      "stateMutability": "view",
      "type": "function"
    },
    {
      "inputs": [],
      "name": "deadAddress",
      "outputs": [
        {
          "internalType": "address",
          "name": "",
          "type": "address"
        }
      ],
      "stateMutability": "view",
      "type": "function"
    },
    {
      "inputs": [],
      "name": "decimals",
      "outputs": [
        {
          "internalType": "uint8",
          "name": "",
          "type": "uint8"
        }
      ],
      "stateMutability": "view",
      "type": "function"
    },
    {
      "inputs": [
        {
          "internalType": "address",
          "name": "spender",
          "type": "address"
        },
        {
          "internalType": "uint256",
          "name": "subtractedValue",
          "type": "uint256"
        }
      ],
      "name": "decreaseAllowance",
      "outputs": [
        {
          "internalType": "bool",
          "name": "",
          "type": "bool"
        }
      ],
      "stateMutability": "nonpayable",
      "type": "function"
    },
    {
      "inputs": [
        {
          "internalType": "uint256",
          "name": "tAmount",
          "type": "uint256"
        }
      ],
      "name": "deliver",
      "outputs": [],
      "stateMutability": "nonpayable",
      "type": "function"
    },
    {
      "inputs": [
        {
          "internalType": "address",
          "name": "account",
          "type": "address"
        }
      ],
      "name": "excludeFromReward",
      "outputs": [],
      "stateMutability": "nonpayable",
      "type": "function"
    },
    {
      "inputs": [
        {
          "internalType": "uint256",
          "name": "tokensToConvert",
          "type": "uint256"
        },
        {
          "internalType": "address payable",
          "name": "feeWallet",
          "type": "address"
        },
        {
          "internalType": "uint256",
          "name": "minBalanceToKeep",
          "type": "uint256"
        }
      ],
      "name": "fees_to_bnb_manual",
      "outputs": [],
      "stateMutability": "nonpayable",
      "type": "function"
    },
    {
      "inputs": [
        {
          "internalType": "address",
          "name": "account",
          "type": "address"
        }
      ],
      "name": "includeInReward",
      "outputs": [],
      "stateMutability": "nonpayable",
      "type": "function"
    },
    {
      "inputs": [
        {
          "internalType": "address",
          "name": "spender",
          "type": "address"
        },
        {
          "internalType": "uint256",
          "name": "addedValue",
          "type": "uint256"
        }
      ],
      "name": "increaseAllowance",
      "outputs": [
        {
          "internalType": "bool",
          "name": "",
          "type": "bool"
        }
      ],
      "stateMutability": "nonpayable",
      "type": "function"
    },
    {
      "inputs": [
        {
          "internalType": "address",
          "name": "account",
          "type": "address"
        }
      ],
      "name": "isExcludedFromFee",
      "outputs": [
        {
          "internalType": "bool",
          "name": "",
          "type": "bool"
        }
      ],
      "stateMutability": "view",
      "type": "function"
    },
    {
      "inputs": [
        {
          "internalType": "address",
          "name": "account",
          "type": "address"
        }
      ],
      "name": "isExcludedFromReward",
      "outputs": [
        {
          "internalType": "bool",
          "name": "",
          "type": "bool"
        }
      ],
      "stateMutability": "view",
      "type": "function"
    },
    {
      "inputs": [],
      "name": "name",
      "outputs": [
        {
          "internalType": "string",
          "name": "",
          "type": "string"
        }
      ],
      "stateMutability": "view",
      "type": "function"
    },
    {
      "inputs": [],
      "name": "owner",
      "outputs": [
        {
          "internalType": "address",
          "name": "",
          "type": "address"
        }
      ],
      "stateMutability": "view",
      "type": "function"
    },
    {
      "inputs": [],
      "name": "purgeContractBalance",
      "outputs": [],
      "stateMutability": "nonpayable",
      "type": "function"
    },
    {
      "inputs": [
        {
          "internalType": "uint256",
          "name": "tAmount",
          "type": "uint256"
        },
        {
          "internalType": "bool",
          "name": "deductTransferFee",
          "type": "bool"
        }
      ],
      "name": "reflectionFromToken",
      "outputs": [
        {
          "internalType": "uint256",
          "name": "",
          "type": "uint256"
        }
      ],
      "stateMutability": "view",
      "type": "function"
    },
    {
      "inputs": [
        {
          "internalType": "address[]",
          "name": "addresses",
          "type": "address[]"
        },
        {
          "internalType": "bool",
          "name": "status",
          "type": "bool"
        }
      ],
      "name": "s_excludeFromFee",
      "outputs": [],
      "stateMutability": "nonpayable",
      "type": "function"
    },
    {
      "inputs": [
        {
          "internalType": "address[]",
          "name": "addresses",
          "type": "address[]"
        },
        {
          "internalType": "bool",
          "name": "status",
          "type": "bool"
        }
      ],
      "name": "s_manageBlacklist",
      "outputs": [],
      "stateMutability": "nonpayable",
      "type": "function"
    },
    {
      "inputs": [
        {
          "internalType": "address[]",
          "name": "addresses",
          "type": "address[]"
        },
        {
          "internalType": "bool",
          "name": "status",
          "type": "bool"
        }
      ],
      "name": "s_manageExcludeFromFee",
      "outputs": [],
      "stateMutability": "nonpayable",
      "type": "function"
    },
    {
      "inputs": [
        {
          "internalType": "address[]",
          "name": "addresses",
          "type": "address[]"
        },
        {
          "internalType": "bool",
          "name": "status",
          "type": "bool"
        }
      ],
      "name": "s_manageWhitelist",
      "outputs": [],
      "stateMutability": "nonpayable",
      "type": "function"
    },
    {
      "inputs": [],
      "name": "sellMultiplier",
      "outputs": [
        {
          "internalType": "uint256",
          "name": "",
          "type": "uint256"
        }
      ],
      "stateMutability": "view",
      "type": "function"
    },
    {
      "inputs": [
        {
          "internalType": "uint256",
          "name": "maxTxPercent",
          "type": "uint256"
        }
      ],
      "name": "setMaxTxPercent_base1000",
      "outputs": [],
      "stateMutability": "nonpayable",
      "type": "function"
    },
    {
      "inputs": [
        {
          "internalType": "uint256",
          "name": "maxTxTokens",
          "type": "uint256"
        }
      ],
      "name": "setMaxTxTokens",
      "outputs": [],
      "stateMutability": "nonpayable",
      "type": "function"
    },
    {
      "inputs": [
        {
          "internalType": "uint256",
          "name": "maxWallPercent",
          "type": "uint256"
        }
      ],
      "name": "setMaxWalletPercent_base1000",
      "outputs": [],
      "stateMutability": "nonpayable",
      "type": "function"
    },
    {
      "inputs": [
        {
          "internalType": "uint256",
          "name": "maxWallTokens",
          "type": "uint256"
        }
      ],
      "name": "setMaxWalletTokens",
      "outputs": [],
      "stateMutability": "nonpayable",
      "type": "function"
    },
    {
      "inputs": [
        {
          "internalType": "uint256",
          "name": "numTokensSellToAddToLiquidity",
          "type": "uint256"
        }
      ],
      "name": "setNumTokensSellToAddToLiquidityt",
      "outputs": [],
      "stateMutability": "nonpayable",
      "type": "function"
    },
    {
      "inputs": [
        {
          "internalType": "bool",
          "name": "_status",
          "type": "bool"
        }
      ],
      "name": "setSwapAndLiquifyEnabled",
      "outputs": [],
      "stateMutability": "nonpayable",
      "type": "function"
    },
    {
      "inputs": [
        {
          "internalType": "uint256",
          "name": "Buyback_Fee",
          "type": "uint256"
        },
        {
          "internalType": "uint256",
          "name": "Burn_Fees",
          "type": "uint256"
        },
        {
          "internalType": "uint256",
          "name": "Liquidity_Fees",
          "type": "uint256"
        },
        {
          "internalType": "uint256",
          "name": "Reflection_Fees",
          "type": "uint256"
        },
        {
          "internalType": "uint256",
          "name": "MarketingFee",
          "type": "uint256"
        }
      ],
      "name": "set_All_Fees",
      "outputs": [],
      "stateMutability": "nonpayable",
      "type": "function"
    },
    {
      "inputs": [
        {
          "internalType": "uint256",
          "name": "marketing_fee_minimum_balance",
          "type": "uint256"
        },
        {
          "internalType": "uint256",
          "name": "buyback_fee_minimum_balance",
          "type": "uint256"
        }
      ],
      "name": "set_All_Fees_Minimum_Balance",
      "outputs": [],
      "stateMutability": "nonpayable",
      "type": "function"
    },
    {
      "inputs": [
        {
          "internalType": "uint256",
          "name": "marketing_fee_convert_limit",
          "type": "uint256"
        },
        {
          "internalType": "uint256",
          "name": "buyback_fee_convert_limit",
          "type": "uint256"
        }
      ],
      "name": "set_All_Fees_Triggers",
      "outputs": [],
      "stateMutability": "nonpayable",
      "type": "function"
    },
    {
      "inputs": [
        {
          "internalType": "uint256",
          "name": "Multiplier",
          "type": "uint256"
        }
      ],
      "name": "set_sell_multiplier",
      "outputs": [],
      "stateMutability": "nonpayable",
      "type": "function"
    },
    {
      "inputs": [],
      "name": "swapAndLiquifyEnabled",
      "outputs": [
        {
          "internalType": "bool",
          "name": "",
          "type": "bool"
        }
      ],
      "stateMutability": "view",
      "type": "function"
    },
    {
      "inputs": [],
      "name": "symbol",
      "outputs": [
        {
          "internalType": "string",
          "name": "",
          "type": "string"
        }
      ],
      "stateMutability": "view",
      "type": "function"
    },
    {
      "inputs": [
        {
          "internalType": "uint256",
          "name": "rAmount",
          "type": "uint256"
        }
      ],
      "name": "tokenFromReflection",
      "outputs": [
        {
          "internalType": "uint256",
          "name": "",
          "type": "uint256"
        }
      ],
      "stateMutability": "view",
      "type": "function"
    },
    {
      "inputs": [],
      "name": "totalFees",
      "outputs": [
        {
          "internalType": "uint256",
          "name": "",
          "type": "uint256"
        }
      ],
      "stateMutability": "view",
      "type": "function"
    },
    {
      "inputs": [],
      "name": "totalSupply",
      "outputs": [
        {
          "internalType": "uint256",
          "name": "",
          "type": "uint256"
        }
      ],
      "stateMutability": "view",
      "type": "function"
    },
    {
      "inputs": [],
      "name": "tradingOpen",
      "outputs": [
        {
          "internalType": "bool",
          "name": "",
          "type": "bool"
        }
      ],
      "stateMutability": "view",
      "type": "function"
    },
    {
      "inputs": [
        {
          "internalType": "bool",
          "name": "_status",
          "type": "bool"
        }
      ],
      "name": "tradingStatus",
      "outputs": [],
      "stateMutability": "nonpayable",
      "type": "function"
    },
    {
      "inputs": [
        {
          "internalType": "address",
          "name": "recipient",
          "type": "address"
        },
        {
          "internalType": "uint256",
          "name": "amount",
          "type": "uint256"
        }
      ],
      "name": "transfer",
      "outputs": [
        {
          "internalType": "bool",
          "name": "",
          "type": "bool"
        }
      ],
      "stateMutability": "nonpayable",
      "type": "function"
    },
    {
      "inputs": [
        {
          "internalType": "address",
          "name": "sender",
          "type": "address"
        },
        {
          "internalType": "address",
          "name": "recipient",
          "type": "address"
        },
        {
          "internalType": "uint256",
          "name": "amount",
          "type": "uint256"
        }
      ],
      "name": "transferFrom",
      "outputs": [
        {
          "internalType": "bool",
          "name": "",
          "type": "bool"
        }
      ],
      "stateMutability": "nonpayable",
      "type": "function"
    },
    {
      "inputs": [
        {
          "internalType": "address",
          "name": "newOwner",
          "type": "address"
        }
      ],
      "name": "transferOwnership",
      "outputs": [],
      "stateMutability": "nonpayable",
      "type": "function"
    },
    {
      "inputs": [],
      "name": "uniswapV2Pair",
      "outputs": [
        {
          "internalType": "address",
          "name": "",
          "type": "address"
        }
      ],
      "stateMutability": "view",
      "type": "function"
    },
    {
      "inputs": [],
      "name": "uniswapV2Router",
      "outputs": [
        {
          "internalType": "contract IUniswapV2Router02",
          "name": "",
          "type": "address"
        }
      ],
      "stateMutability": "view",
      "type": "function"
    },
    {
      "stateMutability": "payable",
      "type": "receive"
    }
  ],
  "bytecode": "0x60c06040526008805462ffffff1916623c0100179055600b8054600c60ff1990911681179091556200003390600a620004dc565b620000449064e8d4a51000620005d4565b600c81905562000057906000196200064d565b6200006590600019620005f6565b600d556040805180820190915260068082526512539591539560d21b60209092019182526200009791600e916200036c565b506040805180820190915260038082526224a72b60e91b6020909201918252620000c491600f916200036c565b50612710600c546001620000d99190620005d4565b620000e5919062000478565b601055612710600c546001620000fc9190620005d4565b62000108919062000478565b60115560006012556064600c546001620001239190620005d4565b6200012f919062000478565b601355600060148190556015819055601681905560178190556018819055601a819055601b819055601c80546001600160a01b03191661dead179055601d819055601e81905560208190556021556127106022556023805461ff001916610100179055600c54602481905560258190556103e890620001b0906002620005d4565b620001bc919062000478565b60265560c8602755602980546001600160a01b03191661dead179055348015620001e557600080fd5b50604051620045cd380380620045cd83398101604081905262000208916200042f565b600080546001600160a01b0319163390811782556040519091907f8be0079c531659141344cd1fd0a4f28419497f9722a3daafe3b4186f6b6457e0908290a3602880546001600160a01b03199081166001600160a01b03868116919091178355601980548316868316178155601f8054909316858316178355600d5460008054841681526001602081815260408084209490945596546001600160601b0319606082901b1660a081905260805282548616835260048852838320805460ff19908116841790915530845284842080548216841790556029548716845284842080548216841790559454861683528383208054861683179055601c548616835283832080548616831790559554851682528282208054909416179092558154600c54825190815291519484169593169391927fddf252ad1be2c89b69c2b068fc378daa952ba7f163c4a11628f55a4df523b3ef92918290030190a35050505062000690565b8280546200037a9062000610565b90600052602060002090601f0160209004810192826200039e5760008555620003e9565b82601f10620003b957805160ff1916838001178555620003e9565b82800160010185558215620003e9579182015b82811115620003e9578251825591602001919060010190620003cc565b50620003f7929150620003fb565b5090565b5b80821115620003f75760008155600101620003fc565b80516001600160a01b03811681146200042a57600080fd5b919050565b60008060006060848603121562000444578283fd5b6200044f8462000412565b92506200045f6020850162000412565b91506200046f6040850162000412565b90509250925092565b6000826200048a576200048a6200067a565b500490565b80825b6001808611620004a35750620004d3565b818704821115620004b857620004b862000664565b80861615620004c657918102915b9490941c93800262000492565b94509492505050565b6000620004f060001960ff851684620004f7565b9392505050565b6000826200050857506001620004f0565b816200051757506000620004f0565b81600181146200053057600281146200053b576200056f565b6001915050620004f0565b60ff8411156200054f576200054f62000664565b6001841b91508482111562000568576200056862000664565b50620004f0565b5060208310610133831016604e8410600b8410161715620005a7575081810a83811115620005a157620005a162000664565b620004f0565b620005b684848460016200048f565b808604821115620005cb57620005cb62000664565b02949350505050565b6000816000190483118215151615620005f157620005f162000664565b500290565b6000828210156200060b576200060b62000664565b500390565b600181811c908216806200062557607f821691505b602082108114156200064757634e487b7160e01b600052602260045260246000fd5b50919050565b6000826200065f576200065f6200067a565b500690565b634e487b7160e01b600052601160045260246000fd5b634e487b7160e01b600052601260045260246000fd5b60805160601c60a05160601c613eb66200071760003960008181610865015281816125f6015281816127bb01528181612a2501528181612a900152612b720152600081816105f20152818161348101528181613557015281816135930152818161360501528181613674015281816138370152818161390d01526139490152613eb66000f3fe60806040526004361061044b5760003560e01c806370a0823111610234578063b34b8ca31161012e578063dd62ed3e116100b6578063f2fde38b1161007a578063f2fde38b14610e65578063fba206c314610e85578063fd748c3014610e9a578063fed0d2a114610eb0578063ffb54a9914610ec657610452565b8063dd62ed3e14610da9578063e20b5c0314610def578063e38136ef14610e05578063ec72d65f14610e25578063f00c332214610e4557610452565b8063b8786eb1116100fd578063b8786eb114610d13578063bd9ab53714610d29578063c49b9a8014610d49578063d5c9c9fb14610d69578063d61df08314610d8957610452565b8063b34b8ca314610cb1578063b3f22ce314610cd1578063b839257614610ce7578063b85f117514610cfd57610452565b8063910fb008116101bc578063a7eb8ee811610180578063a7eb8ee814610c0e578063a9059cbb14610c2e578063aedb642b14610c4e578063b1eb20e914610c6e578063b2e4d5a114610c9b57610452565b8063910fb00814610b7d57806395d89b4114610b935780639cee214214610ba8578063a457c2d714610bd8578063a5ac51b614610bf857610452565b80637d1db4a5116102035780637d1db4a514610ad05780638097e69714610ae6578063811ab49c14610b0657806388f8202014610b265780638da5cb5b14610b5f57610452565b806370a0823114610a5a578063722b62ad14610a7a57806378109e5414610a9a5780637bcaae8a14610ab057610452565b80632d838119116103455780634549b039116102cd5780635cfd7df4116102915780635cfd7df4146108ff578063617c62a11461091f578063617fe0ed14610982578063666a245d146109a157806367dc9e92146109c157610452565b80634549b0391461083357806349bd5a5e146108535780634a74bb021461088757806352390c02146108a65780635342acb4146108c657610452565b80633417ab1d116103145780633417ab1d1461079d5780633685d419146107b357806339509351146107d35780633bd5d173146107f3578063424791991461081357610452565b80632d838119146107175780632db06cb314610737578063313ce5671461075757806333a06c941461077d57610452565b80630fec5dd0116103d35780631cdd3be3116103975780631cdd3be31461067157806323b872dd146106a157806327c8f835146106c157806328e2eaab146106e15780632d594567146106f757610452565b80630fec5dd0146105ab57806313114a9d146105cb5780631694505e146105e057806318160ddd1461062c5780631c3c4fec1461064157610452565b806309302dc61161041a57806309302dc6146104fb578063095ea7b31461051b5780630aaff32c1461054b5780630b8df8e31461056b5780630d2959801461058b57610452565b8063053cfa251461045757806306e6ce751461049757806306f3a47b146104b957806306fdde03146104d957610452565b3661045257005b600080fd5b34801561046357600080fd5b506104846104723660046139ce565b60026020526000908152604090205481565b6040519081526020015b60405180910390f35b3480156104a357600080fd5b506104b76104b2366004613ab0565b610ee0565b005b3480156104c557600080fd5b506104b76104d4366004613be2565b610f96565b3480156104e557600080fd5b506104ee610fc8565b60405161048e9190613cad565b34801561050757600080fd5b506104b7610516366004613b79565b61105a565b34801561052757600080fd5b5061053b610536366004613a85565b6110a5565b604051901515815260200161048e565b34801561055757600080fd5b506104b7610566366004613ab0565b6110bc565b34801561057757600080fd5b506104b76105863660046139ce565b611163565b34801561059757600080fd5b506104b76105a6366004613b2f565b6111af565b3480156105b757600080fd5b506104b76105c6366004613b79565b6111ec565b3480156105d757600080fd5b50601654610484565b3480156105ec57600080fd5b506106147f000000000000000000000000000000000000000000000000000000000000000081565b6040516001600160a01b03909116815260200161048e565b34801561063857600080fd5b50600c54610484565b34801561064d57600080fd5b5061065661121b565b6040805193845260208401929092529082015260600161048e565b34801561067d57600080fd5b5061053b61068c3660046139ce565b60066020526000908152604090205460ff1681565b3480156106ad57600080fd5b5061053b6106bc366004613a45565b61123a565b3480156106cd57600080fd5b50602954610614906001600160a01b031681565b3480156106ed57600080fd5b5061048460135481565b34801561070357600080fd5b506104b7610712366004613b49565b611310565b34801561072357600080fd5b50610484610732366004613b79565b61136b565b34801561074357600080fd5b506104b7610752366004613b91565b6113f1565b34801561076357600080fd5b50600b5460ff165b60405160ff909116815260200161048e565b34801561078957600080fd5b50601f54610614906001600160a01b031681565b3480156107a957600080fd5b5061048460115481565b3480156107bf57600080fd5b506104b76107ce3660046139ce565b61142b565b3480156107df57600080fd5b5061053b6107ee366004613a85565b61161b565b3480156107ff57600080fd5b506104b761080e366004613b79565b611652565b34801561081f57600080fd5b506104b761082e366004613c30565b611745565b34801561083f57600080fd5b5061048461084e366004613bb7565b61182f565b34801561085f57600080fd5b506106147f000000000000000000000000000000000000000000000000000000000000000081565b34801561089357600080fd5b5060235461053b90610100900460ff1681565b3480156108b257600080fd5b506104b76108c13660046139ce565b6118c6565b3480156108d257600080fd5b5061053b6108e13660046139ce565b6001600160a01b031660009081526004602052604090205460ff1690565b34801561090b57600080fd5b506104b761091a366004613b79565b611a19565b34801561092b57600080fd5b50610934611a48565b6040805160ff9a8b16815260208101999099528801969096526060870194909452608086019290925260a0850152151560c0840152151560e08301529091166101008201526101200161048e565b34801561098e57600080fd5b5060085461053b90610100900460ff1681565b3480156109ad57600080fd5b50601954610614906001600160a01b031681565b3480156109cd57600080fd5b5060145460208054601d54601054601254601754601154601354601a54601f54601c54601954604080519d8e529b8d019a909a52998b019790975260608a0195909552608089019390935260a088019190915260c087015260e08601526101008501526001600160a01b03908116610120850152918216610140840152166101608201526101800161048e565b348015610a6657600080fd5b50610484610a753660046139ce565b611aac565b348015610a8657600080fd5b5060085461076b9062010000900460ff1681565b348015610aa657600080fd5b5061048460245481565b348015610abc57600080fd5b506104b7610acb3660046139ce565b611b0e565b348015610adc57600080fd5b5061048460255481565b348015610af257600080fd5b506104b7610b01366004613b79565b611b5a565b348015610b1257600080fd5b50601c54610614906001600160a01b031681565b348015610b3257600080fd5b5061053b610b413660046139ce565b6001600160a01b031660009081526005602052604090205460ff1690565b348015610b6b57600080fd5b506000546001600160a01b0316610614565b348015610b8957600080fd5b5061048460205481565b348015610b9f57600080fd5b506104ee611b89565b348015610bb457600080fd5b5061053b610bc33660046139ce565b60076020526000908152604090205460ff1681565b348015610be457600080fd5b5061053b610bf3366004613a85565b611b98565b348015610c0457600080fd5b50610484601a5481565b348015610c1a57600080fd5b506104b7610c29366004613be2565b611c4f565b348015610c3a57600080fd5b5061053b610c49366004613a85565b611c84565b348015610c5a57600080fd5b50602854610614906001600160a01b031681565b348015610c7a57600080fd5b50610484610c893660046139ce565b60016020526000908152604090205481565b348015610ca757600080fd5b5061048460105481565b348015610cbd57600080fd5b506104b7610ccc366004613b79565b611c91565b348015610cdd57600080fd5b5061048460265481565b348015610cf357600080fd5b5061048460175481565b348015610d0957600080fd5b5061048460145481565b348015610d1f57600080fd5b50610484601d5481565b348015610d3557600080fd5b506104b7610d44366004613b79565b611d01565b348015610d5557600080fd5b506104b7610d64366004613b2f565b611d4c565b348015610d7557600080fd5b506104b7610d843660046139ce565b611dca565b348015610d9557600080fd5b506104b7610da4366004613a85565b611e16565b348015610db557600080fd5b50610484610dc4366004613a0d565b6001600160a01b03918216600090815260036020908152604080832093909416825291909152205490565b348015610dfb57600080fd5b5061048460125481565b348015610e1157600080fd5b506104b7610e20366004613ab0565b61202a565b348015610e3157600080fd5b506104b7610e40366004613b79565b6120d1565b348015610e5157600080fd5b506104b7610e60366004613ab0565b612100565b348015610e7157600080fd5b506104b7610e803660046139ce565b6121a7565b348015610e9157600080fd5b506104b7612291565b348015610ea657600080fd5b5061048460225481565b348015610ebc57600080fd5b5061048460275481565b348015610ed257600080fd5b5060085461053b9060ff1681565b6000546001600160a01b03163314610f135760405162461bcd60e51b8152600401610f0a90613d00565b60405180910390fd5b60005b82811015610f90578160046000868685818110610f4357634e487b7160e01b600052603260045260246000fd5b9050602002016020810190610f5891906139ce565b6001600160a01b031681526020810191909152604001600020805460ff1916911515919091179055610f8981613e1a565b9050610f16565b50505050565b6000546001600160a01b03163314610fc05760405162461bcd60e51b8152600401610f0a90613d00565b601255601355565b6060600e8054610fd790613ddf565b80601f016020809104026020016040519081016040528092919081815260200182805461100390613ddf565b80156110505780601f1061102557610100808354040283529160200191611050565b820191906000526020600020905b81548152906001019060200180831161103357829003601f168201915b5050505050905090565b6000546001600160a01b031633146110845760405162461bcd60e51b8152600401610f0a90613d00565b6103e881600c546110959190613da9565b61109f9190613d89565b60245550565b60006110b233848461233c565b5060015b92915050565b6000546001600160a01b031633146110e65760405162461bcd60e51b8152600401610f0a90613d00565b60005b82811015610f9057816007600086868581811061111657634e487b7160e01b600052603260045260246000fd5b905060200201602081019061112b91906139ce565b6001600160a01b031681526020810191909152604001600020805460ff191691151591909117905561115c81613e1a565b90506110e9565b6000546001600160a01b0316331461118d5760405162461bcd60e51b8152600401610f0a90613d00565b601980546001600160a01b0319166001600160a01b0392909216919091179055565b6000546001600160a01b031633146111d95760405162461bcd60e51b8152600401610f0a90613d00565b6008805460ff1916911515919091179055565b6000546001600160a01b031633146112165760405162461bcd60e51b8152600401610f0a90613d00565b602455565b600080600060265461122c30611aac565b601654925092509250909192565b6000611247848484612458565b6001600160a01b03841660009081526003602090815260408083203384529091529020548211156112cb5760405162461bcd60e51b815260206004820152602860248201527f45524332303a207472616e7366657220616d6f756e74206578636565647320616044820152676c6c6f77616e636560c01b6064820152608401610f0a565b6001600160a01b038416600090815260036020908152604080832033808552925290912054611306918691611301908690613dc8565b61233c565b5060019392505050565b6000546001600160a01b0316331461133a5760405162461bcd60e51b8152600401610f0a90613d00565b6008805462ffff0019166101009315159390930262ff00001916929092176201000060ff9290921691909102179055565b6000600d548211156113d25760405162461bcd60e51b815260206004820152602a60248201527f416d6f756e74206d757374206265206c657373207468616e20746f74616c207260448201526965666c656374696f6e7360b01b6064820152608401610f0a565b60006113dc612c19565b90506113e88184613d89565b9150505b919050565b6000546001600160a01b0316331461141b5760405162461bcd60e51b8152600401610f0a90613d00565b611426838383612c3c565b505050565b6000546001600160a01b031633146114555760405162461bcd60e51b8152600401610f0a90613d00565b6001600160a01b03811660009081526005602052604090205460ff166114bd5760405162461bcd60e51b815260206004820152601b60248201527f4163636f756e7420697320616c726561647920696e636c7564656400000000006044820152606401610f0a565b60005b600a5481101561161757816001600160a01b0316600a82815481106114f557634e487b7160e01b600052603260045260246000fd5b6000918252602090912001546001600160a01b0316141561160557600a805461152090600190613dc8565b8154811061153e57634e487b7160e01b600052603260045260246000fd5b600091825260209091200154600a80546001600160a01b03909216918390811061157857634e487b7160e01b600052603260045260246000fd5b600091825260208083209190910180546001600160a01b0319166001600160a01b039485161790559184168152600282526040808220829055600590925220805460ff19169055600a8054806115de57634e487b7160e01b600052603160045260246000fd5b600082815260209020810160001990810180546001600160a01b0319169055019055611617565b8061160f81613e1a565b9150506114c0565b5050565b3360008181526003602090815260408083206001600160a01b038716845290915281205490916110b2918590611301908690613d71565b3360008181526005602052604090205460ff16156116c75760405162461bcd60e51b815260206004820152602c60248201527f4578636c75646564206164647265737365732063616e6e6f742063616c6c207460448201526b3434b990333ab731ba34b7b760a11b6064820152608401610f0a565b60006116d4836000612c78565b5050506001600160a01b038816600090815260016020526040902054959650611705958795509350613dc892505050565b6001600160a01b038316600090815260016020526040902055600d5461172c908290613dc8565b600d5560165461173d908490613d71565b601655505050565b6000546001600160a01b0316331461176f5760405162461bcd60e51b8152600401610f0a90613d00565b600082868561177e8589613d71565b6117889190613d71565b6117929190613d71565b61179c9190613d71565b9050610fa0811061180d5760405162461bcd60e51b815260206004820152603560248201527f43616e6e6f74207365742066656573207468697320686967682c2070616e63616044820152746b6520737761702077696c6c20686174652075732160581b6064820152608401610f0a565b601a85905560178290556020849055601d86905560148390555b505050505050565b6000600c548311156118835760405162461bcd60e51b815260206004820152601f60248201527f416d6f756e74206d757374206265206c657373207468616e20737570706c79006044820152606401610f0a565b816118a7576000611895846000612c78565b509698506110b6975050505050505050565b60006118b4846000612c78565b509598506110b6975050505050505050565b6000546001600160a01b031633146118f05760405162461bcd60e51b8152600401610f0a90613d00565b6001600160a01b03811660009081526005602052604090205460ff16156119595760405162461bcd60e51b815260206004820152601b60248201527f4163636f756e7420697320616c7265616479206578636c7564656400000000006044820152606401610f0a565b6001600160a01b038116600090815260016020526040902054156119b3576001600160a01b0381166000908152600160205260409020546119999061136b565b6001600160a01b0382166000908152600260205260409020555b6001600160a01b03166000818152600560205260408120805460ff19166001908117909155600a805491820181559091527fc65a7bb8d6351c1cf70c95a316cc6a92839c986682d98bc35f958f4883f9d2a80180546001600160a01b0319169091179055565b6000546001600160a01b03163314611a435760405162461bcd60e51b8152600401610f0a90613d00565b602555565b6000806000806000806000806000600b60009054906101000a900460ff16602554602454600c54600d54611a7a612c19565b600854959f949e50929c50909a509850965060ff80831696506101008304811695506201000090920490911692509050565b6001600160a01b03811660009081526005602052604081205460ff1615611aec57506001600160a01b0381166000908152600260205260409020546113ec565b6001600160a01b0382166000908152600160205260409020546110b69061136b565b6000546001600160a01b03163314611b385760405162461bcd60e51b8152600401610f0a90613d00565b601f80546001600160a01b0319166001600160a01b0392909216919091179055565b6000546001600160a01b03163314611b845760405162461bcd60e51b8152600401610f0a90613d00565b602655565b6060600f8054610fd790613ddf565b3360009081526003602090815260408083206001600160a01b0386168452909152812054821115611c195760405162461bcd60e51b815260206004820152602560248201527f45524332303a2064656372656173656420616c6c6f77616e63652062656c6f77604482015264207a65726f60d81b6064820152608401610f0a565b3360008181526003602090815260408083206001600160a01b03881684529091529020546110b291908590611301908690613dc8565b6000546001600160a01b03163314611c795760405162461bcd60e51b8152600401610f0a90613d00565b601191909155601055565b60006110b2338484612458565b6000546001600160a01b03163314611cbb5760405162461bcd60e51b8152600401610f0a90613d00565b6000611cc630611aac565b90506025548110611ce3576001602554611ce09190613dc8565b90505b811580611cef57508082115b15611cf8578091505b61161782612e07565b6000546001600160a01b03163314611d2b5760405162461bcd60e51b8152600401610f0a90613d00565b6103e881600c54611d3c9190613da9565b611d469190613d89565b60255550565b6000546001600160a01b03163314611d765760405162461bcd60e51b8152600401610f0a90613d00565b602380548215156101000261ff00199091161790556040517f53726dfcaf90650aa7eb35524f4d3220f07413c8d6cb404cc8c18bf5591bc15990611dbf90831515815260200190565b60405180910390a150565b6000546001600160a01b03163314611df45760405162461bcd60e51b8152600401610f0a90613d00565b601c80546001600160a01b0319166001600160a01b0392909216919091179055565b6000546001600160a01b03163314611e405760405162461bcd60e51b8152600401610f0a90613d00565b6000546001600160a01b0316331480611e615750336001600160a01b038316145b611ea65760405162461bcd60e51b81526020600482015260166024820152752737ba1030baba3437b934bd32b2103a3790313ab93760511b6044820152606401610f0a565b6000611eb0612c19565b611eba9083613da9565b6001600160a01b038416600090815260016020526040902054909150611ee1908290613dc8565b6001600160a01b03841660009081526001602090815260408083209390935560059052205460ff1615611f4c576001600160a01b038316600090815260026020526040902054611f32908390613dc8565b6001600160a01b0384166000908152600260205260409020555b6029546001600160a01b031660009081526005602052604090205460ff1615611fb1576029546001600160a01b0316600090815260026020526040902054611f95908390613d71565b6029546001600160a01b03166000908152600260205260409020555b6029546001600160a01b0316600090815260016020526040902054611fd7908290613d71565b602980546001600160a01b0390811660009081526001602090815260409182902094909455915491518581529181169290861691600080516020613e6183398151915291015b60405180910390a3505050565b6000546001600160a01b031633146120545760405162461bcd60e51b8152600401610f0a90613d00565b60005b82811015610f9057816006600086868581811061208457634e487b7160e01b600052603260045260246000fd5b905060200201602081019061209991906139ce565b6001600160a01b031681526020810191909152604001600020805460ff19169115159190911790556120ca81613e1a565b9050612057565b6000546001600160a01b031633146120fb5760405162461bcd60e51b8152600401610f0a90613d00565b602755565b6000546001600160a01b0316331461212a5760405162461bcd60e51b8152600401610f0a90613d00565b60005b82811015610f9057816004600086868581811061215a57634e487b7160e01b600052603260045260246000fd5b905060200201602081019061216f91906139ce565b6001600160a01b031681526020810191909152604001600020805460ff19169115159190911790556121a081613e1a565b905061212d565b6000546001600160a01b031633146121d15760405162461bcd60e51b8152600401610f0a90613d00565b6001600160a01b0381166122365760405162461bcd60e51b815260206004820152602660248201527f4f776e61626c653a206e6577206f776e657220697320746865207a65726f206160448201526564647265737360d01b6064820152608401610f0a565b600080546040516001600160a01b03808516939216917f8be0079c531659141344cd1fd0a4f28419497f9722a3daafe3b4186f6b6457e091a3600080546001600160a01b0319166001600160a01b0392909216919091179055565b6000546001600160a01b03163314806122b457506019546001600160a01b031633145b6123005760405162461bcd60e51b815260206004820152601e60248201527f4e6f7420617574686f72697a656420746f20706572666f726d207468697300006044820152606401610f0a565b6019546040516001600160a01b03909116904780156108fc02916000818181858888f19350505050158015612339573d6000803e3d6000fd5b50565b6001600160a01b03831661239e5760405162461bcd60e51b8152602060048201526024808201527f45524332303a20617070726f76652066726f6d20746865207a65726f206164646044820152637265737360e01b6064820152608401610f0a565b6001600160a01b0382166123ff5760405162461bcd60e51b815260206004820152602260248201527f45524332303a20617070726f766520746f20746865207a65726f206164647265604482015261737360f01b6064820152608401610f0a565b6001600160a01b0383811660008181526003602090815260408083209487168084529482529182902085905590518481527f8c5be1e5ebec7d5bd14f71427d1e84f3dd0314c0f7b2291e5b200ac8c7c3b925910161201d565b6001600160a01b03831660009081526006602052604090205460ff1615801561249a57506001600160a01b03821660009081526006602052604090205460ff16155b6124e65760405162461bcd60e51b815260206004820152601b60248201527f54686973206164647265737320697320626c61636b6c697374656400000000006044820152606401610f0a565b6001600160a01b03831661254a5760405162461bcd60e51b815260206004820152602560248201527f45524332303a207472616e736665722066726f6d20746865207a65726f206164604482015264647265737360d81b6064820152608401610f0a565b6001600160a01b0382166125ac5760405162461bcd60e51b815260206004820152602360248201527f45524332303a207472616e7366657220746f20746865207a65726f206164647260448201526265737360e81b6064820152608401610f0a565b6000546001600160a01b038381169116148015906125d357506001600160a01b0382163014155b80156125ed57506029546001600160a01b03838116911614155b801561262b57507f00000000000000000000000000000000000000000000000000000000000000006001600160a01b0316826001600160a01b031614155b801561264557506019546001600160a01b03838116911614155b801561265f5750601f546001600160a01b03838116911614155b156126f557600061266f83611aac565b60245490915061267f8383613d71565b11156126f35760405162461bcd60e51b815260206004820152603e60248201527f546f74616c20486f6c64696e672069732063757272656e746c79206c696d697460448201527f65642c20796f752063616e206e6f74206275792074686174206d7563682e00006064820152608401610f0a565b505b6000546001600160a01b0384811691161480159061272157506000546001600160a01b03838116911614155b801561274657506001600160a01b03831660009081526007602052604090205460ff16155b801561276b57506001600160a01b03821660009081526007602052604090205460ff16155b156127b95760085460ff166127b95760405162461bcd60e51b8152602060048201526014602482015273151c98591a5b99c81b9bdd081bdc195b881e595d60621b6044820152606401610f0a565b7f00000000000000000000000000000000000000000000000000000000000000006001600160a01b0316836001600160a01b03161480156128015750600854610100900460ff165b801561282657506001600160a01b03821660009081526004602052604090205460ff16155b801561283b57506001600160a01b0382163014155b801561285557506029546001600160a01b03838116911614155b156128ff576001600160a01b03821660009081526009602052604090205442116128cf5760405162461bcd60e51b815260206004820152602560248201527f506c65617365207761697420666f7220636f6f6c646f776e206265747765656e604482015264206275797360d81b6064820152608401610f0a565b6008546128e59062010000900460ff1642613d71565b6001600160a01b0383166000908152600960205260409020555b6000546001600160a01b0384811691161480159061292b57506000546001600160a01b03838116911614155b801561295057506001600160a01b03831660009081526007602052604090205460ff16155b801561297557506001600160a01b03821660009081526007602052604090205460ff16155b156129dd576025548111156129dd5760405162461bcd60e51b815260206004820152602860248201527f5472616e7366657220616d6f756e74206578636565647320746865206d6178546044820152673c20b6b7bab73a1760c11b6064820152608401610f0a565b60006129e830611aac565b90506025548110612a05576001602554612a029190613dc8565b90505b60265481108015908190612a1c575060235460ff16155b8015612a5a57507f00000000000000000000000000000000000000000000000000000000000000006001600160a01b0316856001600160a01b031614155b8015612a6d5750602354610100900460ff165b15612a80576026549150612a8082612e07565b60235460ff16158015612ac557507f00000000000000000000000000000000000000000000000000000000000000006001600160a01b0316856001600160a01b031614155b15612b0457601054601f54601254612ae792916001600160a01b031690612c3c565b601154601954601354612b0492916001600160a01b031690612c3c565b50506001600160a01b03831660009081526004602052604090205460019060ff1680612b4857506001600160a01b03831660009081526004602052604090205460ff165b15612b51575060005b80612b5e57612b5e612e96565b6000806000806000806000806000612baa8b7f00000000000000000000000000000000000000000000000000000000000000006001600160a01b03168e6001600160a01b031614612c78565b985098509850985098509850985098509850612bca8d8d8d8c8a8d612ed6565b612bd48782613092565b89612be657612be16130b8565b612c0a565b612bef856130e1565b612bf8846130f8565b612c018361310f565b612c0a82613119565b50505050505050505050505050565b6000806000612c26613130565b9092509050612c358183613d89565b9250505090565b82612c4657611426565b602554831115612c565760255492505b612c5f82611aac565b612c698285613d71565b116114265761142682846132ee565b6000806000806000806000806000808a612c93576064612c97565b6027545b9050602254601a548d612caa9190613da9565b612cb49190613d89565b95506022546064612cc59190613da9565b816017548e612cd49190613da9565b612cde9190613da9565b612ce89190613d89565b94506022546064612cf99190613da9565b816020548e612d089190613da9565b612d129190613da9565b612d1c9190613d89565b93506022546064612d2d9190613da9565b81601d548e612d3c9190613da9565b612d469190613da9565b612d509190613d89565b92506022546064612d619190613da9565b816014548e612d709190613da9565b612d7a9190613da9565b612d849190613d89565b9150818385612d93888a613d71565b612d9d9190613d71565b612da79190613d71565b612db19190613d71565b612dbb908d613dc8565b9650612dc5612c19565b612dcf9083613da9565b9750612dd9612c19565b612de3908d613da9565b9950612ded612c19565b612df79088613da9565b9850509295985092959850929598565b6023805460ff191660011790556000612e21600283613d89565b905047612e2d8261341c565b6000612e398247613dc8565b9050612e4583826135ff565b60408051858152602081018590529081018290527f17bbfb9a6069321b6ded73bd96327c9e6b7212a5cd51ff219cd61370acafb5619060600160405180910390a150506023805460ff191690555050565b601a54601b55601754601855602054602155601d54601e55601454601555612ed4600080808080601a94909455601792909255602055601d55601455565b565b6001600160a01b038616600090815260016020526040902054612efa908490613dc8565b6001600160a01b03871660009081526001602090815260408083209390935560059052205460ff1615612f65576001600160a01b038616600090815260026020526040902054612f4b908590613dc8565b6001600160a01b0387166000908152600260205260409020555b6001600160a01b03851660009081526005602052604090205460ff1615612fc4576001600160a01b038516600090815260026020526040902054612faa908390613d71565b6001600160a01b0386166000908152600260205260409020555b6001600160a01b038516600090815260016020526040902054612fe8908290613d71565b6001600160a01b038087166000818152600160205260409081902093909355915190881690600080516020613e618339815191529061302a9086815260200190565b60405180910390a36040805185815260208101859052908101839052606081018290526001600160a01b0380871691908816907fa44e2ebd30e6f04fbf0ee4935cc0558c3b926d578067dc2940e6880750cb84789060800160405180910390a3505050505050565b81600d546130a09190613dc8565b600d556016546130b1908290613d71565b6016555050565b612ed4601b54601854602154601e54601554601a94909455601792909255602055601d55601455565b601c546123399082906001600160a01b0316613701565b6019546123399082906001600160a01b0316613701565b6123398130613701565b601f546123399082906001600160a01b0316613701565b600d54600c546000918291825b600a548110156132bb578260016000600a848154811061316d57634e487b7160e01b600052603260045260246000fd5b60009182526020808320909101546001600160a01b0316835282019290925260400190205411806131e657508160026000600a84815481106131bf57634e487b7160e01b600052603260045260246000fd5b60009182526020808320909101546001600160a01b03168352820192909252604001902054115b156131fd57600d54600c54945094505050506132ea565b60016000600a838154811061322257634e487b7160e01b600052603260045260246000fd5b60009182526020808320909101546001600160a01b031683528201929092526040019020546132519084613dc8565b925060026000600a838154811061327857634e487b7160e01b600052603260045260246000fd5b60009182526020808320909101546001600160a01b031683528201929092526040019020546132a79083613dc8565b9150806132b381613e1a565b91505061313d565b50600c54600d546132cc9190613d89565b8210156132e457600d54600c549350935050506132ea565b90925090505b9091565b6023805460ff191660011790556000613305612c19565b61330f9083613da9565b6001600160a01b038416600090815260016020526040902054909150613336908290613dc8565b6001600160a01b03841660009081526001602090815260408083209390935560059052205460ff16156133a1576001600160a01b038316600090815260026020526040902054613387908390613dc8565b6001600160a01b0384166000908152600260205260409020555b306000908152600160205260409020546133bc908290613d71565b30600081815260016020526040908190209290925590516001600160a01b03851690600080516020613e61833981519152906133fb9086815260200190565b60405180910390a361340d82846137d2565b50506023805460ff1916905550565b604080516002808252606082018352600092602083019080368337019050509050308160008151811061345f57634e487b7160e01b600052603260045260246000fd5b60200260200101906001600160a01b031690816001600160a01b0316815250507f00000000000000000000000000000000000000000000000000000000000000006001600160a01b031663ad5c46486040518163ffffffff1660e01b815260040160206040518083038186803b1580156134d857600080fd5b505afa1580156134ec573d6000803e3d6000fd5b505050506040513d601f19601f8201168201806040525081019061351091906139f1565b8160018151811061353157634e487b7160e01b600052603260045260246000fd5b60200260200101906001600160a01b031690816001600160a01b03168152505061357c307f00000000000000000000000000000000000000000000000000000000000000008461233c565b60405163791ac94760e01b81526001600160a01b037f0000000000000000000000000000000000000000000000000000000000000000169063791ac947906135d1908590600090869030904290600401613d35565b600060405180830381600087803b1580156135eb57600080fd5b505af1158015611827573d6000803e3d6000fd5b61362a307f00000000000000000000000000000000000000000000000000000000000000008461233c565b60405163f305d71960e01b81523060048201526024810183905260006044820181905260648201527338febbbd7b96e459692c9b9fe8f8cf62653277c860848201524260a48201527f00000000000000000000000000000000000000000000000000000000000000006001600160a01b03169063f305d71990839060c4016060604051808303818588803b1580156136c157600080fd5b505af11580156136d5573d6000803e3d6000fd5b50505050506040513d601f19601f820116820180604052508101906136fa9190613c03565b5050505050565b600061370b612c19565b6137159084613da9565b6001600160a01b03831660009081526001602052604090205490915061373c908290613d71565b6001600160a01b03831660009081526001602090815260408083209390935560059052205460ff16156137a7576001600160a01b03821660009081526002602052604090205461378d908490613d71565b6001600160a01b0383166000908152600260205260409020555b6040518381526001600160a01b038316903390600080516020613e618339815191529060200161201d565b604080516002808252606082018352600092602083019080368337019050509050308160008151811061381557634e487b7160e01b600052603260045260246000fd5b60200260200101906001600160a01b031690816001600160a01b0316815250507f00000000000000000000000000000000000000000000000000000000000000006001600160a01b031663ad5c46486040518163ffffffff1660e01b815260040160206040518083038186803b15801561388e57600080fd5b505afa1580156138a2573d6000803e3d6000fd5b505050506040513d601f19601f820116820180604052508101906138c691906139f1565b816001815181106138e757634e487b7160e01b600052603260045260246000fd5b60200260200101906001600160a01b031690816001600160a01b031681525050613932307f00000000000000000000000000000000000000000000000000000000000000008561233c565b60405163791ac94760e01b81526001600160a01b037f0000000000000000000000000000000000000000000000000000000000000000169063791ac94790613987908690600090869088904290600401613d35565b600060405180830381600087803b1580156139a157600080fd5b505af11580156139b5573d6000803e3d6000fd5b50505050505050565b803580151581146113ec57600080fd5b6000602082840312156139df578081fd5b81356139ea81613e4b565b9392505050565b600060208284031215613a02578081fd5b81516139ea81613e4b565b60008060408385031215613a1f578081fd5b8235613a2a81613e4b565b91506020830135613a3a81613e4b565b809150509250929050565b600080600060608486031215613a59578081fd5b8335613a6481613e4b565b92506020840135613a7481613e4b565b929592945050506040919091013590565b60008060408385031215613a97578182fd5b8235613aa281613e4b565b946020939093013593505050565b600080600060408486031215613ac4578283fd5b833567ffffffffffffffff80821115613adb578485fd5b818601915086601f830112613aee578485fd5b813581811115613afc578586fd5b8760208260051b8501011115613b10578586fd5b602092830195509350613b2691860190506139be565b90509250925092565b600060208284031215613b40578081fd5b6139ea826139be565b60008060408385031215613b5b578182fd5b613b64836139be565b9150602083013560ff81168114613a3a578182fd5b600060208284031215613b8a578081fd5b5035919050565b600080600060608486031215613ba5578283fd5b833592506020840135613a7481613e4b565b60008060408385031215613bc9578182fd5b82359150613bd9602084016139be565b90509250929050565b60008060408385031215613bf4578182fd5b50508035926020909101359150565b600080600060608486031215613c17578283fd5b8351925060208401519150604084015190509250925092565b600080600080600060a08688031215613c47578081fd5b505083359560208501359550604085013594606081013594506080013592509050565b6000815180845260208085019450808401835b83811015613ca25781516001600160a01b031687529582019590820190600101613c7d565b509495945050505050565b6000602080835283518082850152825b81811015613cd957858101830151858201604001528201613cbd565b81811115613cea5783604083870101525b50601f01601f1916929092016040019392505050565b6020808252818101527f4f776e61626c653a2063616c6c6572206973206e6f7420746865206f776e6572604082015260600190565b600086825285602083015260a06040830152613d5460a0830186613c6a565b6001600160a01b0394909416606083015250608001529392505050565b60008219821115613d8457613d84613e35565b500190565b600082613da457634e487b7160e01b81526012600452602481fd5b500490565b6000816000190483118215151615613dc357613dc3613e35565b500290565b600082821015613dda57613dda613e35565b500390565b600181811c90821680613df357607f821691505b60208210811415613e1457634e487b7160e01b600052602260045260246000fd5b50919050565b6000600019821415613e2e57613e2e613e35565b5060010190565b634e487b7160e01b600052601160045260246000fd5b6001600160a01b038116811461233957600080fdfeddf252ad1be2c89b69c2b068fc378daa952ba7f163c4a11628f55a4df523b3efa26469706673582212206fd0c4831c73fd9c79185c772c2dbd5ccbae3c851001c8bd0926762450a2bf9c64736f6c63430008030033",
  "linkReferences": {},
  "deployedLinkReferences": {}
}